{
  "_format": "hh-sol-artifact-1",
  "contractName": "MyEpicGame",
  "sourceName": "contracts/MyEpicGame.sol",
  "abi": [
    {
      "inputs": [
        {
          "internalType": "string[]",
          "name": "characterNames",
          "type": "string[]"
        },
        {
          "internalType": "string[]",
          "name": "characterImageURIs",
          "type": "string[]"
        },
        {
          "internalType": "uint256[]",
          "name": "characterHp",
          "type": "uint256[]"
        },
        {
          "internalType": "uint256[]",
          "name": "characterAttackDmg",
          "type": "uint256[]"
        },
        {
          "internalType": "string[]",
          "name": "beverageNames",
          "type": "string[]"
        },
        {
          "internalType": "string[]",
          "name": "beverageImageURI",
          "type": "string[]"
        },
        {
          "internalType": "uint256[]",
          "name": "beveragePrice",
          "type": "uint256[]"
        },
        {
          "internalType": "uint256[]",
          "name": "beverageCost",
          "type": "uint256[]"
        }
      ],
      "stateMutability": "nonpayable",
      "type": "constructor"
    },
    {
      "anonymous": false,
      "inputs": [
        {
          "indexed": true,
          "internalType": "address",
          "name": "owner",
          "type": "address"
        },
        {
          "indexed": true,
          "internalType": "address",
          "name": "approved",
          "type": "address"
        },
        {
          "indexed": true,
          "internalType": "uint256",
          "name": "tokenId",
          "type": "uint256"
        }
      ],
      "name": "Approval",
      "type": "event"
    },
    {
      "anonymous": false,
      "inputs": [
        {
          "indexed": true,
          "internalType": "address",
          "name": "owner",
          "type": "address"
        },
        {
          "indexed": true,
          "internalType": "address",
          "name": "operator",
          "type": "address"
        },
        {
          "indexed": false,
          "internalType": "bool",
          "name": "approved",
          "type": "bool"
        }
      ],
      "name": "ApprovalForAll",
      "type": "event"
    },
    {
      "anonymous": false,
      "inputs": [
        {
          "indexed": false,
          "internalType": "uint256",
          "name": "newBossHp",
          "type": "uint256"
        },
        {
          "indexed": false,
          "internalType": "uint256",
          "name": "newPlayerHp",
          "type": "uint256"
        }
      ],
      "name": "AttackComplete",
      "type": "event"
    },
    {
      "anonymous": false,
      "inputs": [
        {
          "indexed": false,
          "internalType": "address",
          "name": "sender",
          "type": "address"
        },
        {
          "indexed": false,
          "internalType": "uint256",
          "name": "tokenId",
          "type": "uint256"
        },
        {
          "indexed": false,
          "internalType": "uint256",
          "name": "characterIndex",
          "type": "uint256"
        }
      ],
      "name": "CharacterNFTMinted",
      "type": "event"
    },
    {
      "anonymous": false,
      "inputs": [
        {
          "indexed": true,
          "internalType": "address",
          "name": "from",
          "type": "address"
        },
        {
          "indexed": true,
          "internalType": "address",
          "name": "to",
          "type": "address"
        },
        {
          "indexed": true,
          "internalType": "uint256",
          "name": "tokenId",
          "type": "uint256"
        }
      ],
      "name": "Transfer",
      "type": "event"
    },
    {
      "inputs": [
        {
          "internalType": "address",
          "name": "to",
          "type": "address"
        },
        {
          "internalType": "uint256",
          "name": "tokenId",
          "type": "uint256"
        }
      ],
      "name": "approve",
      "outputs": [],
      "stateMutability": "nonpayable",
      "type": "function"
    },
    {
      "inputs": [
        {
          "internalType": "uint256",
          "name": "bossIndex",
          "type": "uint256"
        }
      ],
      "name": "attackBoss",
      "outputs": [],
      "stateMutability": "nonpayable",
      "type": "function"
    },
    {
      "inputs": [
        {
          "internalType": "address",
          "name": "owner",
          "type": "address"
        }
      ],
      "name": "balanceOf",
      "outputs": [
        {
          "internalType": "uint256",
          "name": "",
          "type": "uint256"
        }
      ],
      "stateMutability": "view",
      "type": "function"
    },
    {
      "inputs": [
        {
          "internalType": "uint256",
          "name": "",
          "type": "uint256"
        }
      ],
      "name": "beverages",
      "outputs": [
        {
          "internalType": "uint256",
          "name": "beverageIndex",
          "type": "uint256"
        },
        {
          "internalType": "string",
          "name": "name",
          "type": "string"
        },
        {
          "internalType": "string",
          "name": "imageURI",
          "type": "string"
        },
        {
          "internalType": "uint256",
          "name": "hp",
          "type": "uint256"
        },
        {
          "internalType": "uint256",
          "name": "maxHp",
          "type": "uint256"
        },
        {
          "internalType": "uint256",
          "name": "attackDamage",
          "type": "uint256"
        }
      ],
      "stateMutability": "view",
      "type": "function"
    },
    {
      "inputs": [],
      "name": "checkIfUserHasNFT",
      "outputs": [
        {
          "components": [
            {
              "internalType": "uint256",
              "name": "characterIndex",
              "type": "uint256"
            },
            {
              "internalType": "string",
              "name": "name",
              "type": "string"
            },
            {
              "internalType": "string",
              "name": "imageURI",
              "type": "string"
            },
            {
              "internalType": "uint256",
              "name": "hp",
              "type": "uint256"
            },
            {
              "internalType": "uint256",
              "name": "maxHp",
              "type": "uint256"
            },
            {
              "internalType": "uint256",
              "name": "attackDamage",
              "type": "uint256"
            }
          ],
          "internalType": "struct MyEpicGame.CharacterAttributes",
          "name": "",
          "type": "tuple"
        }
      ],
      "stateMutability": "view",
      "type": "function"
    },
    {
      "inputs": [],
      "name": "getAllDefaultCharacters",
      "outputs": [
        {
          "components": [
            {
              "internalType": "uint256",
              "name": "characterIndex",
              "type": "uint256"
            },
            {
              "internalType": "string",
              "name": "name",
              "type": "string"
            },
            {
              "internalType": "string",
              "name": "imageURI",
              "type": "string"
            },
            {
              "internalType": "uint256",
              "name": "hp",
              "type": "uint256"
            },
            {
              "internalType": "uint256",
              "name": "maxHp",
              "type": "uint256"
            },
            {
              "internalType": "uint256",
              "name": "attackDamage",
              "type": "uint256"
            }
          ],
          "internalType": "struct MyEpicGame.CharacterAttributes[]",
          "name": "",
          "type": "tuple[]"
        }
      ],
      "stateMutability": "view",
      "type": "function"
    },
    {
      "inputs": [
        {
          "internalType": "uint256",
          "name": "tokenId",
          "type": "uint256"
        }
      ],
      "name": "getApproved",
      "outputs": [
        {
          "internalType": "address",
          "name": "",
          "type": "address"
        }
      ],
      "stateMutability": "view",
      "type": "function"
    },
    {
      "inputs": [
        {
          "internalType": "uint256",
          "name": "index",
          "type": "uint256"
        }
      ],
      "name": "getBeverage",
      "outputs": [
        {
          "components": [
            {
              "internalType": "uint256",
              "name": "beverageIndex",
              "type": "uint256"
            },
            {
              "internalType": "string",
              "name": "name",
              "type": "string"
            },
            {
              "internalType": "string",
              "name": "imageURI",
              "type": "string"
            },
            {
              "internalType": "uint256",
              "name": "hp",
              "type": "uint256"
            },
            {
              "internalType": "uint256",
              "name": "maxHp",
              "type": "uint256"
            },
            {
              "internalType": "uint256",
              "name": "attackDamage",
              "type": "uint256"
            }
          ],
          "internalType": "struct MyEpicGame.Beverage",
          "name": "",
          "type": "tuple"
        }
      ],
      "stateMutability": "view",
      "type": "function"
    },
    {
      "inputs": [
        {
          "internalType": "address",
          "name": "owner",
          "type": "address"
        },
        {
          "internalType": "address",
          "name": "operator",
          "type": "address"
        }
      ],
      "name": "isApprovedForAll",
      "outputs": [
        {
          "internalType": "bool",
          "name": "",
          "type": "bool"
        }
      ],
      "stateMutability": "view",
      "type": "function"
    },
    {
      "inputs": [
        {
          "internalType": "uint256",
          "name": "_characterIndex",
          "type": "uint256"
        }
      ],
      "name": "mintCharacterNFT",
      "outputs": [],
      "stateMutability": "nonpayable",
      "type": "function"
    },
    {
      "inputs": [],
      "name": "name",
      "outputs": [
        {
          "internalType": "string",
          "name": "",
          "type": "string"
        }
      ],
      "stateMutability": "view",
      "type": "function"
    },
    {
      "inputs": [
        {
          "internalType": "uint256",
          "name": "",
          "type": "uint256"
        }
      ],
      "name": "nftHolderAttributes",
      "outputs": [
        {
          "internalType": "uint256",
          "name": "characterIndex",
          "type": "uint256"
        },
        {
          "internalType": "string",
          "name": "name",
          "type": "string"
        },
        {
          "internalType": "string",
          "name": "imageURI",
          "type": "string"
        },
        {
          "internalType": "uint256",
          "name": "hp",
          "type": "uint256"
        },
        {
          "internalType": "uint256",
          "name": "maxHp",
          "type": "uint256"
        },
        {
          "internalType": "uint256",
          "name": "attackDamage",
          "type": "uint256"
        }
      ],
      "stateMutability": "view",
      "type": "function"
    },
    {
      "inputs": [
        {
          "internalType": "address",
          "name": "",
          "type": "address"
        }
      ],
      "name": "nftHolders",
      "outputs": [
        {
          "internalType": "uint256",
          "name": "",
          "type": "uint256"
        }
      ],
      "stateMutability": "view",
      "type": "function"
    },
    {
      "inputs": [
        {
          "internalType": "uint256",
          "name": "tokenId",
          "type": "uint256"
        }
      ],
      "name": "ownerOf",
      "outputs": [
        {
          "internalType": "address",
          "name": "",
          "type": "address"
        }
      ],
      "stateMutability": "view",
      "type": "function"
    },
    {
      "inputs": [
        {
          "internalType": "address",
          "name": "from",
          "type": "address"
        },
        {
          "internalType": "address",
          "name": "to",
          "type": "address"
        },
        {
          "internalType": "uint256",
          "name": "tokenId",
          "type": "uint256"
        }
      ],
      "name": "safeTransferFrom",
      "outputs": [],
      "stateMutability": "nonpayable",
      "type": "function"
    },
    {
      "inputs": [
        {
          "internalType": "address",
          "name": "from",
          "type": "address"
        },
        {
          "internalType": "address",
          "name": "to",
          "type": "address"
        },
        {
          "internalType": "uint256",
          "name": "tokenId",
          "type": "uint256"
        },
        {
          "internalType": "bytes",
          "name": "data",
          "type": "bytes"
        }
      ],
      "name": "safeTransferFrom",
      "outputs": [],
      "stateMutability": "nonpayable",
      "type": "function"
    },
    {
      "inputs": [
        {
          "internalType": "address",
          "name": "operator",
          "type": "address"
        },
        {
          "internalType": "bool",
          "name": "approved",
          "type": "bool"
        }
      ],
      "name": "setApprovalForAll",
      "outputs": [],
      "stateMutability": "nonpayable",
      "type": "function"
    },
    {
      "inputs": [
        {
          "internalType": "bytes4",
          "name": "interfaceId",
          "type": "bytes4"
        }
      ],
      "name": "supportsInterface",
      "outputs": [
        {
          "internalType": "bool",
          "name": "",
          "type": "bool"
        }
      ],
      "stateMutability": "view",
      "type": "function"
    },
    {
      "inputs": [],
      "name": "symbol",
      "outputs": [
        {
          "internalType": "string",
          "name": "",
          "type": "string"
        }
      ],
      "stateMutability": "view",
      "type": "function"
    },
    {
      "inputs": [
        {
          "internalType": "uint256",
          "name": "_tokenId",
          "type": "uint256"
        }
      ],
      "name": "tokenURI",
      "outputs": [
        {
          "internalType": "string",
          "name": "",
          "type": "string"
        }
      ],
      "stateMutability": "view",
      "type": "function"
    },
    {
      "inputs": [
        {
          "internalType": "address",
          "name": "from",
          "type": "address"
        },
        {
          "internalType": "address",
          "name": "to",
          "type": "address"
        },
        {
          "internalType": "uint256",
          "name": "tokenId",
          "type": "uint256"
        }
      ],
      "name": "transferFrom",
      "outputs": [],
      "stateMutability": "nonpayable",
      "type": "function"
    }
  ],
  "bytecode": "0x60806040523480156200001157600080fd5b5060405162005f8338038062005f83833981810160405281019062000037919062000c28565b6040518060400160405280600881526020017f4f6e6570696563650000000000000000000000000000000000000000000000008152506040518060400160405280600881526020017f4f4e4550494543450000000000000000000000000000000000000000000000008152508160009081620000b491906200102a565b508060019081620000c691906200102a565b50505060005b8851811015620003ff5760086040518060c001604052808381526020018b8481518110620000ff57620000fe62001111565b5b602002602001015181526020018a848151811062000122576200012162001111565b5b6020026020010151815260200189848151811062000145576200014462001111565b5b6020026020010151815260200189848151811062000168576200016762001111565b5b602002602001015181526020018884815181106200018b576200018a62001111565b5b60200260200101518152509080600181540180825580915050600190039060005260206000209060060201600090919091909150600082015181600001556020820151816001019081620001e091906200102a565b506040820151816002019081620001f891906200102a565b50606082015181600301556080820151816004015560a08201518160050155505060006008828154811062000232576200023162001111565b5b90600052602060002090600602016040518060c001604052908160008201548152602001600182018054620002679062000e23565b80601f0160208091040260200160405190810160405280929190818152602001828054620002959062000e23565b8015620002e65780601f10620002ba57610100808354040283529160200191620002e6565b820191906000526020600020905b815481529060010190602001808311620002c857829003601f168201915b50505050508152602001600282018054620003019062000e23565b80601f01602080910402602001604051908101604052809291908181526020018280546200032f9062000e23565b8015620003805780601f10620003545761010080835404028352916020019162000380565b820191906000526020600020905b8154815290600101906020018083116200036257829003601f168201915b5050505050815260200160038201548152602001600482015481526020016005820154815250509050620003e760405180606001604052806025815260200162005f5e602591398260200151836060015184604001516200075c60201b62001c881760201c565b50600181620003f791906200116f565b9050620000cc565b506200041760076200080860201b62001d2a1760201c565b60005b84518110156200074d5760066040518060c001604052808381526020018784815181106200044d576200044c62001111565b5b6020026020010151815260200186848151811062000470576200046f62001111565b5b6020026020010151815260200185848151811062000493576200049262001111565b5b60200260200101518152602001858481518110620004b657620004b562001111565b5b60200260200101518152602001848481518110620004d957620004d862001111565b5b602002602001015181525090806001815401808255809150506001900390600052602060002090600602016000909190919091506000820151816000015560208201518160010190816200052e91906200102a565b5060408201518160020190816200054691906200102a565b50606082015181600301556080820151816004015560a08201518160050155505060006006828154811062000580576200057f62001111565b5b90600052602060002090600602016040518060c001604052908160008201548152602001600182018054620005b59062000e23565b80601f0160208091040260200160405190810160405280929190818152602001828054620005e39062000e23565b8015620006345780601f10620006085761010080835404028352916020019162000634565b820191906000526020600020905b8154815290600101906020018083116200061657829003601f168201915b505050505081526020016002820180546200064f9062000e23565b80601f01602080910402602001604051908101604052809291908181526020018280546200067d9062000e23565b8015620006ce5780601f10620006a257610100808354040283529160200191620006ce565b820191906000526020600020905b815481529060010190602001808311620006b057829003601f168201915b50505050508152602001600382015481526020016004820154815260200160058201548152505090506200073560405180606001604052806025815260200162005f5e602591398260200151836060015184604001516200075c60201b62001c881760201c565b506001816200074591906200116f565b90506200041a565b5050505050505050506200129e565b62000802848484846040516024016200077994939291906200120d565b6040516020818303038152906040527f5d1a971a000000000000000000000000000000000000000000000000000000007bffffffffffffffffffffffffffffffffffffffffffffffffffffffff19166020820180517bffffffffffffffffffffffffffffffffffffffffffffffffffffffff83818316178352505050506200081e60201b60201c565b50505050565b6001816000016000828254019250508190555050565b62000844816200083f6200084760201b62001d40176200086860201b60201c565b60201c565b50565b60006a636f6e736f6c652e6c6f679050600080835160208501845afa505050565b6200087c60201b62002ebf17819050919050565b620008866200126f565b565b6000604051905090565b600080fd5b600080fd5b600080fd5b6000601f19601f8301169050919050565b7f4e487b7100000000000000000000000000000000000000000000000000000000600052604160045260246000fd5b620008ec82620008a1565b810181811067ffffffffffffffff821117156200090e576200090d620008b2565b5b80604052505050565b60006200092362000888565b9050620009318282620008e1565b919050565b600067ffffffffffffffff821115620009545762000953620008b2565b5b602082029050602081019050919050565b600080fd5b600080fd5b600067ffffffffffffffff8211156200098d576200098c620008b2565b5b6200099882620008a1565b9050602081019050919050565b60005b83811015620009c5578082015181840152602081019050620009a8565b60008484015250505050565b6000620009e8620009e2846200096f565b62000917565b90508281526020810184848401111562000a075762000a066200096a565b5b62000a14848285620009a5565b509392505050565b600082601f83011262000a345762000a336200089c565b5b815162000a46848260208601620009d1565b91505092915050565b600062000a6662000a608462000936565b62000917565b9050808382526020820190506020840283018581111562000a8c5762000a8b62000965565b5b835b8181101562000ada57805167ffffffffffffffff81111562000ab55762000ab46200089c565b5b80860162000ac4898262000a1c565b8552602085019450505060208101905062000a8e565b5050509392505050565b600082601f83011262000afc5762000afb6200089c565b5b815162000b0e84826020860162000a4f565b91505092915050565b600067ffffffffffffffff82111562000b355762000b34620008b2565b5b602082029050602081019050919050565b6000819050919050565b62000b5b8162000b46565b811462000b6757600080fd5b50565b60008151905062000b7b8162000b50565b92915050565b600062000b9862000b928462000b17565b62000917565b9050808382526020820190506020840283018581111562000bbe5762000bbd62000965565b5b835b8181101562000beb578062000bd6888262000b6a565b84526020840193505060208101905062000bc0565b5050509392505050565b600082601f83011262000c0d5762000c0c6200089c565b5b815162000c1f84826020860162000b81565b91505092915050565b600080600080600080600080610100898b03121562000c4c5762000c4b62000892565b5b600089015167ffffffffffffffff81111562000c6d5762000c6c62000897565b5b62000c7b8b828c0162000ae4565b985050602089015167ffffffffffffffff81111562000c9f5762000c9e62000897565b5b62000cad8b828c0162000ae4565b975050604089015167ffffffffffffffff81111562000cd15762000cd062000897565b5b62000cdf8b828c0162000bf5565b965050606089015167ffffffffffffffff81111562000d035762000d0262000897565b5b62000d118b828c0162000bf5565b955050608089015167ffffffffffffffff81111562000d355762000d3462000897565b5b62000d438b828c0162000ae4565b94505060a089015167ffffffffffffffff81111562000d675762000d6662000897565b5b62000d758b828c0162000ae4565b93505060c089015167ffffffffffffffff81111562000d995762000d9862000897565b5b62000da78b828c0162000bf5565b92505060e089015167ffffffffffffffff81111562000dcb5762000dca62000897565b5b62000dd98b828c0162000bf5565b9150509295985092959890939650565b600081519050919050565b7f4e487b7100000000000000000000000000000000000000000000000000000000600052602260045260246000fd5b6000600282049050600182168062000e3c57607f821691505b60208210810362000e525762000e5162000df4565b5b50919050565b60008190508160005260206000209050919050565b60006020601f8301049050919050565b600082821b905092915050565b60006008830262000ebc7fffffffffffffffffffffffffffffffffffffffffffffffffffffffffffffffff8262000e7d565b62000ec8868362000e7d565b95508019841693508086168417925050509392505050565b6000819050919050565b600062000f0b62000f0562000eff8462000b46565b62000ee0565b62000b46565b9050919050565b6000819050919050565b62000f278362000eea565b62000f3f62000f368262000f12565b84845462000e8a565b825550505050565b600090565b62000f5662000f47565b62000f6381848462000f1c565b505050565b5b8181101562000f8b5762000f7f60008262000f4c565b60018101905062000f69565b5050565b601f82111562000fda5762000fa48162000e58565b62000faf8462000e6d565b8101602085101562000fbf578190505b62000fd762000fce8562000e6d565b83018262000f68565b50505b505050565b600082821c905092915050565b600062000fff6000198460080262000fdf565b1980831691505092915050565b60006200101a838362000fec565b9150826002028217905092915050565b620010358262000de9565b67ffffffffffffffff811115620010515762001050620008b2565b5b6200105d825462000e23565b6200106a82828562000f8f565b600060209050601f831160018114620010a257600084156200108d578287015190505b6200109985826200100c565b86555062001109565b601f198416620010b28662000e58565b60005b82811015620010dc57848901518255600182019150602085019450602081019050620010b5565b86831015620010fc5784890151620010f8601f89168262000fec565b8355505b6001600288020188555050505b505050505050565b7f4e487b7100000000000000000000000000000000000000000000000000000000600052603260045260246000fd5b7f4e487b7100000000000000000000000000000000000000000000000000000000600052601160045260246000fd5b60006200117c8262000b46565b9150620011898362000b46565b9250828201905080821115620011a457620011a362001140565b5b92915050565b600082825260208201905092915050565b6000620011c88262000de9565b620011d48185620011aa565b9350620011e6818560208601620009a5565b620011f181620008a1565b840191505092915050565b620012078162000b46565b82525050565b60006080820190508181036000830152620012298187620011bb565b905081810360208301526200123f8186620011bb565b9050620012506040830185620011fc565b8181036060830152620012648184620011bb565b905095945050505050565b7f4e487b7100000000000000000000000000000000000000000000000000000000600052605160045260246000fd5b614cb080620012ae6000396000f3fe608060405234801561001057600080fd5b50600436106101375760003560e01c806370a08231116100b8578063b88d4fde1161007c578063b88d4fde1461038e578063b953084e146103aa578063c87b56dd146103c8578063c8cf27f4146103f8578063e985e9c514610416578063f8b81ef71461044657610137565b806370a08231146102bf5780637df124a1146102ef57806395d89b411461031f57806398da4c951461033d578063a22cb4651461037257610137565b8063095ea7b3116100ff578063095ea7b31461020657806323b872dd1461022257806342842e0e1461023e578063523f17b81461025a5780636352211e1461028f57610137565b806301eab11a1461013c57806301ffc9a71461016c5780630619f9321461019c57806306fdde03146101b8578063081812fc146101d6575b600080fd5b61015660048036038101906101519190612f7f565b610462565b60405161016391906130db565b60405180910390f35b61018660048036038101906101819190613155565b610631565b604051610193919061319d565b60405180910390f35b6101b660048036038101906101b19190612f7f565b610713565b005b6101c0610bb8565b6040516101cd9190613202565b60405180910390f35b6101f060048036038101906101eb9190612f7f565b610c4a565b6040516101fd9190613265565b60405180910390f35b610220600480360381019061021b91906132ac565b610c90565b005b61023c600480360381019061023791906132ec565b610da7565b005b610258600480360381019061025391906132ec565b610e07565b005b610274600480360381019061026f9190612f7f565b610e27565b6040516102869695949392919061334e565b60405180910390f35b6102a960048036038101906102a49190612f7f565b610f83565b6040516102b69190613265565b60405180910390f35b6102d960048036038101906102d491906133bd565b611009565b6040516102e691906133ea565b60405180910390f35b610309600480360381019061030491906133bd565b6110c0565b60405161031691906133ea565b60405180910390f35b6103276110d8565b6040516103349190613202565b60405180910390f35b61035760048036038101906103529190612f7f565b61116a565b6040516103699695949392919061334e565b60405180910390f35b61038c60048036038101906103879190613431565b6112b6565b005b6103a860048036038101906103a391906135a6565b6112cc565b005b6103b261132e565b6040516103bf919061377b565b60405180910390f35b6103e260048036038101906103dd9190612f7f565b6114d9565b6040516103ef9190613202565b60405180910390f35b6104006116f4565b60405161040d919061382d565b60405180910390f35b610430600480360381019061042b919061384f565b6118cc565b60405161043d919061319d565b60405180910390f35b610460600480360381019061045b9190612f7f565b611960565b005b61046a612ec9565b60068054905082106104b1576040517f08c379a00000000000000000000000000000000000000000000000000000000081526004016104a8906138db565b60405180910390fd5b600682815481106104c5576104c46138fb565b5b90600052602060002090600602016040518060c0016040529081600082015481526020016001820180546104f890613959565b80601f016020809104026020016040519081016040528092919081815260200182805461052490613959565b80156105715780601f1061054657610100808354040283529160200191610571565b820191906000526020600020905b81548152906001019060200180831161055457829003601f168201915b5050505050815260200160028201805461058a90613959565b80601f01602080910402602001604051908101604052809291908181526020018280546105b690613959565b80156106035780601f106105d857610100808354040283529160200191610603565b820191906000526020600020905b8154815290600101906020018083116105e657829003601f168201915b5050505050815260200160038201548152602001600482015481526020016005820154815250509050919050565b60007f80ac58cd000000000000000000000000000000000000000000000000000000007bffffffffffffffffffffffffffffffffffffffffffffffffffffffff1916827bffffffffffffffffffffffffffffffffffffffffffffffffffffffff191614806106fc57507f5b5e139f000000000000000000000000000000000000000000000000000000007bffffffffffffffffffffffffffffffffffffffffffffffffffffffff1916827bffffffffffffffffffffffffffffffffffffffffffffffffffffffff1916145b8061070c575061070b82611d61565b5b9050919050565b6000600a60003373ffffffffffffffffffffffffffffffffffffffff1673ffffffffffffffffffffffffffffffffffffffff1681526020019081526020016000205490506000600960008381526020019081526020016000209050600060068481548110610784576107836138fb565b5b90600052602060002090600602016040518060c0016040529081600082015481526020016001820180546107b790613959565b80601f01602080910402602001604051908101604052809291908181526020018280546107e390613959565b80156108305780601f1061080557610100808354040283529160200191610830565b820191906000526020600020905b81548152906001019060200180831161081357829003601f168201915b5050505050815260200160028201805461084990613959565b80601f016020809104026020016040519081016040528092919081815260200182805461087590613959565b80156108c25780601f10610897576101008083540402835291602001916108c2565b820191906000526020600020905b8154815290600101906020018083116108a557829003601f168201915b50505050508152602001600382015481526020016004820154815260200160058201548152505090506109a3604051806080016040528060458152602001614ba06045913983600101805461091690613959565b80601f016020809104026020016040519081016040528092919081815260200182805461094290613959565b801561098f5780601f106109645761010080835404028352916020019161098f565b820191906000526020600020905b81548152906001019060200180831161097257829003601f168201915b505050505084600301548560050154611dcb565b6109d3604051806060016040528060278152602001614b5460279139826020015183606001518460a00151611dcb565b6000826003015411610a1a576040517f08c379a0000000000000000000000000000000000000000000000000000000008152600401610a11906139fc565b60405180910390fd5b6000816060015111610a61576040517f08c379a0000000000000000000000000000000000000000000000000000000008152600401610a5890613a8e565b60405180910390fd5b8060600151826003015411610aab576040517f08c379a0000000000000000000000000000000000000000000000000000000008152600401610aa290613b20565b60405180910390fd5b816003015481606001511015610acb576000816060018181525050610ae9565b81600501548160600151610adf9190613b6f565b8160600181815250505b8060a0015182600301541015610b085760008260030181905550610b25565b8060a001518260030154610b1c9190613b6f565b82600301819055505b610b4b604051806060016040528060258152602001614b7b602591398260600151611e6d565b610b71604051806060016040528060288152602001614c53602891398360030154611e6d565b7f838ab28464562786a6c4ab2311964b82fa60bd9b14aa7e856af1f3f18d41a41481606001518360030154604051610baa929190613ba3565b60405180910390a150505050565b606060008054610bc790613959565b80601f0160208091040260200160405190810160405280929190818152602001828054610bf390613959565b8015610c405780601f10610c1557610100808354040283529160200191610c40565b820191906000526020600020905b815481529060010190602001808311610c2357829003601f168201915b5050505050905090565b6000610c5582611f09565b6004600083815260200190815260200160002060009054906101000a900473ffffffffffffffffffffffffffffffffffffffff169050919050565b6000610c9b82610f83565b90508073ffffffffffffffffffffffffffffffffffffffff168373ffffffffffffffffffffffffffffffffffffffff1603610d0b576040517f08c379a0000000000000000000000000000000000000000000000000000000008152600401610d0290613c3e565b60405180910390fd5b8073ffffffffffffffffffffffffffffffffffffffff16610d2a611f54565b73ffffffffffffffffffffffffffffffffffffffff161480610d595750610d5881610d53611f54565b6118cc565b5b610d98576040517f08c379a0000000000000000000000000000000000000000000000000000000008152600401610d8f90613cd0565b60405180910390fd5b610da28383611f5c565b505050565b610db8610db2611f54565b82612015565b610df7576040517f08c379a0000000000000000000000000000000000000000000000000000000008152600401610dee90613d62565b60405180910390fd5b610e028383836120aa565b505050565b610e22838383604051806020016040528060008152506112cc565b505050565b60068181548110610e3757600080fd5b9060005260206000209060060201600091509050806000015490806001018054610e6090613959565b80601f0160208091040260200160405190810160405280929190818152602001828054610e8c90613959565b8015610ed95780601f10610eae57610100808354040283529160200191610ed9565b820191906000526020600020905b815481529060010190602001808311610ebc57829003601f168201915b505050505090806002018054610eee90613959565b80601f0160208091040260200160405190810160405280929190818152602001828054610f1a90613959565b8015610f675780601f10610f3c57610100808354040283529160200191610f67565b820191906000526020600020905b815481529060010190602001808311610f4a57829003601f168201915b5050505050908060030154908060040154908060050154905086565b600080610f8f836123a3565b9050600073ffffffffffffffffffffffffffffffffffffffff168173ffffffffffffffffffffffffffffffffffffffff1603611000576040517f08c379a0000000000000000000000000000000000000000000000000000000008152600401610ff790613dce565b60405180910390fd5b80915050919050565b60008073ffffffffffffffffffffffffffffffffffffffff168273ffffffffffffffffffffffffffffffffffffffff1603611079576040517f08c379a000000000000000000000000000000000000000000000000000000000815260040161107090613e60565b60405180910390fd5b600360008373ffffffffffffffffffffffffffffffffffffffff1673ffffffffffffffffffffffffffffffffffffffff168152602001908152602001600020549050919050565b600a6020528060005260406000206000915090505481565b6060600180546110e790613959565b80601f016020809104026020016040519081016040528092919081815260200182805461111390613959565b80156111605780601f1061113557610100808354040283529160200191611160565b820191906000526020600020905b81548152906001019060200180831161114357829003601f168201915b5050505050905090565b600960205280600052604060002060009150905080600001549080600101805461119390613959565b80601f01602080910402602001604051908101604052809291908181526020018280546111bf90613959565b801561120c5780601f106111e15761010080835404028352916020019161120c565b820191906000526020600020905b8154815290600101906020018083116111ef57829003601f168201915b50505050509080600201805461122190613959565b80601f016020809104026020016040519081016040528092919081815260200182805461124d90613959565b801561129a5780601f1061126f5761010080835404028352916020019161129a565b820191906000526020600020905b81548152906001019060200180831161127d57829003601f168201915b5050505050908060030154908060040154908060050154905086565b6112c86112c1611f54565b83836123e0565b5050565b6112dd6112d7611f54565b83612015565b61131c576040517f08c379a000000000000000000000000000000000000000000000000000000000815260040161131390613d62565b60405180910390fd5b6113288484848461254c565b50505050565b60606008805480602002602001604051908101604052809291908181526020016000905b828210156114d057838290600052602060002090600602016040518060c00160405290816000820154815260200160018201805461138f90613959565b80601f01602080910402602001604051908101604052809291908181526020018280546113bb90613959565b80156114085780601f106113dd57610100808354040283529160200191611408565b820191906000526020600020905b8154815290600101906020018083116113eb57829003601f168201915b5050505050815260200160028201805461142190613959565b80601f016020809104026020016040519081016040528092919081815260200182805461144d90613959565b801561149a5780601f1061146f5761010080835404028352916020019161149a565b820191906000526020600020905b81548152906001019060200180831161147d57829003601f168201915b50505050508152602001600382015481526020016004820154815260200160058201548152505081526020019060010190611352565b50505050905090565b60606000600960008481526020019081526020016000206040518060c00160405290816000820154815260200160018201805461151590613959565b80601f016020809104026020016040519081016040528092919081815260200182805461154190613959565b801561158e5780601f106115635761010080835404028352916020019161158e565b820191906000526020600020905b81548152906001019060200180831161157157829003601f168201915b505050505081526020016002820180546115a790613959565b80601f01602080910402602001604051908101604052809291908181526020018280546115d390613959565b80156116205780601f106115f557610100808354040283529160200191611620565b820191906000526020600020905b81548152906001019060200180831161160357829003601f168201915b5050505050815260200160038201548152602001600482015481526020016005820154815250509050600061165882606001516125a8565b9050600061166983608001516125a8565b9050600061167a8460a001516125a8565b905060006116c0856020015161168f896125a8565b87604001518787876040516020016116ac9695949392919061418e565b604051602081830303815290604052612676565b90506000816040516020016116d5919061427f565b6040516020818303038152906040529050809650505050505050919050565b6116fc612eff565b6000600a60003373ffffffffffffffffffffffffffffffffffffffff1673ffffffffffffffffffffffffffffffffffffffff16815260200190815260200160002054905060008111156118bb57600960008281526020019081526020016000206040518060c00160405290816000820154815260200160018201805461178190613959565b80601f01602080910402602001604051908101604052809291908181526020018280546117ad90613959565b80156117fa5780601f106117cf576101008083540402835291602001916117fa565b820191906000526020600020905b8154815290600101906020018083116117dd57829003601f168201915b5050505050815260200160028201805461181390613959565b80601f016020809104026020016040519081016040528092919081815260200182805461183f90613959565b801561188c5780601f106118615761010080835404028352916020019161188c565b820191906000526020600020905b81548152906001019060200180831161186f57829003601f168201915b5050505050815260200160038201548152602001600482015481526020016005820154815250509150506118c9565b6118c3612eff565b80925050505b90565b6000600560008473ffffffffffffffffffffffffffffffffffffffff1673ffffffffffffffffffffffffffffffffffffffff16815260200190815260200160002060008373ffffffffffffffffffffffffffffffffffffffff1673ffffffffffffffffffffffffffffffffffffffff16815260200190815260200160002060009054906101000a900460ff16905092915050565b600061196c600761280d565b9050611978338261281b565b6040518060c001604052808381526020016008848154811061199d5761199c6138fb565b5b906000526020600020906006020160010180546119b990613959565b80601f01602080910402602001604051908101604052809291908181526020018280546119e590613959565b8015611a325780601f10611a0757610100808354040283529160200191611a32565b820191906000526020600020905b815481529060010190602001808311611a1557829003601f168201915b5050505050815260200160088481548110611a5057611a4f6138fb565b5b90600052602060002090600602016002018054611a6c90613959565b80601f0160208091040260200160405190810160405280929190818152602001828054611a9890613959565b8015611ae55780601f10611aba57610100808354040283529160200191611ae5565b820191906000526020600020905b815481529060010190602001808311611ac857829003601f168201915b5050505050815260200160088481548110611b0357611b026138fb565b5b906000526020600020906006020160030154815260200160088481548110611b2e57611b2d6138fb565b5b906000526020600020906006020160040154815260200160088481548110611b5957611b586138fb565b5b90600052602060002090600602016005015481525060096000838152602001908152602001600020600082015181600001556020820151816001019081611ba0919061444d565b506040820151816002019081611bb6919061444d565b50606082015181600301556080820151816004015560a08201518160050155905050611bfb6040518060600160405280602e8152602001614c25602e91398284612839565b80600a60003373ffffffffffffffffffffffffffffffffffffffff1673ffffffffffffffffffffffffffffffffffffffff16815260200190815260200160002081905550611c496007611d2a565b7f4bc303fd457a97b4691b9af582ce71868a3d258638c8d4f8c60988a0f0bfb8cd338284604051611c7c9392919061451f565b60405180910390a15050565b611d2484848484604051602401611ca29493929190614556565b6040516020818303038152906040527f5d1a971a000000000000000000000000000000000000000000000000000000007bffffffffffffffffffffffffffffffffffffffffffffffffffffffff19166020820180517bffffffffffffffffffffffffffffffffffffffffffffffffffffffff83818316178352505050506128d8565b50505050565b6001816000016000828254019250508190555050565b60006a636f6e736f6c652e6c6f679050600080835160208501845afa505050565b60007f01ffc9a7000000000000000000000000000000000000000000000000000000007bffffffffffffffffffffffffffffffffffffffffffffffffffffffff1916827bffffffffffffffffffffffffffffffffffffffffffffffffffffffff1916149050919050565b611e6784848484604051602401611de594939291906145b0565b6040516020818303038152906040527ff45d7d2c000000000000000000000000000000000000000000000000000000007bffffffffffffffffffffffffffffffffffffffffffffffffffffffff19166020820180517bffffffffffffffffffffffffffffffffffffffffffffffffffffffff83818316178352505050506128d8565b50505050565b611f058282604051602401611e83929190614603565b6040516020818303038152906040527fb60e72cc000000000000000000000000000000000000000000000000000000007bffffffffffffffffffffffffffffffffffffffffffffffffffffffff19166020820180517bffffffffffffffffffffffffffffffffffffffffffffffffffffffff83818316178352505050506128d8565b5050565b611f12816128f2565b611f51576040517f08c379a0000000000000000000000000000000000000000000000000000000008152600401611f4890613dce565b60405180910390fd5b50565b600033905090565b816004600083815260200190815260200160002060006101000a81548173ffffffffffffffffffffffffffffffffffffffff021916908373ffffffffffffffffffffffffffffffffffffffff160217905550808273ffffffffffffffffffffffffffffffffffffffff16611fcf83610f83565b73ffffffffffffffffffffffffffffffffffffffff167f8c5be1e5ebec7d5bd14f71427d1e84f3dd0314c0f7b2291e5b200ac8c7c3b92560405160405180910390a45050565b60008061202183610f83565b90508073ffffffffffffffffffffffffffffffffffffffff168473ffffffffffffffffffffffffffffffffffffffff161480612063575061206281856118cc565b5b806120a157508373ffffffffffffffffffffffffffffffffffffffff1661208984610c4a565b73ffffffffffffffffffffffffffffffffffffffff16145b91505092915050565b8273ffffffffffffffffffffffffffffffffffffffff166120ca82610f83565b73ffffffffffffffffffffffffffffffffffffffff1614612120576040517f08c379a0000000000000000000000000000000000000000000000000000000008152600401612117906146a5565b60405180910390fd5b600073ffffffffffffffffffffffffffffffffffffffff168273ffffffffffffffffffffffffffffffffffffffff160361218f576040517f08c379a000000000000000000000000000000000000000000000000000000000815260040161218690614737565b60405180910390fd5b61219c8383836001612933565b8273ffffffffffffffffffffffffffffffffffffffff166121bc82610f83565b73ffffffffffffffffffffffffffffffffffffffff1614612212576040517f08c379a0000000000000000000000000000000000000000000000000000000008152600401612209906146a5565b60405180910390fd5b6004600082815260200190815260200160002060006101000a81549073ffffffffffffffffffffffffffffffffffffffff02191690556001600360008573ffffffffffffffffffffffffffffffffffffffff1673ffffffffffffffffffffffffffffffffffffffff168152602001908152602001600020600082825403925050819055506001600360008473ffffffffffffffffffffffffffffffffffffffff1673ffffffffffffffffffffffffffffffffffffffff16815260200190815260200160002060008282540192505081905550816002600083815260200190815260200160002060006101000a81548173ffffffffffffffffffffffffffffffffffffffff021916908373ffffffffffffffffffffffffffffffffffffffff160217905550808273ffffffffffffffffffffffffffffffffffffffff168473ffffffffffffffffffffffffffffffffffffffff167fddf252ad1be2c89b69c2b068fc378daa952ba7f163c4a11628f55a4df523b3ef60405160405180910390a461239e8383836001612939565b505050565b60006002600083815260200190815260200160002060009054906101000a900473ffffffffffffffffffffffffffffffffffffffff169050919050565b8173ffffffffffffffffffffffffffffffffffffffff168373ffffffffffffffffffffffffffffffffffffffff160361244e576040517f08c379a0000000000000000000000000000000000000000000000000000000008152600401612445906147a3565b60405180910390fd5b80600560008573ffffffffffffffffffffffffffffffffffffffff1673ffffffffffffffffffffffffffffffffffffffff16815260200190815260200160002060008473ffffffffffffffffffffffffffffffffffffffff1673ffffffffffffffffffffffffffffffffffffffff16815260200190815260200160002060006101000a81548160ff0219169083151502179055508173ffffffffffffffffffffffffffffffffffffffff168373ffffffffffffffffffffffffffffffffffffffff167f17307eab39ab6107e8899845ad3d59bd9653f200f220920489ca2b5937696c318360405161253f919061319d565b60405180910390a3505050565b6125578484846120aa565b6125638484848461293f565b6125a2576040517f08c379a000000000000000000000000000000000000000000000000000000000815260040161259990614835565b60405180910390fd5b50505050565b6060600060016125b784612ac6565b01905060008167ffffffffffffffff8111156125d6576125d561347b565b5b6040519080825280601f01601f1916602001820160405280156126085781602001600182028036833780820191505090505b509050600082602001820190505b60011561266b578080600190039150507f3031323334353637383961626364656600000000000000000000000000000000600a86061a8153600a858161265f5761265e614855565b5b04945060008503612616575b819350505050919050565b60606000825190506000810361269e5760405180602001604052806000815250915050612808565b600060036002836126af9190614884565b6126b991906148b8565b60046126c591906148e9565b905060006020826126d69190614884565b67ffffffffffffffff8111156126ef576126ee61347b565b5b6040519080825280601f01601f1916602001820160405280156127215781602001600182028036833780820191505090505b5090506000604051806060016040528060408152602001614be5604091399050600181016020830160005b868110156127c55760038101905062ffffff818a015116603f8160121c168401518060081b905060ff603f83600c1c1686015116810190508060081b905060ff603f8360061c1686015116810190508060081b905060ff603f831686015116810190508060e01b9050808452600484019350505061274c565b5060038606600181146127df57600281146127ef576127fa565b613d3d60f01b60028303526127fa565b603d60f81b60018303525b508484525050819450505050505b919050565b600081600001549050919050565b612835828260405180602001604052806000815250612c19565b5050565b6128d38383836040516024016128519392919061492b565b6040516020818303038152906040527fca47c4eb000000000000000000000000000000000000000000000000000000007bffffffffffffffffffffffffffffffffffffffffffffffffffffffff19166020820180517bffffffffffffffffffffffffffffffffffffffffffffffffffffffff83818316178352505050506128d8565b505050565b6128ef816128e7611d40612c74565b63ffffffff16565b50565b60008073ffffffffffffffffffffffffffffffffffffffff16612914836123a3565b73ffffffffffffffffffffffffffffffffffffffff1614159050919050565b50505050565b50505050565b60006129608473ffffffffffffffffffffffffffffffffffffffff16612c7f565b15612ab9578373ffffffffffffffffffffffffffffffffffffffff1663150b7a02612989611f54565b8786866040518563ffffffff1660e01b81526004016129ab94939291906149be565b6020604051808303816000875af19250505080156129e757506040513d601f19601f820116820180604052508101906129e49190614a1f565b60015b612a69573d8060008114612a17576040519150601f19603f3d011682016040523d82523d6000602084013e612a1c565b606091505b506000815103612a61576040517f08c379a0000000000000000000000000000000000000000000000000000000008152600401612a5890614835565b60405180910390fd5b805181602001fd5b63150b7a0260e01b7bffffffffffffffffffffffffffffffffffffffffffffffffffffffff1916817bffffffffffffffffffffffffffffffffffffffffffffffffffffffff191614915050612abe565b600190505b949350505050565b600080600090507a184f03e93ff9f4daa797ed6e38ed64bf6a1f0100000000000000008310612b24577a184f03e93ff9f4daa797ed6e38ed64bf6a1f0100000000000000008381612b1a57612b19614855565b5b0492506040810190505b6d04ee2d6d415b85acef81000000008310612b61576d04ee2d6d415b85acef81000000008381612b5757612b56614855565b5b0492506020810190505b662386f26fc100008310612b9057662386f26fc100008381612b8657612b85614855565b5b0492506010810190505b6305f5e1008310612bb9576305f5e1008381612baf57612bae614855565b5b0492506008810190505b6127108310612bde576127108381612bd457612bd3614855565b5b0492506004810190505b60648310612c015760648381612bf757612bf6614855565b5b0492506002810190505b600a8310612c10576001810190505b80915050919050565b612c238383612ca2565b612c30600084848461293f565b612c6f576040517f08c379a0000000000000000000000000000000000000000000000000000000008152600401612c6690614835565b60405180910390fd5b505050565b612ebf819050919050565b6000808273ffffffffffffffffffffffffffffffffffffffff163b119050919050565b600073ffffffffffffffffffffffffffffffffffffffff168273ffffffffffffffffffffffffffffffffffffffff1603612d11576040517f08c379a0000000000000000000000000000000000000000000000000000000008152600401612d0890614a98565b60405180910390fd5b612d1a816128f2565b15612d5a576040517f08c379a0000000000000000000000000000000000000000000000000000000008152600401612d5190614b04565b60405180910390fd5b612d68600083836001612933565b612d71816128f2565b15612db1576040517f08c379a0000000000000000000000000000000000000000000000000000000008152600401612da890614b04565b60405180910390fd5b6001600360008473ffffffffffffffffffffffffffffffffffffffff1673ffffffffffffffffffffffffffffffffffffffff16815260200190815260200160002060008282540192505081905550816002600083815260200190815260200160002060006101000a81548173ffffffffffffffffffffffffffffffffffffffff021916908373ffffffffffffffffffffffffffffffffffffffff160217905550808273ffffffffffffffffffffffffffffffffffffffff16600073ffffffffffffffffffffffffffffffffffffffff167fddf252ad1be2c89b69c2b068fc378daa952ba7f163c4a11628f55a4df523b3ef60405160405180910390a4612ebb600083836001612939565b5050565b612ec7614b24565b565b6040518060c001604052806000815260200160608152602001606081526020016000815260200160008152602001600081525090565b6040518060c001604052806000815260200160608152602001606081526020016000815260200160008152602001600081525090565b6000604051905090565b600080fd5b600080fd5b6000819050919050565b612f5c81612f49565b8114612f6757600080fd5b50565b600081359050612f7981612f53565b92915050565b600060208284031215612f9557612f94612f3f565b5b6000612fa384828501612f6a565b91505092915050565b612fb581612f49565b82525050565b600081519050919050565b600082825260208201905092915050565b60005b83811015612ff5578082015181840152602081019050612fda565b60008484015250505050565b6000601f19601f8301169050919050565b600061301d82612fbb565b6130278185612fc6565b9350613037818560208601612fd7565b61304081613001565b840191505092915050565b600060c0830160008301516130636000860182612fac565b506020830151848203602086015261307b8282613012565b915050604083015184820360408601526130958282613012565b91505060608301516130aa6060860182612fac565b5060808301516130bd6080860182612fac565b5060a08301516130d060a0860182612fac565b508091505092915050565b600060208201905081810360008301526130f5818461304b565b905092915050565b60007fffffffff0000000000000000000000000000000000000000000000000000000082169050919050565b613132816130fd565b811461313d57600080fd5b50565b60008135905061314f81613129565b92915050565b60006020828403121561316b5761316a612f3f565b5b600061317984828501613140565b91505092915050565b60008115159050919050565b61319781613182565b82525050565b60006020820190506131b2600083018461318e565b92915050565b600082825260208201905092915050565b60006131d482612fbb565b6131de81856131b8565b93506131ee818560208601612fd7565b6131f781613001565b840191505092915050565b6000602082019050818103600083015261321c81846131c9565b905092915050565b600073ffffffffffffffffffffffffffffffffffffffff82169050919050565b600061324f82613224565b9050919050565b61325f81613244565b82525050565b600060208201905061327a6000830184613256565b92915050565b61328981613244565b811461329457600080fd5b50565b6000813590506132a681613280565b92915050565b600080604083850312156132c3576132c2612f3f565b5b60006132d185828601613297565b92505060206132e285828601612f6a565b9150509250929050565b60008060006060848603121561330557613304612f3f565b5b600061331386828701613297565b935050602061332486828701613297565b925050604061333586828701612f6a565b9150509250925092565b61334881612f49565b82525050565b600060c082019050613363600083018961333f565b818103602083015261337581886131c9565b9050818103604083015261338981876131c9565b9050613398606083018661333f565b6133a5608083018561333f565b6133b260a083018461333f565b979650505050505050565b6000602082840312156133d3576133d2612f3f565b5b60006133e184828501613297565b91505092915050565b60006020820190506133ff600083018461333f565b92915050565b61340e81613182565b811461341957600080fd5b50565b60008135905061342b81613405565b92915050565b6000806040838503121561344857613447612f3f565b5b600061345685828601613297565b92505060206134678582860161341c565b9150509250929050565b600080fd5b600080fd5b7f4e487b7100000000000000000000000000000000000000000000000000000000600052604160045260246000fd5b6134b382613001565b810181811067ffffffffffffffff821117156134d2576134d161347b565b5b80604052505050565b60006134e5612f35565b90506134f182826134aa565b919050565b600067ffffffffffffffff8211156135115761351061347b565b5b61351a82613001565b9050602081019050919050565b82818337600083830152505050565b6000613549613544846134f6565b6134db565b90508281526020810184848401111561356557613564613476565b5b613570848285613527565b509392505050565b600082601f83011261358d5761358c613471565b5b813561359d848260208601613536565b91505092915050565b600080600080608085870312156135c0576135bf612f3f565b5b60006135ce87828801613297565b94505060206135df87828801613297565b93505060406135f087828801612f6a565b925050606085013567ffffffffffffffff81111561361157613610612f44565b5b61361d87828801613578565b91505092959194509250565b600081519050919050565b600082825260208201905092915050565b6000819050602082019050919050565b600060c08301600083015161366d6000860182612fac565b50602083015184820360208601526136858282613012565b9150506040830151848203604086015261369f8282613012565b91505060608301516136b46060860182612fac565b5060808301516136c76080860182612fac565b5060a08301516136da60a0860182612fac565b508091505092915050565b60006136f18383613655565b905092915050565b6000602082019050919050565b600061371182613629565b61371b8185613634565b93508360208202850161372d85613645565b8060005b85811015613769578484038952815161374a85826136e5565b9450613755836136f9565b925060208a01995050600181019050613731565b50829750879550505050505092915050565b600060208201905081810360008301526137958184613706565b905092915050565b600060c0830160008301516137b56000860182612fac565b50602083015184820360208601526137cd8282613012565b915050604083015184820360408601526137e78282613012565b91505060608301516137fc6060860182612fac565b50608083015161380f6080860182612fac565b5060a083015161382260a0860182612fac565b508091505092915050565b60006020820190508181036000830152613847818461379d565b905092915050565b6000806040838503121561386657613865612f3f565b5b600061387485828601613297565b925050602061388585828601613297565b9150509250929050565b7f4572726f723a20496e76616c696420696e646578000000000000000000000000600082015250565b60006138c56014836131b8565b91506138d08261388f565b602082019050919050565b600060208201905081810360008301526138f4816138b8565b9050919050565b7f4e487b7100000000000000000000000000000000000000000000000000000000600052603260045260246000fd5b7f4e487b7100000000000000000000000000000000000000000000000000000000600052602260045260246000fd5b6000600282049050600182168061397157607f821691505b6020821081036139845761398361392a565b5b50919050565b7f4572726f723a20436861726163746572206d757374206861766520485020746f60008201527f2061747461636b20626f73732e00000000000000000000000000000000000000602082015250565b60006139e6602d836131b8565b91506139f18261398a565b604082019050919050565b60006020820190508181036000830152613a15816139d9565b9050919050565b7f4572726f723a20626f7373206d757374206861766520485020746f206174746160008201527f636b20636861726163746572732e000000000000000000000000000000000000602082015250565b6000613a78602e836131b8565b9150613a8382613a1c565b604082019050919050565b60006020820190508181036000830152613aa781613a6b565b9050919050565b7f4572726f723a20596f75206d7573742068617665206d6f6e657920746f20627560008201527f79206265766572616765732e0000000000000000000000000000000000000000602082015250565b6000613b0a602c836131b8565b9150613b1582613aae565b604082019050919050565b60006020820190508181036000830152613b3981613afd565b9050919050565b7f4e487b7100000000000000000000000000000000000000000000000000000000600052601160045260246000fd5b6000613b7a82612f49565b9150613b8583612f49565b9250828203905081811115613b9d57613b9c613b40565b5b92915050565b6000604082019050613bb8600083018561333f565b613bc5602083018461333f565b9392505050565b7f4552433732313a20617070726f76616c20746f2063757272656e74206f776e6560008201527f7200000000000000000000000000000000000000000000000000000000000000602082015250565b6000613c286021836131b8565b9150613c3382613bcc565b604082019050919050565b60006020820190508181036000830152613c5781613c1b565b9050919050565b7f4552433732313a20617070726f76652063616c6c6572206973206e6f7420746f60008201527f6b656e206f776e6572206f7220617070726f76656420666f7220616c6c000000602082015250565b6000613cba603d836131b8565b9150613cc582613c5e565b604082019050919050565b60006020820190508181036000830152613ce981613cad565b9050919050565b7f4552433732313a2063616c6c6572206973206e6f7420746f6b656e206f776e6560008201527f72206f7220617070726f76656400000000000000000000000000000000000000602082015250565b6000613d4c602d836131b8565b9150613d5782613cf0565b604082019050919050565b60006020820190508181036000830152613d7b81613d3f565b9050919050565b7f4552433732313a20696e76616c696420746f6b656e2049440000000000000000600082015250565b6000613db86018836131b8565b9150613dc382613d82565b602082019050919050565b60006020820190508181036000830152613de781613dab565b9050919050565b7f4552433732313a2061646472657373207a65726f206973206e6f74206120766160008201527f6c6964206f776e65720000000000000000000000000000000000000000000000602082015250565b6000613e4a6029836131b8565b9150613e5582613dee565b604082019050919050565b60006020820190508181036000830152613e7981613e3d565b9050919050565b600081905092915050565b7f7b226e616d65223a202200000000000000000000000000000000000000000000600082015250565b6000613ec1600a83613e80565b9150613ecc82613e8b565b600a82019050919050565b6000613ee282612fbb565b613eec8185613e80565b9350613efc818560208601612fd7565b80840191505092915050565b7f202d2d204e465420233a20000000000000000000000000000000000000000000600082015250565b6000613f3e600b83613e80565b9150613f4982613f08565b600b82019050919050565b7f222c20226465736372697074696f6e223a20225468697320697320616e204e4660008201527f542074686174206c6574732070656f706c6520706c617920696e20746865206760208201527f616d65204d657461766572736520536c6179657221222c2022696d616765223a60408201527f2022000000000000000000000000000000000000000000000000000000000000606082015250565b6000613ffc606283613e80565b915061400782613f54565b606282019050919050565b7f222c202261747472696275746573223a205b207b202274726169745f7479706560008201527f223a20224865616c746820506f696e7473222c202276616c7565223a20000000602082015250565b600061406e603d83613e80565b915061407982614012565b603d82019050919050565b7f2c20226d61785f76616c7565223a000000000000000000000000000000000000600082015250565b60006140ba600e83613e80565b91506140c582614084565b600e82019050919050565b7f7d2c207b202274726169745f74797065223a202241747461636b2044616d616760008201527f65222c202276616c7565223a2000000000000000000000000000000000000000602082015250565b600061412c602d83613e80565b9150614137826140d0565b602d82019050919050565b7f7d205d7d00000000000000000000000000000000000000000000000000000000600082015250565b6000614178600483613e80565b915061418382614142565b600482019050919050565b600061419982613eb4565b91506141a58289613ed7565b91506141b082613f31565b91506141bc8288613ed7565b91506141c782613fef565b91506141d38287613ed7565b91506141de82614061565b91506141ea8286613ed7565b91506141f5826140ad565b91506142018285613ed7565b915061420c8261411f565b91506142188284613ed7565b91506142238261416b565b9150819050979650505050505050565b7f646174613a6170706c69636174696f6e2f6a736f6e3b6261736536342c000000600082015250565b6000614269601d83613e80565b915061427482614233565b601d82019050919050565b600061428a8261425c565b91506142968284613ed7565b915081905092915050565b60008190508160005260206000209050919050565b60006020601f8301049050919050565b600082821b905092915050565b6000600883026143037fffffffffffffffffffffffffffffffffffffffffffffffffffffffffffffffff826142c6565b61430d86836142c6565b95508019841693508086168417925050509392505050565b6000819050919050565b600061434a61434561434084612f49565b614325565b612f49565b9050919050565b6000819050919050565b6143648361432f565b61437861437082614351565b8484546142d3565b825550505050565b600090565b61438d614380565b61439881848461435b565b505050565b5b818110156143bc576143b1600082614385565b60018101905061439e565b5050565b601f821115614401576143d2816142a1565b6143db846142b6565b810160208510156143ea578190505b6143fe6143f6856142b6565b83018261439d565b50505b505050565b600082821c905092915050565b600061442460001984600802614406565b1980831691505092915050565b600061443d8383614413565b9150826002028217905092915050565b61445682612fbb565b67ffffffffffffffff81111561446f5761446e61347b565b5b6144798254613959565b6144848282856143c0565b600060209050601f8311600181146144b757600084156144a5578287015190505b6144af8582614431565b865550614517565b601f1984166144c5866142a1565b60005b828110156144ed578489015182556001820191506020850194506020810190506144c8565b8683101561450a5784890151614506601f891682614413565b8355505b6001600288020188555050505b505050505050565b60006060820190506145346000830186613256565b614541602083018561333f565b61454e604083018461333f565b949350505050565b6000608082019050818103600083015261457081876131c9565b9050818103602083015261458481866131c9565b9050614593604083018561333f565b81810360608301526145a581846131c9565b905095945050505050565b600060808201905081810360008301526145ca81876131c9565b905081810360208301526145de81866131c9565b90506145ed604083018561333f565b6145fa606083018461333f565b95945050505050565b6000604082019050818103600083015261461d81856131c9565b905061462c602083018461333f565b9392505050565b7f4552433732313a207472616e736665722066726f6d20696e636f72726563742060008201527f6f776e6572000000000000000000000000000000000000000000000000000000602082015250565b600061468f6025836131b8565b915061469a82614633565b604082019050919050565b600060208201905081810360008301526146be81614682565b9050919050565b7f4552433732313a207472616e7366657220746f20746865207a65726f2061646460008201527f7265737300000000000000000000000000000000000000000000000000000000602082015250565b60006147216024836131b8565b915061472c826146c5565b604082019050919050565b6000602082019050818103600083015261475081614714565b9050919050565b7f4552433732313a20617070726f766520746f2063616c6c657200000000000000600082015250565b600061478d6019836131b8565b915061479882614757565b602082019050919050565b600060208201905081810360008301526147bc81614780565b9050919050565b7f4552433732313a207472616e7366657220746f206e6f6e20455243373231526560008201527f63656976657220696d706c656d656e7465720000000000000000000000000000602082015250565b600061481f6032836131b8565b915061482a826147c3565b604082019050919050565b6000602082019050818103600083015261484e81614812565b9050919050565b7f4e487b7100000000000000000000000000000000000000000000000000000000600052601260045260246000fd5b600061488f82612f49565b915061489a83612f49565b92508282019050808211156148b2576148b1613b40565b5b92915050565b60006148c382612f49565b91506148ce83612f49565b9250826148de576148dd614855565b5b828204905092915050565b60006148f482612f49565b91506148ff83612f49565b925082820261490d81612f49565b9150828204841483151761492457614923613b40565b5b5092915050565b6000606082019050818103600083015261494581866131c9565b9050614954602083018561333f565b614961604083018461333f565b949350505050565b600081519050919050565b600082825260208201905092915050565b600061499082614969565b61499a8185614974565b93506149aa818560208601612fd7565b6149b381613001565b840191505092915050565b60006080820190506149d36000830187613256565b6149e06020830186613256565b6149ed604083018561333f565b81810360608301526149ff8184614985565b905095945050505050565b600081519050614a1981613129565b92915050565b600060208284031215614a3557614a34612f3f565b5b6000614a4384828501614a0a565b91505092915050565b7f4552433732313a206d696e7420746f20746865207a65726f2061646472657373600082015250565b6000614a826020836131b8565b9150614a8d82614a4c565b602082019050919050565b60006020820190508181036000830152614ab181614a75565b9050919050565b7f4552433732313a20746f6b656e20616c7265616479206d696e74656400000000600082015250565b6000614aee601c836131b8565b9150614af982614ab8565b602082019050919050565b60006020820190508181036000830152614b1d81614ae1565b9050919050565b7f4e487b7100000000000000000000000000000000000000000000000000000000600052605160045260246000fdfe426f73732025732068617320257320485020616e64202573204d6f6e6579207265717569726573506c617965722061747461636b656420626f73732e204e657720626f73732068703a2024730a506c6179657220772f206368617261637465722025732061626f757420746f206275792062657665726167652e20486173202573204d6f6e657920616e642025732041444142434445464748494a4b4c4d4e4f505152535455565758595a6162636465666768696a6b6c6d6e6f707172737475767778797a303132333435363738392b2f4d696e746564204e465420772f20746f6b656e496420257320616e6420636861726163746572496e646578202573426f73732061747461636b656420706c617965722e204e657720506c617965722068703a2025730aa26469706673582212205087a0ae6be50aba6bcd3cc22d74de5f41fa38c04f653b4da24a960ef076839c64736f6c63430008120033446f6e6520696e697469616c697a696e6720257320772f2048502025732c20696d67202573",
  "linkReferences": {},
  "deployedLinkReferences": {}
}