{
  "_format": "hh-sol-artifact-1",
  "contractName": "MyEpicGame",
  "sourceName": "contracts/MyEpicGame.sol",
  "abi": [
    {
      "inputs": [
        {
          "internalType": "string[]",
          "name": "characterNames",
          "type": "string[]"
        },
        {
          "internalType": "string[]",
          "name": "characterImageURIs",
          "type": "string[]"
        },
        {
          "internalType": "uint256[]",
          "name": "characterHp",
          "type": "uint256[]"
        },
        {
          "internalType": "uint256[]",
          "name": "characterAttackDmg",
          "type": "uint256[]"
        },
        {
          "internalType": "string[]",
          "name": "beverageNames",
          "type": "string[]"
        },
        {
          "internalType": "string[]",
          "name": "beverageImageURI",
          "type": "string[]"
        },
        {
          "internalType": "uint256[]",
          "name": "beveragePrice",
          "type": "uint256[]"
        },
        {
          "internalType": "uint256[]",
          "name": "beverageCost",
          "type": "uint256[]"
        }
      ],
      "stateMutability": "nonpayable",
      "type": "constructor"
    },
    {
      "anonymous": false,
      "inputs": [
        {
          "indexed": true,
          "internalType": "address",
          "name": "owner",
          "type": "address"
        },
        {
          "indexed": true,
          "internalType": "address",
          "name": "approved",
          "type": "address"
        },
        {
          "indexed": true,
          "internalType": "uint256",
          "name": "tokenId",
          "type": "uint256"
        }
      ],
      "name": "Approval",
      "type": "event"
    },
    {
      "anonymous": false,
      "inputs": [
        {
          "indexed": true,
          "internalType": "address",
          "name": "owner",
          "type": "address"
        },
        {
          "indexed": true,
          "internalType": "address",
          "name": "operator",
          "type": "address"
        },
        {
          "indexed": false,
          "internalType": "bool",
          "name": "approved",
          "type": "bool"
        }
      ],
      "name": "ApprovalForAll",
      "type": "event"
    },
    {
      "anonymous": false,
      "inputs": [
        {
          "indexed": false,
          "internalType": "uint256",
          "name": "newBossHp",
          "type": "uint256"
        },
        {
          "indexed": false,
          "internalType": "uint256",
          "name": "newPlayerHp",
          "type": "uint256"
        }
      ],
      "name": "AttackComplete",
      "type": "event"
    },
    {
      "anonymous": false,
      "inputs": [
        {
          "indexed": false,
          "internalType": "address",
          "name": "sender",
          "type": "address"
        },
        {
          "indexed": false,
          "internalType": "uint256",
          "name": "tokenId",
          "type": "uint256"
        },
        {
          "indexed": false,
          "internalType": "uint256",
          "name": "characterIndex",
          "type": "uint256"
        }
      ],
      "name": "CharacterNFTMinted",
      "type": "event"
    },
    {
      "anonymous": false,
      "inputs": [
        {
          "indexed": true,
          "internalType": "address",
          "name": "from",
          "type": "address"
        },
        {
          "indexed": true,
          "internalType": "address",
          "name": "to",
          "type": "address"
        },
        {
          "indexed": true,
          "internalType": "uint256",
          "name": "tokenId",
          "type": "uint256"
        }
      ],
      "name": "Transfer",
      "type": "event"
    },
    {
      "inputs": [
        {
          "internalType": "address",
          "name": "to",
          "type": "address"
        },
        {
          "internalType": "uint256",
          "name": "tokenId",
          "type": "uint256"
        }
      ],
      "name": "approve",
      "outputs": [],
      "stateMutability": "nonpayable",
      "type": "function"
    },
    {
      "inputs": [],
      "name": "attackBoss",
      "outputs": [],
      "stateMutability": "nonpayable",
      "type": "function"
    },
    {
      "inputs": [
        {
          "internalType": "address",
          "name": "owner",
          "type": "address"
        }
      ],
      "name": "balanceOf",
      "outputs": [
        {
          "internalType": "uint256",
          "name": "",
          "type": "uint256"
        }
      ],
      "stateMutability": "view",
      "type": "function"
    },
    {
      "inputs": [
        {
          "internalType": "uint256",
          "name": "",
          "type": "uint256"
        }
      ],
      "name": "beverages",
      "outputs": [
        {
          "internalType": "uint256",
          "name": "beverageIndex",
          "type": "uint256"
        },
        {
          "internalType": "string",
          "name": "name",
          "type": "string"
        },
        {
          "internalType": "string",
          "name": "imageURI",
          "type": "string"
        },
        {
          "internalType": "uint256",
          "name": "hp",
          "type": "uint256"
        },
        {
          "internalType": "uint256",
          "name": "maxHp",
          "type": "uint256"
        },
        {
          "internalType": "uint256",
          "name": "attackDamage",
          "type": "uint256"
        }
      ],
      "stateMutability": "view",
      "type": "function"
    },
    {
      "inputs": [],
      "name": "checkIfUserHasNFT",
      "outputs": [
        {
          "components": [
            {
              "internalType": "uint256",
              "name": "characterIndex",
              "type": "uint256"
            },
            {
              "internalType": "string",
              "name": "name",
              "type": "string"
            },
            {
              "internalType": "string",
              "name": "imageURI",
              "type": "string"
            },
            {
              "internalType": "uint256",
              "name": "hp",
              "type": "uint256"
            },
            {
              "internalType": "uint256",
              "name": "maxHp",
              "type": "uint256"
            },
            {
              "internalType": "uint256",
              "name": "attackDamage",
              "type": "uint256"
            }
          ],
          "internalType": "struct MyEpicGame.CharacterAttributes",
          "name": "",
          "type": "tuple"
        }
      ],
      "stateMutability": "view",
      "type": "function"
    },
    {
      "inputs": [],
      "name": "getAllDefaultCharacters",
      "outputs": [
        {
          "components": [
            {
              "internalType": "uint256",
              "name": "characterIndex",
              "type": "uint256"
            },
            {
              "internalType": "string",
              "name": "name",
              "type": "string"
            },
            {
              "internalType": "string",
              "name": "imageURI",
              "type": "string"
            },
            {
              "internalType": "uint256",
              "name": "hp",
              "type": "uint256"
            },
            {
              "internalType": "uint256",
              "name": "maxHp",
              "type": "uint256"
            },
            {
              "internalType": "uint256",
              "name": "attackDamage",
              "type": "uint256"
            }
          ],
          "internalType": "struct MyEpicGame.CharacterAttributes[]",
          "name": "",
          "type": "tuple[]"
        }
      ],
      "stateMutability": "view",
      "type": "function"
    },
    {
      "inputs": [
        {
          "internalType": "uint256",
          "name": "tokenId",
          "type": "uint256"
        }
      ],
      "name": "getApproved",
      "outputs": [
        {
          "internalType": "address",
          "name": "",
          "type": "address"
        }
      ],
      "stateMutability": "view",
      "type": "function"
    },
    {
      "inputs": [],
      "name": "getBeverage",
      "outputs": [
        {
          "components": [
            {
              "internalType": "uint256",
              "name": "beverageIndex",
              "type": "uint256"
            },
            {
              "internalType": "string",
              "name": "name",
              "type": "string"
            },
            {
              "internalType": "string",
              "name": "imageURI",
              "type": "string"
            },
            {
              "internalType": "uint256",
              "name": "hp",
              "type": "uint256"
            },
            {
              "internalType": "uint256",
              "name": "maxHp",
              "type": "uint256"
            },
            {
              "internalType": "uint256",
              "name": "attackDamage",
              "type": "uint256"
            }
          ],
          "internalType": "struct MyEpicGame.Beverage[]",
          "name": "",
          "type": "tuple[]"
        }
      ],
      "stateMutability": "view",
      "type": "function"
    },
    {
      "inputs": [
        {
          "internalType": "address",
          "name": "owner",
          "type": "address"
        },
        {
          "internalType": "address",
          "name": "operator",
          "type": "address"
        }
      ],
      "name": "isApprovedForAll",
      "outputs": [
        {
          "internalType": "bool",
          "name": "",
          "type": "bool"
        }
      ],
      "stateMutability": "view",
      "type": "function"
    },
    {
      "inputs": [
        {
          "internalType": "uint256",
          "name": "_characterIndex",
          "type": "uint256"
        }
      ],
      "name": "mintCharacterNFT",
      "outputs": [],
      "stateMutability": "nonpayable",
      "type": "function"
    },
    {
      "inputs": [],
      "name": "name",
      "outputs": [
        {
          "internalType": "string",
          "name": "",
          "type": "string"
        }
      ],
      "stateMutability": "view",
      "type": "function"
    },
    {
      "inputs": [
        {
          "internalType": "uint256",
          "name": "",
          "type": "uint256"
        }
      ],
      "name": "nftHolderAttributes",
      "outputs": [
        {
          "internalType": "uint256",
          "name": "characterIndex",
          "type": "uint256"
        },
        {
          "internalType": "string",
          "name": "name",
          "type": "string"
        },
        {
          "internalType": "string",
          "name": "imageURI",
          "type": "string"
        },
        {
          "internalType": "uint256",
          "name": "hp",
          "type": "uint256"
        },
        {
          "internalType": "uint256",
          "name": "maxHp",
          "type": "uint256"
        },
        {
          "internalType": "uint256",
          "name": "attackDamage",
          "type": "uint256"
        }
      ],
      "stateMutability": "view",
      "type": "function"
    },
    {
      "inputs": [
        {
          "internalType": "address",
          "name": "",
          "type": "address"
        }
      ],
      "name": "nftHolders",
      "outputs": [
        {
          "internalType": "uint256",
          "name": "",
          "type": "uint256"
        }
      ],
      "stateMutability": "view",
      "type": "function"
    },
    {
      "inputs": [
        {
          "internalType": "uint256",
          "name": "tokenId",
          "type": "uint256"
        }
      ],
      "name": "ownerOf",
      "outputs": [
        {
          "internalType": "address",
          "name": "",
          "type": "address"
        }
      ],
      "stateMutability": "view",
      "type": "function"
    },
    {
      "inputs": [
        {
          "internalType": "address",
          "name": "from",
          "type": "address"
        },
        {
          "internalType": "address",
          "name": "to",
          "type": "address"
        },
        {
          "internalType": "uint256",
          "name": "tokenId",
          "type": "uint256"
        }
      ],
      "name": "safeTransferFrom",
      "outputs": [],
      "stateMutability": "nonpayable",
      "type": "function"
    },
    {
      "inputs": [
        {
          "internalType": "address",
          "name": "from",
          "type": "address"
        },
        {
          "internalType": "address",
          "name": "to",
          "type": "address"
        },
        {
          "internalType": "uint256",
          "name": "tokenId",
          "type": "uint256"
        },
        {
          "internalType": "bytes",
          "name": "data",
          "type": "bytes"
        }
      ],
      "name": "safeTransferFrom",
      "outputs": [],
      "stateMutability": "nonpayable",
      "type": "function"
    },
    {
      "inputs": [
        {
          "internalType": "address",
          "name": "operator",
          "type": "address"
        },
        {
          "internalType": "bool",
          "name": "approved",
          "type": "bool"
        }
      ],
      "name": "setApprovalForAll",
      "outputs": [],
      "stateMutability": "nonpayable",
      "type": "function"
    },
    {
      "inputs": [
        {
          "internalType": "bytes4",
          "name": "interfaceId",
          "type": "bytes4"
        }
      ],
      "name": "supportsInterface",
      "outputs": [
        {
          "internalType": "bool",
          "name": "",
          "type": "bool"
        }
      ],
      "stateMutability": "view",
      "type": "function"
    },
    {
      "inputs": [],
      "name": "symbol",
      "outputs": [
        {
          "internalType": "string",
          "name": "",
          "type": "string"
        }
      ],
      "stateMutability": "view",
      "type": "function"
    },
    {
      "inputs": [
        {
          "internalType": "uint256",
          "name": "_tokenId",
          "type": "uint256"
        }
      ],
      "name": "tokenURI",
      "outputs": [
        {
          "internalType": "string",
          "name": "",
          "type": "string"
        }
      ],
      "stateMutability": "view",
      "type": "function"
    },
    {
      "inputs": [
        {
          "internalType": "address",
          "name": "from",
          "type": "address"
        },
        {
          "internalType": "address",
          "name": "to",
          "type": "address"
        },
        {
          "internalType": "uint256",
          "name": "tokenId",
          "type": "uint256"
        }
      ],
      "name": "transferFrom",
      "outputs": [],
      "stateMutability": "nonpayable",
      "type": "function"
    }
  ],
  "bytecode": "0x60806040523480156200001157600080fd5b5060405162005d9738038062005d97833981810160405281019062000037919062000bdf565b6040518060400160405280600881526020017f4f6e6570696563650000000000000000000000000000000000000000000000008152506040518060400160405280600881526020017f4f4e4550494543450000000000000000000000000000000000000000000000008152508160009081620000b4919062000fe1565b508060019081620000c6919062000fe1565b50505060005b8851811015620003ff5760086040518060c001604052808381526020018b8481518110620000ff57620000fe620010c8565b5b602002602001015181526020018a8481518110620001225762000121620010c8565b5b60200260200101518152602001898481518110620001455762000144620010c8565b5b60200260200101518152602001898481518110620001685762000167620010c8565b5b602002602001015181526020018884815181106200018b576200018a620010c8565b5b60200260200101518152509080600181540180825580915050600190039060005260206000209060060201600090919091909150600082015181600001556020820151816001019081620001e0919062000fe1565b506040820151816002019081620001f8919062000fe1565b50606082015181600301556080820151816004015560a082015181600501555050600060088281548110620002325762000231620010c8565b5b90600052602060002090600602016040518060c001604052908160008201548152602001600182018054620002679062000dda565b80601f0160208091040260200160405190810160405280929190818152602001828054620002959062000dda565b8015620002e65780601f10620002ba57610100808354040283529160200191620002e6565b820191906000526020600020905b815481529060010190602001808311620002c857829003601f168201915b50505050508152602001600282018054620003019062000dda565b80601f01602080910402602001604051908101604052809291908181526020018280546200032f9062000dda565b8015620003805780601f10620003545761010080835404028352916020019162000380565b820191906000526020600020905b8154815290600101906020018083116200036257829003601f168201915b5050505050815260200160038201548152602001600482015481526020016005820154815250509050620003e760405180606001604052806025815260200162005d72602591398260200151836060015184604001516200075c60201b62001c141760201c565b50600181620003f7919062001126565b9050620000cc565b506200041760076200080860201b62001cb61760201c565b60005b84518110156200074d5760066040518060c001604052808381526020018784815181106200044d576200044c620010c8565b5b6020026020010151815260200186848151811062000470576200046f620010c8565b5b60200260200101518152602001858481518110620004935762000492620010c8565b5b60200260200101518152602001858481518110620004b657620004b5620010c8565b5b60200260200101518152602001848481518110620004d957620004d8620010c8565b5b602002602001015181525090806001815401808255809150506001900390600052602060002090600602016000909190919091506000820151816000015560208201518160010190816200052e919062000fe1565b50604082015181600201908162000546919062000fe1565b50606082015181600301556080820151816004015560a08201518160050155505060006006828154811062000580576200057f620010c8565b5b90600052602060002090600602016040518060c001604052908160008201548152602001600182018054620005b59062000dda565b80601f0160208091040260200160405190810160405280929190818152602001828054620005e39062000dda565b8015620006345780601f10620006085761010080835404028352916020019162000634565b820191906000526020600020905b8154815290600101906020018083116200061657829003601f168201915b505050505081526020016002820180546200064f9062000dda565b80601f01602080910402602001604051908101604052809291908181526020018280546200067d9062000dda565b8015620006ce5780601f10620006a257610100808354040283529160200191620006ce565b820191906000526020600020905b815481529060010190602001808311620006b057829003601f168201915b50505050508152602001600382015481526020016004820154815260200160058201548152505090506200073560405180606001604052806025815260200162005d72602591398260200151836060015184604001516200075c60201b62001c141760201c565b5060018162000745919062001126565b90506200041a565b50505050505050505062001226565b6200080284848484604051602401620007799493929190620011c4565b6040516020818303038152906040527f5d1a971a000000000000000000000000000000000000000000000000000000007bffffffffffffffffffffffffffffffffffffffffffffffffffffffff19166020820180517bffffffffffffffffffffffffffffffffffffffffffffffffffffffff83818316178352505050506200081e60201b60201c565b50505050565b6001816000016000828254019250508190555050565b60006a636f6e736f6c652e6c6f679050600080835160208501845afa505050565b6000604051905090565b600080fd5b600080fd5b600080fd5b6000601f19601f8301169050919050565b7f4e487b7100000000000000000000000000000000000000000000000000000000600052604160045260246000fd5b620008a38262000858565b810181811067ffffffffffffffff82111715620008c557620008c462000869565b5b80604052505050565b6000620008da6200083f565b9050620008e8828262000898565b919050565b600067ffffffffffffffff8211156200090b576200090a62000869565b5b602082029050602081019050919050565b600080fd5b600080fd5b600067ffffffffffffffff82111562000944576200094362000869565b5b6200094f8262000858565b9050602081019050919050565b60005b838110156200097c5780820151818401526020810190506200095f565b60008484015250505050565b60006200099f620009998462000926565b620008ce565b905082815260208101848484011115620009be57620009bd62000921565b5b620009cb8482856200095c565b509392505050565b600082601f830112620009eb57620009ea62000853565b5b8151620009fd84826020860162000988565b91505092915050565b600062000a1d62000a1784620008ed565b620008ce565b9050808382526020820190506020840283018581111562000a435762000a426200091c565b5b835b8181101562000a9157805167ffffffffffffffff81111562000a6c5762000a6b62000853565b5b80860162000a7b8982620009d3565b8552602085019450505060208101905062000a45565b5050509392505050565b600082601f83011262000ab35762000ab262000853565b5b815162000ac584826020860162000a06565b91505092915050565b600067ffffffffffffffff82111562000aec5762000aeb62000869565b5b602082029050602081019050919050565b6000819050919050565b62000b128162000afd565b811462000b1e57600080fd5b50565b60008151905062000b328162000b07565b92915050565b600062000b4f62000b498462000ace565b620008ce565b9050808382526020820190506020840283018581111562000b755762000b746200091c565b5b835b8181101562000ba2578062000b8d888262000b21565b84526020840193505060208101905062000b77565b5050509392505050565b600082601f83011262000bc45762000bc362000853565b5b815162000bd684826020860162000b38565b91505092915050565b600080600080600080600080610100898b03121562000c035762000c0262000849565b5b600089015167ffffffffffffffff81111562000c245762000c236200084e565b5b62000c328b828c0162000a9b565b985050602089015167ffffffffffffffff81111562000c565762000c556200084e565b5b62000c648b828c0162000a9b565b975050604089015167ffffffffffffffff81111562000c885762000c876200084e565b5b62000c968b828c0162000bac565b965050606089015167ffffffffffffffff81111562000cba5762000cb96200084e565b5b62000cc88b828c0162000bac565b955050608089015167ffffffffffffffff81111562000cec5762000ceb6200084e565b5b62000cfa8b828c0162000a9b565b94505060a089015167ffffffffffffffff81111562000d1e5762000d1d6200084e565b5b62000d2c8b828c0162000a9b565b93505060c089015167ffffffffffffffff81111562000d505762000d4f6200084e565b5b62000d5e8b828c0162000bac565b92505060e089015167ffffffffffffffff81111562000d825762000d816200084e565b5b62000d908b828c0162000bac565b9150509295985092959890939650565b600081519050919050565b7f4e487b7100000000000000000000000000000000000000000000000000000000600052602260045260246000fd5b6000600282049050600182168062000df357607f821691505b60208210810362000e095762000e0862000dab565b5b50919050565b60008190508160005260206000209050919050565b60006020601f8301049050919050565b600082821b905092915050565b60006008830262000e737fffffffffffffffffffffffffffffffffffffffffffffffffffffffffffffffff8262000e34565b62000e7f868362000e34565b95508019841693508086168417925050509392505050565b6000819050919050565b600062000ec262000ebc62000eb68462000afd565b62000e97565b62000afd565b9050919050565b6000819050919050565b62000ede8362000ea1565b62000ef662000eed8262000ec9565b84845462000e41565b825550505050565b600090565b62000f0d62000efe565b62000f1a81848462000ed3565b505050565b5b8181101562000f425762000f3660008262000f03565b60018101905062000f20565b5050565b601f82111562000f915762000f5b8162000e0f565b62000f668462000e24565b8101602085101562000f76578190505b62000f8e62000f858562000e24565b83018262000f1f565b50505b505050565b600082821c905092915050565b600062000fb66000198460080262000f96565b1980831691505092915050565b600062000fd1838362000fa3565b9150826002028217905092915050565b62000fec8262000da0565b67ffffffffffffffff81111562001008576200100762000869565b5b62001014825462000dda565b6200102182828562000f46565b600060209050601f83116001811462001059576000841562001044578287015190505b62001050858262000fc3565b865550620010c0565b601f198416620010698662000e0f565b60005b8281101562001093578489015182556001820191506020850194506020810190506200106c565b86831015620010b35784890151620010af601f89168262000fa3565b8355505b6001600288020188555050505b505050505050565b7f4e487b7100000000000000000000000000000000000000000000000000000000600052603260045260246000fd5b7f4e487b7100000000000000000000000000000000000000000000000000000000600052601160045260246000fd5b6000620011338262000afd565b9150620011408362000afd565b92508282019050808211156200115b576200115a620010f7565b5b92915050565b600082825260208201905092915050565b60006200117f8262000da0565b6200118b818562001161565b93506200119d8185602086016200095c565b620011a88162000858565b840191505092915050565b620011be8162000afd565b82525050565b60006080820190508181036000830152620011e0818762001172565b90508181036020830152620011f6818662001172565b9050620012076040830185620011b3565b81810360608301526200121b818462001172565b905095945050505050565b614b3c80620012366000396000f3fe608060405234801561001057600080fd5b50600436106101375760003560e01c806395d89b41116100b8578063c87b56dd1161007c578063c87b56dd1461037c578063c8cf27f4146103ac578063d4f24c5b146103ca578063e985e9c5146103d4578063eb77d42f14610404578063f8b81ef71461042257610137565b806395d89b41146102d357806398da4c95146102f1578063a22cb46514610326578063b88d4fde14610342578063b953084e1461035e57610137565b806342842e0e116100ff57806342842e0e146101f2578063523f17b81461020e5780636352211e1461024357806370a08231146102735780637df124a1146102a357610137565b806301ffc9a71461013c57806306fdde031461016c578063081812fc1461018a578063095ea7b3146101ba57806323b872dd146101d6575b600080fd5b61015660048036038101906101519190612ec8565b61043e565b6040516101639190612f10565b60405180910390f35b610174610520565b6040516101819190612fbb565b60405180910390f35b6101a4600480360381019061019f9190613013565b6105b2565b6040516101b19190613081565b60405180910390f35b6101d460048036038101906101cf91906130c8565b6105f8565b005b6101f060048036038101906101eb9190613108565b61070f565b005b61020c60048036038101906102079190613108565b61076f565b005b61022860048036038101906102239190613013565b61078f565b60405161023a9695949392919061316a565b60405180910390f35b61025d60048036038101906102589190613013565b6108eb565b60405161026a9190613081565b60405180910390f35b61028d600480360381019061028891906131d9565b610971565b60405161029a9190613206565b60405180910390f35b6102bd60048036038101906102b891906131d9565b610a28565b6040516102ca9190613206565b60405180910390f35b6102db610a40565b6040516102e89190612fbb565b60405180910390f35b61030b60048036038101906103069190613013565b610ad2565b60405161031d9695949392919061316a565b60405180910390f35b610340600480360381019061033b919061324d565b610c1e565b005b61035c600480360381019061035791906133c2565b610c34565b005b610366610c96565b60405161037391906135f0565b60405180910390f35b61039660048036038101906103919190613013565b610e41565b6040516103a39190612fbb565b60405180910390f35b6103b461105c565b6040516103c191906136a2565b60405180910390f35b6103d2611234565b005b6103ee60048036038101906103e991906136c4565b6116ad565b6040516103fb9190612f10565b60405180910390f35b61040c611741565b6040516104199190613856565b60405180910390f35b61043c60048036038101906104379190613013565b6118ec565b005b60007f80ac58cd000000000000000000000000000000000000000000000000000000007bffffffffffffffffffffffffffffffffffffffffffffffffffffffff1916827bffffffffffffffffffffffffffffffffffffffffffffffffffffffff1916148061050957507f5b5e139f000000000000000000000000000000000000000000000000000000007bffffffffffffffffffffffffffffffffffffffffffffffffffffffff1916827bffffffffffffffffffffffffffffffffffffffffffffffffffffffff1916145b80610519575061051882611ccc565b5b9050919050565b60606000805461052f906138a7565b80601f016020809104026020016040519081016040528092919081815260200182805461055b906138a7565b80156105a85780601f1061057d576101008083540402835291602001916105a8565b820191906000526020600020905b81548152906001019060200180831161058b57829003601f168201915b5050505050905090565b60006105bd82611d36565b6004600083815260200190815260200160002060009054906101000a900473ffffffffffffffffffffffffffffffffffffffff169050919050565b6000610603826108eb565b90508073ffffffffffffffffffffffffffffffffffffffff168373ffffffffffffffffffffffffffffffffffffffff1603610673576040517f08c379a000000000000000000000000000000000000000000000000000000000815260040161066a9061394a565b60405180910390fd5b8073ffffffffffffffffffffffffffffffffffffffff16610692611d81565b73ffffffffffffffffffffffffffffffffffffffff1614806106c157506106c0816106bb611d81565b6116ad565b5b610700576040517f08c379a00000000000000000000000000000000000000000000000000000000081526004016106f7906139dc565b60405180910390fd5b61070a8383611d89565b505050565b61072061071a611d81565b82611e42565b61075f576040517f08c379a000000000000000000000000000000000000000000000000000000000815260040161075690613a6e565b60405180910390fd5b61076a838383611ed7565b505050565b61078a83838360405180602001604052806000815250610c34565b505050565b6006818154811061079f57600080fd5b90600052602060002090600602016000915090508060000154908060010180546107c8906138a7565b80601f01602080910402602001604051908101604052809291908181526020018280546107f4906138a7565b80156108415780601f1061081657610100808354040283529160200191610841565b820191906000526020600020905b81548152906001019060200180831161082457829003601f168201915b505050505090806002018054610856906138a7565b80601f0160208091040260200160405190810160405280929190818152602001828054610882906138a7565b80156108cf5780601f106108a4576101008083540402835291602001916108cf565b820191906000526020600020905b8154815290600101906020018083116108b257829003601f168201915b5050505050908060030154908060040154908060050154905086565b6000806108f7836121d0565b9050600073ffffffffffffffffffffffffffffffffffffffff168173ffffffffffffffffffffffffffffffffffffffff1603610968576040517f08c379a000000000000000000000000000000000000000000000000000000000815260040161095f90613ada565b60405180910390fd5b80915050919050565b60008073ffffffffffffffffffffffffffffffffffffffff168273ffffffffffffffffffffffffffffffffffffffff16036109e1576040517f08c379a00000000000000000000000000000000000000000000000000000000081526004016109d890613b6c565b60405180910390fd5b600360008373ffffffffffffffffffffffffffffffffffffffff1673ffffffffffffffffffffffffffffffffffffffff168152602001908152602001600020549050919050565b600a6020528060005260406000206000915090505481565b606060018054610a4f906138a7565b80601f0160208091040260200160405190810160405280929190818152602001828054610a7b906138a7565b8015610ac85780601f10610a9d57610100808354040283529160200191610ac8565b820191906000526020600020905b815481529060010190602001808311610aab57829003601f168201915b5050505050905090565b6009602052806000526040600020600091509050806000015490806001018054610afb906138a7565b80601f0160208091040260200160405190810160405280929190818152602001828054610b27906138a7565b8015610b745780601f10610b4957610100808354040283529160200191610b74565b820191906000526020600020905b815481529060010190602001808311610b5757829003601f168201915b505050505090806002018054610b89906138a7565b80601f0160208091040260200160405190810160405280929190818152602001828054610bb5906138a7565b8015610c025780601f10610bd757610100808354040283529160200191610c02565b820191906000526020600020905b815481529060010190602001808311610be557829003601f168201915b5050505050908060030154908060040154908060050154905086565b610c30610c29611d81565b838361220d565b5050565b610c45610c3f611d81565b83611e42565b610c84576040517f08c379a0000000000000000000000000000000000000000000000000000000008152600401610c7b90613a6e565b60405180910390fd5b610c9084848484612379565b50505050565b60606008805480602002602001604051908101604052809291908181526020016000905b82821015610e3857838290600052602060002090600602016040518060c001604052908160008201548152602001600182018054610cf7906138a7565b80601f0160208091040260200160405190810160405280929190818152602001828054610d23906138a7565b8015610d705780601f10610d4557610100808354040283529160200191610d70565b820191906000526020600020905b815481529060010190602001808311610d5357829003601f168201915b50505050508152602001600282018054610d89906138a7565b80601f0160208091040260200160405190810160405280929190818152602001828054610db5906138a7565b8015610e025780601f10610dd757610100808354040283529160200191610e02565b820191906000526020600020905b815481529060010190602001808311610de557829003601f168201915b50505050508152602001600382015481526020016004820154815260200160058201548152505081526020019060010190610cba565b50505050905090565b60606000600960008481526020019081526020016000206040518060c001604052908160008201548152602001600182018054610e7d906138a7565b80601f0160208091040260200160405190810160405280929190818152602001828054610ea9906138a7565b8015610ef65780601f10610ecb57610100808354040283529160200191610ef6565b820191906000526020600020905b815481529060010190602001808311610ed957829003601f168201915b50505050508152602001600282018054610f0f906138a7565b80601f0160208091040260200160405190810160405280929190818152602001828054610f3b906138a7565b8015610f885780601f10610f5d57610100808354040283529160200191610f88565b820191906000526020600020905b815481529060010190602001808311610f6b57829003601f168201915b50505050508152602001600382015481526020016004820154815260200160058201548152505090506000610fc082606001516123d5565b90506000610fd183608001516123d5565b90506000610fe28460a001516123d5565b905060006110288560200151610ff7896123d5565b876040015187878760405160200161101496959493929190613e9a565b6040516020818303038152906040526124a3565b905060008160405160200161103d9190613f8b565b6040516020818303038152906040529050809650505050505050919050565b611064612e26565b6000600a60003373ffffffffffffffffffffffffffffffffffffffff1673ffffffffffffffffffffffffffffffffffffffff168152602001908152602001600020549050600081111561122357600960008281526020019081526020016000206040518060c0016040529081600082015481526020016001820180546110e9906138a7565b80601f0160208091040260200160405190810160405280929190818152602001828054611115906138a7565b80156111625780601f1061113757610100808354040283529160200191611162565b820191906000526020600020905b81548152906001019060200180831161114557829003601f168201915b5050505050815260200160028201805461117b906138a7565b80601f01602080910402602001604051908101604052809291908181526020018280546111a7906138a7565b80156111f45780601f106111c9576101008083540402835291602001916111f4565b820191906000526020600020905b8154815290600101906020018083116111d757829003601f168201915b505050505081526020016003820154815260200160048201548152602001600582015481525050915050611231565b61122b612e26565b80925050505b90565b6000600a60003373ffffffffffffffffffffffffffffffffffffffff1673ffffffffffffffffffffffffffffffffffffffff1681526020019081526020016000205490506000600960008381526020019081526020016000209050600080600682815481106112a6576112a5613fad565b5b90600052602060002090600602016040518060c0016040529081600082015481526020016001820180546112d9906138a7565b80601f0160208091040260200160405190810160405280929190818152602001828054611305906138a7565b80156113525780601f1061132757610100808354040283529160200191611352565b820191906000526020600020905b81548152906001019060200180831161133557829003601f168201915b5050505050815260200160028201805461136b906138a7565b80601f0160208091040260200160405190810160405280929190818152602001828054611397906138a7565b80156113e45780601f106113b9576101008083540402835291602001916113e4565b820191906000526020600020905b8154815290600101906020018083116113c757829003601f168201915b50505050508152602001600382015481526020016004820154815260200160058201548152505090506114c56040518060600160405280603c8152602001614acb603c9139846001018054611438906138a7565b80601f0160208091040260200160405190810160405280929190818152602001828054611464906138a7565b80156114b15780601f10611486576101008083540402835291602001916114b1565b820191906000526020600020905b81548152906001019060200180831161149457829003601f168201915b50505050508560030154866005015461263a565b6115126040518060400160405280601b81526020017f426f73732025732068617320257320485020616e642025732041440000000000815250826020015183606001518460a0015161263a565b6000836003015411611559576040517f08c379a00000000000000000000000000000000000000000000000000000000081526004016115509061404e565b60405180910390fd5b60008160600151116115a0576040517f08c379a0000000000000000000000000000000000000000000000000000000008152600401611597906140e0565b60405180910390fd5b8260050154816060015110156115c05760008160600181815250506115de565b826005015481606001516115d4919061412f565b8160600181815250505b8060a00151836003015410156115fd576000836003018190555061161a565b8060a001518360030154611611919061412f565b83600301819055505b611640604051806060016040528060258152602001614a106025913982606001516126dc565b611666604051806060016040528060288152602001614aa36028913984600301546126dc565b7f838ab28464562786a6c4ab2311964b82fa60bd9b14aa7e856af1f3f18d41a4148160600151846003015460405161169f929190614163565b60405180910390a150505050565b6000600560008473ffffffffffffffffffffffffffffffffffffffff1673ffffffffffffffffffffffffffffffffffffffff16815260200190815260200160002060008373ffffffffffffffffffffffffffffffffffffffff1673ffffffffffffffffffffffffffffffffffffffff16815260200190815260200160002060009054906101000a900460ff16905092915050565b60606006805480602002602001604051908101604052809291908181526020016000905b828210156118e357838290600052602060002090600602016040518060c0016040529081600082015481526020016001820180546117a2906138a7565b80601f01602080910402602001604051908101604052809291908181526020018280546117ce906138a7565b801561181b5780601f106117f05761010080835404028352916020019161181b565b820191906000526020600020905b8154815290600101906020018083116117fe57829003601f168201915b50505050508152602001600282018054611834906138a7565b80601f0160208091040260200160405190810160405280929190818152602001828054611860906138a7565b80156118ad5780601f10611882576101008083540402835291602001916118ad565b820191906000526020600020905b81548152906001019060200180831161189057829003601f168201915b50505050508152602001600382015481526020016004820154815260200160058201548152505081526020019060010190611765565b50505050905090565b60006118f86007612778565b90506119043382612786565b6040518060c001604052808381526020016008848154811061192957611928613fad565b5b90600052602060002090600602016001018054611945906138a7565b80601f0160208091040260200160405190810160405280929190818152602001828054611971906138a7565b80156119be5780601f10611993576101008083540402835291602001916119be565b820191906000526020600020905b8154815290600101906020018083116119a157829003601f168201915b50505050508152602001600884815481106119dc576119db613fad565b5b906000526020600020906006020160020180546119f8906138a7565b80601f0160208091040260200160405190810160405280929190818152602001828054611a24906138a7565b8015611a715780601f10611a4657610100808354040283529160200191611a71565b820191906000526020600020905b815481529060010190602001808311611a5457829003601f168201915b5050505050815260200160088481548110611a8f57611a8e613fad565b5b906000526020600020906006020160030154815260200160088481548110611aba57611ab9613fad565b5b906000526020600020906006020160040154815260200160088481548110611ae557611ae4613fad565b5b90600052602060002090600602016005015481525060096000838152602001908152602001600020600082015181600001556020820151816001019081611b2c9190614338565b506040820151816002019081611b429190614338565b50606082015181600301556080820151816004015560a08201518160050155905050611b876040518060600160405280602e8152602001614a75602e913982846127a4565b80600a60003373ffffffffffffffffffffffffffffffffffffffff1673ffffffffffffffffffffffffffffffffffffffff16815260200190815260200160002081905550611bd56007611cb6565b7f4bc303fd457a97b4691b9af582ce71868a3d258638c8d4f8c60988a0f0bfb8cd338284604051611c089392919061440a565b60405180910390a15050565b611cb084848484604051602401611c2e9493929190614441565b6040516020818303038152906040527f5d1a971a000000000000000000000000000000000000000000000000000000007bffffffffffffffffffffffffffffffffffffffffffffffffffffffff19166020820180517bffffffffffffffffffffffffffffffffffffffffffffffffffffffff8381831617835250505050612843565b50505050565b6001816000016000828254019250508190555050565b60007f01ffc9a7000000000000000000000000000000000000000000000000000000007bffffffffffffffffffffffffffffffffffffffffffffffffffffffff1916827bffffffffffffffffffffffffffffffffffffffffffffffffffffffff1916149050919050565b611d3f81612864565b611d7e576040517f08c379a0000000000000000000000000000000000000000000000000000000008152600401611d7590613ada565b60405180910390fd5b50565b600033905090565b816004600083815260200190815260200160002060006101000a81548173ffffffffffffffffffffffffffffffffffffffff021916908373ffffffffffffffffffffffffffffffffffffffff160217905550808273ffffffffffffffffffffffffffffffffffffffff16611dfc836108eb565b73ffffffffffffffffffffffffffffffffffffffff167f8c5be1e5ebec7d5bd14f71427d1e84f3dd0314c0f7b2291e5b200ac8c7c3b92560405160405180910390a45050565b600080611e4e836108eb565b90508073ffffffffffffffffffffffffffffffffffffffff168473ffffffffffffffffffffffffffffffffffffffff161480611e905750611e8f81856116ad565b5b80611ece57508373ffffffffffffffffffffffffffffffffffffffff16611eb6846105b2565b73ffffffffffffffffffffffffffffffffffffffff16145b91505092915050565b8273ffffffffffffffffffffffffffffffffffffffff16611ef7826108eb565b73ffffffffffffffffffffffffffffffffffffffff1614611f4d576040517f08c379a0000000000000000000000000000000000000000000000000000000008152600401611f449061450d565b60405180910390fd5b600073ffffffffffffffffffffffffffffffffffffffff168273ffffffffffffffffffffffffffffffffffffffff1603611fbc576040517f08c379a0000000000000000000000000000000000000000000000000000000008152600401611fb39061459f565b60405180910390fd5b611fc983838360016128a5565b8273ffffffffffffffffffffffffffffffffffffffff16611fe9826108eb565b73ffffffffffffffffffffffffffffffffffffffff161461203f576040517f08c379a00000000000000000000000000000000000000000000000000000000081526004016120369061450d565b60405180910390fd5b6004600082815260200190815260200160002060006101000a81549073ffffffffffffffffffffffffffffffffffffffff02191690556001600360008573ffffffffffffffffffffffffffffffffffffffff1673ffffffffffffffffffffffffffffffffffffffff168152602001908152602001600020600082825403925050819055506001600360008473ffffffffffffffffffffffffffffffffffffffff1673ffffffffffffffffffffffffffffffffffffffff16815260200190815260200160002060008282540192505081905550816002600083815260200190815260200160002060006101000a81548173ffffffffffffffffffffffffffffffffffffffff021916908373ffffffffffffffffffffffffffffffffffffffff160217905550808273ffffffffffffffffffffffffffffffffffffffff168473ffffffffffffffffffffffffffffffffffffffff167fddf252ad1be2c89b69c2b068fc378daa952ba7f163c4a11628f55a4df523b3ef60405160405180910390a46121cb83838360016128ab565b505050565b60006002600083815260200190815260200160002060009054906101000a900473ffffffffffffffffffffffffffffffffffffffff169050919050565b8173ffffffffffffffffffffffffffffffffffffffff168373ffffffffffffffffffffffffffffffffffffffff160361227b576040517f08c379a00000000000000000000000000000000000000000000000000000000081526004016122729061460b565b60405180910390fd5b80600560008573ffffffffffffffffffffffffffffffffffffffff1673ffffffffffffffffffffffffffffffffffffffff16815260200190815260200160002060008473ffffffffffffffffffffffffffffffffffffffff1673ffffffffffffffffffffffffffffffffffffffff16815260200190815260200160002060006101000a81548160ff0219169083151502179055508173ffffffffffffffffffffffffffffffffffffffff168373ffffffffffffffffffffffffffffffffffffffff167f17307eab39ab6107e8899845ad3d59bd9653f200f220920489ca2b5937696c318360405161236c9190612f10565b60405180910390a3505050565b612384848484611ed7565b612390848484846128b1565b6123cf576040517f08c379a00000000000000000000000000000000000000000000000000000000081526004016123c69061469d565b60405180910390fd5b50505050565b6060600060016123e484612a38565b01905060008167ffffffffffffffff81111561240357612402613297565b5b6040519080825280601f01601f1916602001820160405280156124355781602001600182028036833780820191505090505b509050600082602001820190505b600115612498578080600190039150507f3031323334353637383961626364656600000000000000000000000000000000600a86061a8153600a858161248c5761248b6146bd565b5b04945060008503612443575b819350505050919050565b6060600082519050600081036124cb5760405180602001604052806000815250915050612635565b600060036002836124dc91906146ec565b6124e69190614720565b60046124f29190614751565b9050600060208261250391906146ec565b67ffffffffffffffff81111561251c5761251b613297565b5b6040519080825280601f01601f19166020018201604052801561254e5781602001600182028036833780820191505090505b5090506000604051806060016040528060408152602001614a35604091399050600181016020830160005b868110156125f25760038101905062ffffff818a015116603f8160121c168401518060081b905060ff603f83600c1c1686015116810190508060081b905060ff603f8360061c1686015116810190508060081b905060ff603f831686015116810190508060e01b90508084526004840193505050612579565b50600386066001811461260c576002811461261c57612627565b613d3d60f01b6002830352612627565b603d60f81b60018303525b508484525050819450505050505b919050565b6126d6848484846040516024016126549493929190614793565b6040516020818303038152906040527ff45d7d2c000000000000000000000000000000000000000000000000000000007bffffffffffffffffffffffffffffffffffffffffffffffffffffffff19166020820180517bffffffffffffffffffffffffffffffffffffffffffffffffffffffff8381831617835250505050612843565b50505050565b61277482826040516024016126f29291906147e6565b6040516020818303038152906040527fb60e72cc000000000000000000000000000000000000000000000000000000007bffffffffffffffffffffffffffffffffffffffffffffffffffffffff19166020820180517bffffffffffffffffffffffffffffffffffffffffffffffffffffffff8381831617835250505050612843565b5050565b600081600001549050919050565b6127a0828260405180602001604052806000815250612b8b565b5050565b61283e8383836040516024016127bc93929190614816565b6040516020818303038152906040527fca47c4eb000000000000000000000000000000000000000000000000000000007bffffffffffffffffffffffffffffffffffffffffffffffffffffffff19166020820180517bffffffffffffffffffffffffffffffffffffffffffffffffffffffff8381831617835250505050612843565b505050565b60006a636f6e736f6c652e6c6f679050600080835160208501845afa505050565b60008073ffffffffffffffffffffffffffffffffffffffff16612886836121d0565b73ffffffffffffffffffffffffffffffffffffffff1614159050919050565b50505050565b50505050565b60006128d28473ffffffffffffffffffffffffffffffffffffffff16612be6565b15612a2b578373ffffffffffffffffffffffffffffffffffffffff1663150b7a026128fb611d81565b8786866040518563ffffffff1660e01b815260040161291d94939291906148a9565b6020604051808303816000875af192505050801561295957506040513d601f19601f82011682018060405250810190612956919061490a565b60015b6129db573d8060008114612989576040519150601f19603f3d011682016040523d82523d6000602084013e61298e565b606091505b5060008151036129d3576040517f08c379a00000000000000000000000000000000000000000000000000000000081526004016129ca9061469d565b60405180910390fd5b805181602001fd5b63150b7a0260e01b7bffffffffffffffffffffffffffffffffffffffffffffffffffffffff1916817bffffffffffffffffffffffffffffffffffffffffffffffffffffffff191614915050612a30565b600190505b949350505050565b600080600090507a184f03e93ff9f4daa797ed6e38ed64bf6a1f0100000000000000008310612a96577a184f03e93ff9f4daa797ed6e38ed64bf6a1f0100000000000000008381612a8c57612a8b6146bd565b5b0492506040810190505b6d04ee2d6d415b85acef81000000008310612ad3576d04ee2d6d415b85acef81000000008381612ac957612ac86146bd565b5b0492506020810190505b662386f26fc100008310612b0257662386f26fc100008381612af857612af76146bd565b5b0492506010810190505b6305f5e1008310612b2b576305f5e1008381612b2157612b206146bd565b5b0492506008810190505b6127108310612b50576127108381612b4657612b456146bd565b5b0492506004810190505b60648310612b735760648381612b6957612b686146bd565b5b0492506002810190505b600a8310612b82576001810190505b80915050919050565b612b958383612c09565b612ba260008484846128b1565b612be1576040517f08c379a0000000000000000000000000000000000000000000000000000000008152600401612bd89061469d565b60405180910390fd5b505050565b6000808273ffffffffffffffffffffffffffffffffffffffff163b119050919050565b600073ffffffffffffffffffffffffffffffffffffffff168273ffffffffffffffffffffffffffffffffffffffff1603612c78576040517f08c379a0000000000000000000000000000000000000000000000000000000008152600401612c6f90614983565b60405180910390fd5b612c8181612864565b15612cc1576040517f08c379a0000000000000000000000000000000000000000000000000000000008152600401612cb8906149ef565b60405180910390fd5b612ccf6000838360016128a5565b612cd881612864565b15612d18576040517f08c379a0000000000000000000000000000000000000000000000000000000008152600401612d0f906149ef565b60405180910390fd5b6001600360008473ffffffffffffffffffffffffffffffffffffffff1673ffffffffffffffffffffffffffffffffffffffff16815260200190815260200160002060008282540192505081905550816002600083815260200190815260200160002060006101000a81548173ffffffffffffffffffffffffffffffffffffffff021916908373ffffffffffffffffffffffffffffffffffffffff160217905550808273ffffffffffffffffffffffffffffffffffffffff16600073ffffffffffffffffffffffffffffffffffffffff167fddf252ad1be2c89b69c2b068fc378daa952ba7f163c4a11628f55a4df523b3ef60405160405180910390a4612e226000838360016128ab565b5050565b6040518060c001604052806000815260200160608152602001606081526020016000815260200160008152602001600081525090565b6000604051905090565b600080fd5b600080fd5b60007fffffffff0000000000000000000000000000000000000000000000000000000082169050919050565b612ea581612e70565b8114612eb057600080fd5b50565b600081359050612ec281612e9c565b92915050565b600060208284031215612ede57612edd612e66565b5b6000612eec84828501612eb3565b91505092915050565b60008115159050919050565b612f0a81612ef5565b82525050565b6000602082019050612f256000830184612f01565b92915050565b600081519050919050565b600082825260208201905092915050565b60005b83811015612f65578082015181840152602081019050612f4a565b60008484015250505050565b6000601f19601f8301169050919050565b6000612f8d82612f2b565b612f978185612f36565b9350612fa7818560208601612f47565b612fb081612f71565b840191505092915050565b60006020820190508181036000830152612fd58184612f82565b905092915050565b6000819050919050565b612ff081612fdd565b8114612ffb57600080fd5b50565b60008135905061300d81612fe7565b92915050565b60006020828403121561302957613028612e66565b5b600061303784828501612ffe565b91505092915050565b600073ffffffffffffffffffffffffffffffffffffffff82169050919050565b600061306b82613040565b9050919050565b61307b81613060565b82525050565b60006020820190506130966000830184613072565b92915050565b6130a581613060565b81146130b057600080fd5b50565b6000813590506130c28161309c565b92915050565b600080604083850312156130df576130de612e66565b5b60006130ed858286016130b3565b92505060206130fe85828601612ffe565b9150509250929050565b60008060006060848603121561312157613120612e66565b5b600061312f868287016130b3565b9350506020613140868287016130b3565b925050604061315186828701612ffe565b9150509250925092565b61316481612fdd565b82525050565b600060c08201905061317f600083018961315b565b81810360208301526131918188612f82565b905081810360408301526131a58187612f82565b90506131b4606083018661315b565b6131c1608083018561315b565b6131ce60a083018461315b565b979650505050505050565b6000602082840312156131ef576131ee612e66565b5b60006131fd848285016130b3565b91505092915050565b600060208201905061321b600083018461315b565b92915050565b61322a81612ef5565b811461323557600080fd5b50565b60008135905061324781613221565b92915050565b6000806040838503121561326457613263612e66565b5b6000613272858286016130b3565b925050602061328385828601613238565b9150509250929050565b600080fd5b600080fd5b7f4e487b7100000000000000000000000000000000000000000000000000000000600052604160045260246000fd5b6132cf82612f71565b810181811067ffffffffffffffff821117156132ee576132ed613297565b5b80604052505050565b6000613301612e5c565b905061330d82826132c6565b919050565b600067ffffffffffffffff82111561332d5761332c613297565b5b61333682612f71565b9050602081019050919050565b82818337600083830152505050565b600061336561336084613312565b6132f7565b90508281526020810184848401111561338157613380613292565b5b61338c848285613343565b509392505050565b600082601f8301126133a9576133a861328d565b5b81356133b9848260208601613352565b91505092915050565b600080600080608085870312156133dc576133db612e66565b5b60006133ea878288016130b3565b94505060206133fb878288016130b3565b935050604061340c87828801612ffe565b925050606085013567ffffffffffffffff81111561342d5761342c612e6b565b5b61343987828801613394565b91505092959194509250565b600081519050919050565b600082825260208201905092915050565b6000819050602082019050919050565b61347a81612fdd565b82525050565b600082825260208201905092915050565b600061349c82612f2b565b6134a68185613480565b93506134b6818560208601612f47565b6134bf81612f71565b840191505092915050565b600060c0830160008301516134e26000860182613471565b50602083015184820360208601526134fa8282613491565b915050604083015184820360408601526135148282613491565b91505060608301516135296060860182613471565b50608083015161353c6080860182613471565b5060a083015161354f60a0860182613471565b508091505092915050565b600061356683836134ca565b905092915050565b6000602082019050919050565b600061358682613445565b6135908185613450565b9350836020820285016135a285613461565b8060005b858110156135de57848403895281516135bf858261355a565b94506135ca8361356e565b925060208a019950506001810190506135a6565b50829750879550505050505092915050565b6000602082019050818103600083015261360a818461357b565b905092915050565b600060c08301600083015161362a6000860182613471565b50602083015184820360208601526136428282613491565b9150506040830151848203604086015261365c8282613491565b91505060608301516136716060860182613471565b5060808301516136846080860182613471565b5060a083015161369760a0860182613471565b508091505092915050565b600060208201905081810360008301526136bc8184613612565b905092915050565b600080604083850312156136db576136da612e66565b5b60006136e9858286016130b3565b92505060206136fa858286016130b3565b9150509250929050565b600081519050919050565b600082825260208201905092915050565b6000819050602082019050919050565b600060c0830160008301516137486000860182613471565b50602083015184820360208601526137608282613491565b9150506040830151848203604086015261377a8282613491565b915050606083015161378f6060860182613471565b5060808301516137a26080860182613471565b5060a08301516137b560a0860182613471565b508091505092915050565b60006137cc8383613730565b905092915050565b6000602082019050919050565b60006137ec82613704565b6137f6818561370f565b93508360208202850161380885613720565b8060005b85811015613844578484038952815161382585826137c0565b9450613830836137d4565b925060208a0199505060018101905061380c565b50829750879550505050505092915050565b6000602082019050818103600083015261387081846137e1565b905092915050565b7f4e487b7100000000000000000000000000000000000000000000000000000000600052602260045260246000fd5b600060028204905060018216806138bf57607f821691505b6020821081036138d2576138d1613878565b5b50919050565b7f4552433732313a20617070726f76616c20746f2063757272656e74206f776e6560008201527f7200000000000000000000000000000000000000000000000000000000000000602082015250565b6000613934602183612f36565b915061393f826138d8565b604082019050919050565b6000602082019050818103600083015261396381613927565b9050919050565b7f4552433732313a20617070726f76652063616c6c6572206973206e6f7420746f60008201527f6b656e206f776e6572206f7220617070726f76656420666f7220616c6c000000602082015250565b60006139c6603d83612f36565b91506139d18261396a565b604082019050919050565b600060208201905081810360008301526139f5816139b9565b9050919050565b7f4552433732313a2063616c6c6572206973206e6f7420746f6b656e206f776e6560008201527f72206f7220617070726f76656400000000000000000000000000000000000000602082015250565b6000613a58602d83612f36565b9150613a63826139fc565b604082019050919050565b60006020820190508181036000830152613a8781613a4b565b9050919050565b7f4552433732313a20696e76616c696420746f6b656e2049440000000000000000600082015250565b6000613ac4601883612f36565b9150613acf82613a8e565b602082019050919050565b60006020820190508181036000830152613af381613ab7565b9050919050565b7f4552433732313a2061646472657373207a65726f206973206e6f74206120766160008201527f6c6964206f776e65720000000000000000000000000000000000000000000000602082015250565b6000613b56602983612f36565b9150613b6182613afa565b604082019050919050565b60006020820190508181036000830152613b8581613b49565b9050919050565b600081905092915050565b7f7b226e616d65223a202200000000000000000000000000000000000000000000600082015250565b6000613bcd600a83613b8c565b9150613bd882613b97565b600a82019050919050565b6000613bee82612f2b565b613bf88185613b8c565b9350613c08818560208601612f47565b80840191505092915050565b7f202d2d204e465420233a20000000000000000000000000000000000000000000600082015250565b6000613c4a600b83613b8c565b9150613c5582613c14565b600b82019050919050565b7f222c20226465736372697074696f6e223a20225468697320697320616e204e4660008201527f542074686174206c6574732070656f706c6520706c617920696e20746865206760208201527f616d65204d657461766572736520536c6179657221222c2022696d616765223a60408201527f2022000000000000000000000000000000000000000000000000000000000000606082015250565b6000613d08606283613b8c565b9150613d1382613c60565b606282019050919050565b7f222c202261747472696275746573223a205b207b202274726169745f7479706560008201527f223a20224865616c746820506f696e7473222c202276616c7565223a20000000602082015250565b6000613d7a603d83613b8c565b9150613d8582613d1e565b603d82019050919050565b7f2c20226d61785f76616c7565223a000000000000000000000000000000000000600082015250565b6000613dc6600e83613b8c565b9150613dd182613d90565b600e82019050919050565b7f7d2c207b202274726169745f74797065223a202241747461636b2044616d616760008201527f65222c202276616c7565223a2000000000000000000000000000000000000000602082015250565b6000613e38602d83613b8c565b9150613e4382613ddc565b602d82019050919050565b7f7d205d7d00000000000000000000000000000000000000000000000000000000600082015250565b6000613e84600483613b8c565b9150613e8f82613e4e565b600482019050919050565b6000613ea582613bc0565b9150613eb18289613be3565b9150613ebc82613c3d565b9150613ec88288613be3565b9150613ed382613cfb565b9150613edf8287613be3565b9150613eea82613d6d565b9150613ef68286613be3565b9150613f0182613db9565b9150613f0d8285613be3565b9150613f1882613e2b565b9150613f248284613be3565b9150613f2f82613e77565b9150819050979650505050505050565b7f646174613a6170706c69636174696f6e2f6a736f6e3b6261736536342c000000600082015250565b6000613f75601d83613b8c565b9150613f8082613f3f565b601d82019050919050565b6000613f9682613f68565b9150613fa28284613be3565b915081905092915050565b7f4e487b7100000000000000000000000000000000000000000000000000000000600052603260045260246000fd5b7f4572726f723a20436861726163746572206d757374206861766520485020746f60008201527f2061747461636b20626f73732e00000000000000000000000000000000000000602082015250565b6000614038602d83612f36565b915061404382613fdc565b604082019050919050565b600060208201905081810360008301526140678161402b565b9050919050565b7f4572726f723a20626f7373206d757374206861766520485020746f206174746160008201527f636b20636861726163746572732e000000000000000000000000000000000000602082015250565b60006140ca602e83612f36565b91506140d58261406e565b604082019050919050565b600060208201905081810360008301526140f9816140bd565b9050919050565b7f4e487b7100000000000000000000000000000000000000000000000000000000600052601160045260246000fd5b600061413a82612fdd565b915061414583612fdd565b925082820390508181111561415d5761415c614100565b5b92915050565b6000604082019050614178600083018561315b565b614185602083018461315b565b9392505050565b60008190508160005260206000209050919050565b60006020601f8301049050919050565b600082821b905092915050565b6000600883026141ee7fffffffffffffffffffffffffffffffffffffffffffffffffffffffffffffffff826141b1565b6141f886836141b1565b95508019841693508086168417925050509392505050565b6000819050919050565b600061423561423061422b84612fdd565b614210565b612fdd565b9050919050565b6000819050919050565b61424f8361421a565b61426361425b8261423c565b8484546141be565b825550505050565b600090565b61427861426b565b614283818484614246565b505050565b5b818110156142a75761429c600082614270565b600181019050614289565b5050565b601f8211156142ec576142bd8161418c565b6142c6846141a1565b810160208510156142d5578190505b6142e96142e1856141a1565b830182614288565b50505b505050565b600082821c905092915050565b600061430f600019846008026142f1565b1980831691505092915050565b600061432883836142fe565b9150826002028217905092915050565b61434182612f2b565b67ffffffffffffffff81111561435a57614359613297565b5b61436482546138a7565b61436f8282856142ab565b600060209050601f8311600181146143a25760008415614390578287015190505b61439a858261431c565b865550614402565b601f1984166143b08661418c565b60005b828110156143d8578489015182556001820191506020850194506020810190506143b3565b868310156143f557848901516143f1601f8916826142fe565b8355505b6001600288020188555050505b505050505050565b600060608201905061441f6000830186613072565b61442c602083018561315b565b614439604083018461315b565b949350505050565b6000608082019050818103600083015261445b8187612f82565b9050818103602083015261446f8186612f82565b905061447e604083018561315b565b81810360608301526144908184612f82565b905095945050505050565b7f4552433732313a207472616e736665722066726f6d20696e636f72726563742060008201527f6f776e6572000000000000000000000000000000000000000000000000000000602082015250565b60006144f7602583612f36565b91506145028261449b565b604082019050919050565b60006020820190508181036000830152614526816144ea565b9050919050565b7f4552433732313a207472616e7366657220746f20746865207a65726f2061646460008201527f7265737300000000000000000000000000000000000000000000000000000000602082015250565b6000614589602483612f36565b91506145948261452d565b604082019050919050565b600060208201905081810360008301526145b88161457c565b9050919050565b7f4552433732313a20617070726f766520746f2063616c6c657200000000000000600082015250565b60006145f5601983612f36565b9150614600826145bf565b602082019050919050565b60006020820190508181036000830152614624816145e8565b9050919050565b7f4552433732313a207472616e7366657220746f206e6f6e20455243373231526560008201527f63656976657220696d706c656d656e7465720000000000000000000000000000602082015250565b6000614687603283612f36565b91506146928261462b565b604082019050919050565b600060208201905081810360008301526146b68161467a565b9050919050565b7f4e487b7100000000000000000000000000000000000000000000000000000000600052601260045260246000fd5b60006146f782612fdd565b915061470283612fdd565b925082820190508082111561471a57614719614100565b5b92915050565b600061472b82612fdd565b915061473683612fdd565b925082614746576147456146bd565b5b828204905092915050565b600061475c82612fdd565b915061476783612fdd565b925082820261477581612fdd565b9150828204841483151761478c5761478b614100565b5b5092915050565b600060808201905081810360008301526147ad8187612f82565b905081810360208301526147c18186612f82565b90506147d0604083018561315b565b6147dd606083018461315b565b95945050505050565b600060408201905081810360008301526148008185612f82565b905061480f602083018461315b565b9392505050565b600060608201905081810360008301526148308186612f82565b905061483f602083018561315b565b61484c604083018461315b565b949350505050565b600081519050919050565b600082825260208201905092915050565b600061487b82614854565b614885818561485f565b9350614895818560208601612f47565b61489e81612f71565b840191505092915050565b60006080820190506148be6000830187613072565b6148cb6020830186613072565b6148d8604083018561315b565b81810360608301526148ea8184614870565b905095945050505050565b60008151905061490481612e9c565b92915050565b6000602082840312156149205761491f612e66565b5b600061492e848285016148f5565b91505092915050565b7f4552433732313a206d696e7420746f20746865207a65726f2061646472657373600082015250565b600061496d602083612f36565b915061497882614937565b602082019050919050565b6000602082019050818103600083015261499c81614960565b9050919050565b7f4552433732313a20746f6b656e20616c7265616479206d696e74656400000000600082015250565b60006149d9601c83612f36565b91506149e4826149a3565b602082019050919050565b60006020820190508181036000830152614a08816149cc565b905091905056fe506c617965722061747461636b656420626f73732e204e657720626f73732068703a2024734142434445464748494a4b4c4d4e4f505152535455565758595a6162636465666768696a6b6c6d6e6f707172737475767778797a303132333435363738392b2f4d696e746564204e465420772f20746f6b656e496420257320616e6420636861726163746572496e646578202573426f73732061747461636b656420706c617965722e204e657720506c617965722068703a2025730a0a506c6179657220772f206368617261637465722025732061626f757420746f2061747461636b2e2048617320257320485020616e64202573204144a264697066735822122074f39c8930ccf49851636a8de12381862e286b08b37b25f67d60ceb8f0e25de464736f6c63430008120033446f6e6520696e697469616c697a696e6720257320772f2048502025732c20696d67202573",
  "linkReferences": {},
  "deployedLinkReferences": {}
}