{
  "_format": "hh-sol-artifact-1",
  "contractName": "MyEpicGame",
  "sourceName": "contracts/MyEpicGame.sol",
  "abi": [
    {
      "inputs": [
        {
          "internalType": "string[]",
          "name": "characterNames",
          "type": "string[]"
        },
        {
          "internalType": "string[]",
          "name": "characterImageURIs",
          "type": "string[]"
        },
        {
          "internalType": "uint256[]",
          "name": "characterHp",
          "type": "uint256[]"
        },
        {
          "internalType": "uint256[]",
          "name": "characterAttackDmg",
          "type": "uint256[]"
        },
        {
          "internalType": "string[]",
          "name": "beverageNames",
          "type": "string[]"
        },
        {
          "internalType": "string[]",
          "name": "beverageImageURI",
          "type": "string[]"
        },
        {
          "internalType": "uint256[]",
          "name": "beveragePrice",
          "type": "uint256[]"
        },
        {
          "internalType": "uint256[]",
          "name": "beverageCost",
          "type": "uint256[]"
        }
      ],
      "stateMutability": "nonpayable",
      "type": "constructor"
    },
    {
      "anonymous": false,
      "inputs": [
        {
          "indexed": true,
          "internalType": "address",
          "name": "owner",
          "type": "address"
        },
        {
          "indexed": true,
          "internalType": "address",
          "name": "approved",
          "type": "address"
        },
        {
          "indexed": true,
          "internalType": "uint256",
          "name": "tokenId",
          "type": "uint256"
        }
      ],
      "name": "Approval",
      "type": "event"
    },
    {
      "anonymous": false,
      "inputs": [
        {
          "indexed": true,
          "internalType": "address",
          "name": "owner",
          "type": "address"
        },
        {
          "indexed": true,
          "internalType": "address",
          "name": "operator",
          "type": "address"
        },
        {
          "indexed": false,
          "internalType": "bool",
          "name": "approved",
          "type": "bool"
        }
      ],
      "name": "ApprovalForAll",
      "type": "event"
    },
    {
      "anonymous": false,
      "inputs": [
        {
          "indexed": false,
          "internalType": "uint256",
          "name": "newBossHp",
          "type": "uint256"
        },
        {
          "indexed": false,
          "internalType": "uint256",
          "name": "newPlayerHp",
          "type": "uint256"
        }
      ],
      "name": "AttackComplete",
      "type": "event"
    },
    {
      "anonymous": false,
      "inputs": [
        {
          "indexed": false,
          "internalType": "address",
          "name": "sender",
          "type": "address"
        },
        {
          "indexed": false,
          "internalType": "uint256",
          "name": "tokenId",
          "type": "uint256"
        },
        {
          "indexed": false,
          "internalType": "uint256",
          "name": "characterIndex",
          "type": "uint256"
        }
      ],
      "name": "CharacterNFTMinted",
      "type": "event"
    },
    {
      "anonymous": false,
      "inputs": [
        {
          "indexed": true,
          "internalType": "address",
          "name": "from",
          "type": "address"
        },
        {
          "indexed": true,
          "internalType": "address",
          "name": "to",
          "type": "address"
        },
        {
          "indexed": true,
          "internalType": "uint256",
          "name": "tokenId",
          "type": "uint256"
        }
      ],
      "name": "Transfer",
      "type": "event"
    },
    {
      "inputs": [
        {
          "internalType": "address",
          "name": "to",
          "type": "address"
        },
        {
          "internalType": "uint256",
          "name": "tokenId",
          "type": "uint256"
        }
      ],
      "name": "approve",
      "outputs": [],
      "stateMutability": "nonpayable",
      "type": "function"
    },
    {
      "inputs": [],
      "name": "attackBoss",
      "outputs": [],
      "stateMutability": "nonpayable",
      "type": "function"
    },
    {
      "inputs": [
        {
          "internalType": "address",
          "name": "owner",
          "type": "address"
        }
      ],
      "name": "balanceOf",
      "outputs": [
        {
          "internalType": "uint256",
          "name": "",
          "type": "uint256"
        }
      ],
      "stateMutability": "view",
      "type": "function"
    },
    {
      "inputs": [
        {
          "internalType": "uint256",
          "name": "",
          "type": "uint256"
        }
      ],
      "name": "beverages",
      "outputs": [
        {
          "internalType": "uint256",
          "name": "beverageIndex",
          "type": "uint256"
        },
        {
          "internalType": "string",
          "name": "name",
          "type": "string"
        },
        {
          "internalType": "string",
          "name": "imageURI",
          "type": "string"
        },
        {
          "internalType": "uint256",
          "name": "hp",
          "type": "uint256"
        },
        {
          "internalType": "uint256",
          "name": "maxHp",
          "type": "uint256"
        },
        {
          "internalType": "uint256",
          "name": "attackDamage",
          "type": "uint256"
        }
      ],
      "stateMutability": "view",
      "type": "function"
    },
    {
      "inputs": [],
      "name": "checkIfUserHasNFT",
      "outputs": [
        {
          "components": [
            {
              "internalType": "uint256",
              "name": "characterIndex",
              "type": "uint256"
            },
            {
              "internalType": "string",
              "name": "name",
              "type": "string"
            },
            {
              "internalType": "string",
              "name": "imageURI",
              "type": "string"
            },
            {
              "internalType": "uint256",
              "name": "hp",
              "type": "uint256"
            },
            {
              "internalType": "uint256",
              "name": "maxHp",
              "type": "uint256"
            },
            {
              "internalType": "uint256",
              "name": "attackDamage",
              "type": "uint256"
            }
          ],
          "internalType": "struct MyEpicGame.CharacterAttributes",
          "name": "",
          "type": "tuple"
        }
      ],
      "stateMutability": "view",
      "type": "function"
    },
    {
      "inputs": [],
      "name": "getAllDefaultCharacters",
      "outputs": [
        {
          "components": [
            {
              "internalType": "uint256",
              "name": "characterIndex",
              "type": "uint256"
            },
            {
              "internalType": "string",
              "name": "name",
              "type": "string"
            },
            {
              "internalType": "string",
              "name": "imageURI",
              "type": "string"
            },
            {
              "internalType": "uint256",
              "name": "hp",
              "type": "uint256"
            },
            {
              "internalType": "uint256",
              "name": "maxHp",
              "type": "uint256"
            },
            {
              "internalType": "uint256",
              "name": "attackDamage",
              "type": "uint256"
            }
          ],
          "internalType": "struct MyEpicGame.CharacterAttributes[]",
          "name": "",
          "type": "tuple[]"
        }
      ],
      "stateMutability": "view",
      "type": "function"
    },
    {
      "inputs": [
        {
          "internalType": "uint256",
          "name": "tokenId",
          "type": "uint256"
        }
      ],
      "name": "getApproved",
      "outputs": [
        {
          "internalType": "address",
          "name": "",
          "type": "address"
        }
      ],
      "stateMutability": "view",
      "type": "function"
    },
    {
      "inputs": [
        {
          "internalType": "uint256",
          "name": "index",
          "type": "uint256"
        }
      ],
      "name": "getBeverage",
      "outputs": [
        {
          "components": [
            {
              "internalType": "uint256",
              "name": "beverageIndex",
              "type": "uint256"
            },
            {
              "internalType": "string",
              "name": "name",
              "type": "string"
            },
            {
              "internalType": "string",
              "name": "imageURI",
              "type": "string"
            },
            {
              "internalType": "uint256",
              "name": "hp",
              "type": "uint256"
            },
            {
              "internalType": "uint256",
              "name": "maxHp",
              "type": "uint256"
            },
            {
              "internalType": "uint256",
              "name": "attackDamage",
              "type": "uint256"
            }
          ],
          "internalType": "struct MyEpicGame.Beverage",
          "name": "",
          "type": "tuple"
        }
      ],
      "stateMutability": "view",
      "type": "function"
    },
    {
      "inputs": [
        {
          "internalType": "address",
          "name": "owner",
          "type": "address"
        },
        {
          "internalType": "address",
          "name": "operator",
          "type": "address"
        }
      ],
      "name": "isApprovedForAll",
      "outputs": [
        {
          "internalType": "bool",
          "name": "",
          "type": "bool"
        }
      ],
      "stateMutability": "view",
      "type": "function"
    },
    {
      "inputs": [
        {
          "internalType": "uint256",
          "name": "_characterIndex",
          "type": "uint256"
        }
      ],
      "name": "mintCharacterNFT",
      "outputs": [],
      "stateMutability": "nonpayable",
      "type": "function"
    },
    {
      "inputs": [],
      "name": "name",
      "outputs": [
        {
          "internalType": "string",
          "name": "",
          "type": "string"
        }
      ],
      "stateMutability": "view",
      "type": "function"
    },
    {
      "inputs": [
        {
          "internalType": "uint256",
          "name": "",
          "type": "uint256"
        }
      ],
      "name": "nftHolderAttributes",
      "outputs": [
        {
          "internalType": "uint256",
          "name": "characterIndex",
          "type": "uint256"
        },
        {
          "internalType": "string",
          "name": "name",
          "type": "string"
        },
        {
          "internalType": "string",
          "name": "imageURI",
          "type": "string"
        },
        {
          "internalType": "uint256",
          "name": "hp",
          "type": "uint256"
        },
        {
          "internalType": "uint256",
          "name": "maxHp",
          "type": "uint256"
        },
        {
          "internalType": "uint256",
          "name": "attackDamage",
          "type": "uint256"
        }
      ],
      "stateMutability": "view",
      "type": "function"
    },
    {
      "inputs": [
        {
          "internalType": "address",
          "name": "",
          "type": "address"
        }
      ],
      "name": "nftHolders",
      "outputs": [
        {
          "internalType": "uint256",
          "name": "",
          "type": "uint256"
        }
      ],
      "stateMutability": "view",
      "type": "function"
    },
    {
      "inputs": [
        {
          "internalType": "uint256",
          "name": "tokenId",
          "type": "uint256"
        }
      ],
      "name": "ownerOf",
      "outputs": [
        {
          "internalType": "address",
          "name": "",
          "type": "address"
        }
      ],
      "stateMutability": "view",
      "type": "function"
    },
    {
      "inputs": [
        {
          "internalType": "address",
          "name": "from",
          "type": "address"
        },
        {
          "internalType": "address",
          "name": "to",
          "type": "address"
        },
        {
          "internalType": "uint256",
          "name": "tokenId",
          "type": "uint256"
        }
      ],
      "name": "safeTransferFrom",
      "outputs": [],
      "stateMutability": "nonpayable",
      "type": "function"
    },
    {
      "inputs": [
        {
          "internalType": "address",
          "name": "from",
          "type": "address"
        },
        {
          "internalType": "address",
          "name": "to",
          "type": "address"
        },
        {
          "internalType": "uint256",
          "name": "tokenId",
          "type": "uint256"
        },
        {
          "internalType": "bytes",
          "name": "data",
          "type": "bytes"
        }
      ],
      "name": "safeTransferFrom",
      "outputs": [],
      "stateMutability": "nonpayable",
      "type": "function"
    },
    {
      "inputs": [
        {
          "internalType": "address",
          "name": "operator",
          "type": "address"
        },
        {
          "internalType": "bool",
          "name": "approved",
          "type": "bool"
        }
      ],
      "name": "setApprovalForAll",
      "outputs": [],
      "stateMutability": "nonpayable",
      "type": "function"
    },
    {
      "inputs": [
        {
          "internalType": "bytes4",
          "name": "interfaceId",
          "type": "bytes4"
        }
      ],
      "name": "supportsInterface",
      "outputs": [
        {
          "internalType": "bool",
          "name": "",
          "type": "bool"
        }
      ],
      "stateMutability": "view",
      "type": "function"
    },
    {
      "inputs": [],
      "name": "symbol",
      "outputs": [
        {
          "internalType": "string",
          "name": "",
          "type": "string"
        }
      ],
      "stateMutability": "view",
      "type": "function"
    },
    {
      "inputs": [
        {
          "internalType": "uint256",
          "name": "_tokenId",
          "type": "uint256"
        }
      ],
      "name": "tokenURI",
      "outputs": [
        {
          "internalType": "string",
          "name": "",
          "type": "string"
        }
      ],
      "stateMutability": "view",
      "type": "function"
    },
    {
      "inputs": [
        {
          "internalType": "address",
          "name": "from",
          "type": "address"
        },
        {
          "internalType": "address",
          "name": "to",
          "type": "address"
        },
        {
          "internalType": "uint256",
          "name": "tokenId",
          "type": "uint256"
        }
      ],
      "name": "transferFrom",
      "outputs": [],
      "stateMutability": "nonpayable",
      "type": "function"
    }
  ],
  "bytecode": "0x60806040523480156200001157600080fd5b5060405162005f5f38038062005f5f833981810160405281019062000037919062000c28565b6040518060400160405280600881526020017f4f6e6570696563650000000000000000000000000000000000000000000000008152506040518060400160405280600881526020017f4f4e4550494543450000000000000000000000000000000000000000000000008152508160009081620000b491906200102a565b508060019081620000c691906200102a565b50505060005b8851811015620003ff5760086040518060c001604052808381526020018b8481518110620000ff57620000fe62001111565b5b602002602001015181526020018a848151811062000122576200012162001111565b5b6020026020010151815260200189848151811062000145576200014462001111565b5b6020026020010151815260200189848151811062000168576200016762001111565b5b602002602001015181526020018884815181106200018b576200018a62001111565b5b60200260200101518152509080600181540180825580915050600190039060005260206000209060060201600090919091909150600082015181600001556020820151816001019081620001e091906200102a565b506040820151816002019081620001f891906200102a565b50606082015181600301556080820151816004015560a08201518160050155505060006008828154811062000232576200023162001111565b5b90600052602060002090600602016040518060c001604052908160008201548152602001600182018054620002679062000e23565b80601f0160208091040260200160405190810160405280929190818152602001828054620002959062000e23565b8015620002e65780601f10620002ba57610100808354040283529160200191620002e6565b820191906000526020600020905b815481529060010190602001808311620002c857829003601f168201915b50505050508152602001600282018054620003019062000e23565b80601f01602080910402602001604051908101604052809291908181526020018280546200032f9062000e23565b8015620003805780601f10620003545761010080835404028352916020019162000380565b820191906000526020600020905b8154815290600101906020018083116200036257829003601f168201915b5050505050815260200160038201548152602001600482015481526020016005820154815250509050620003e760405180606001604052806025815260200162005f3a602591398260200151836060015184604001516200075c60201b62001c941760201c565b50600181620003f791906200116f565b9050620000cc565b506200041760076200080860201b62001d361760201c565b60005b84518110156200074d5760066040518060c001604052808381526020018784815181106200044d576200044c62001111565b5b6020026020010151815260200186848151811062000470576200046f62001111565b5b6020026020010151815260200185848151811062000493576200049262001111565b5b60200260200101518152602001858481518110620004b657620004b562001111565b5b60200260200101518152602001848481518110620004d957620004d862001111565b5b602002602001015181525090806001815401808255809150506001900390600052602060002090600602016000909190919091506000820151816000015560208201518160010190816200052e91906200102a565b5060408201518160020190816200054691906200102a565b50606082015181600301556080820151816004015560a08201518160050155505060006006828154811062000580576200057f62001111565b5b90600052602060002090600602016040518060c001604052908160008201548152602001600182018054620005b59062000e23565b80601f0160208091040260200160405190810160405280929190818152602001828054620005e39062000e23565b8015620006345780601f10620006085761010080835404028352916020019162000634565b820191906000526020600020905b8154815290600101906020018083116200061657829003601f168201915b505050505081526020016002820180546200064f9062000e23565b80601f01602080910402602001604051908101604052809291908181526020018280546200067d9062000e23565b8015620006ce5780601f10620006a257610100808354040283529160200191620006ce565b820191906000526020600020905b815481529060010190602001808311620006b057829003601f168201915b50505050508152602001600382015481526020016004820154815260200160058201548152505090506200073560405180606001604052806025815260200162005f3a602591398260200151836060015184604001516200075c60201b62001c941760201c565b506001816200074591906200116f565b90506200041a565b5050505050505050506200129e565b62000802848484846040516024016200077994939291906200120d565b6040516020818303038152906040527f5d1a971a000000000000000000000000000000000000000000000000000000007bffffffffffffffffffffffffffffffffffffffffffffffffffffffff19166020820180517bffffffffffffffffffffffffffffffffffffffffffffffffffffffff83818316178352505050506200081e60201b60201c565b50505050565b6001816000016000828254019250508190555050565b62000844816200083f6200084760201b62001d4c176200086860201b60201c565b60201c565b50565b60006a636f6e736f6c652e6c6f679050600080835160208501845afa505050565b6200087c60201b62002ecb17819050919050565b620008866200126f565b565b6000604051905090565b600080fd5b600080fd5b600080fd5b6000601f19601f8301169050919050565b7f4e487b7100000000000000000000000000000000000000000000000000000000600052604160045260246000fd5b620008ec82620008a1565b810181811067ffffffffffffffff821117156200090e576200090d620008b2565b5b80604052505050565b60006200092362000888565b9050620009318282620008e1565b919050565b600067ffffffffffffffff821115620009545762000953620008b2565b5b602082029050602081019050919050565b600080fd5b600080fd5b600067ffffffffffffffff8211156200098d576200098c620008b2565b5b6200099882620008a1565b9050602081019050919050565b60005b83811015620009c5578082015181840152602081019050620009a8565b60008484015250505050565b6000620009e8620009e2846200096f565b62000917565b90508281526020810184848401111562000a075762000a066200096a565b5b62000a14848285620009a5565b509392505050565b600082601f83011262000a345762000a336200089c565b5b815162000a46848260208601620009d1565b91505092915050565b600062000a6662000a608462000936565b62000917565b9050808382526020820190506020840283018581111562000a8c5762000a8b62000965565b5b835b8181101562000ada57805167ffffffffffffffff81111562000ab55762000ab46200089c565b5b80860162000ac4898262000a1c565b8552602085019450505060208101905062000a8e565b5050509392505050565b600082601f83011262000afc5762000afb6200089c565b5b815162000b0e84826020860162000a4f565b91505092915050565b600067ffffffffffffffff82111562000b355762000b34620008b2565b5b602082029050602081019050919050565b6000819050919050565b62000b5b8162000b46565b811462000b6757600080fd5b50565b60008151905062000b7b8162000b50565b92915050565b600062000b9862000b928462000b17565b62000917565b9050808382526020820190506020840283018581111562000bbe5762000bbd62000965565b5b835b8181101562000beb578062000bd6888262000b6a565b84526020840193505060208101905062000bc0565b5050509392505050565b600082601f83011262000c0d5762000c0c6200089c565b5b815162000c1f84826020860162000b81565b91505092915050565b600080600080600080600080610100898b03121562000c4c5762000c4b62000892565b5b600089015167ffffffffffffffff81111562000c6d5762000c6c62000897565b5b62000c7b8b828c0162000ae4565b985050602089015167ffffffffffffffff81111562000c9f5762000c9e62000897565b5b62000cad8b828c0162000ae4565b975050604089015167ffffffffffffffff81111562000cd15762000cd062000897565b5b62000cdf8b828c0162000bf5565b965050606089015167ffffffffffffffff81111562000d035762000d0262000897565b5b62000d118b828c0162000bf5565b955050608089015167ffffffffffffffff81111562000d355762000d3462000897565b5b62000d438b828c0162000ae4565b94505060a089015167ffffffffffffffff81111562000d675762000d6662000897565b5b62000d758b828c0162000ae4565b93505060c089015167ffffffffffffffff81111562000d995762000d9862000897565b5b62000da78b828c0162000bf5565b92505060e089015167ffffffffffffffff81111562000dcb5762000dca62000897565b5b62000dd98b828c0162000bf5565b9150509295985092959890939650565b600081519050919050565b7f4e487b7100000000000000000000000000000000000000000000000000000000600052602260045260246000fd5b6000600282049050600182168062000e3c57607f821691505b60208210810362000e525762000e5162000df4565b5b50919050565b60008190508160005260206000209050919050565b60006020601f8301049050919050565b600082821b905092915050565b60006008830262000ebc7fffffffffffffffffffffffffffffffffffffffffffffffffffffffffffffffff8262000e7d565b62000ec8868362000e7d565b95508019841693508086168417925050509392505050565b6000819050919050565b600062000f0b62000f0562000eff8462000b46565b62000ee0565b62000b46565b9050919050565b6000819050919050565b62000f278362000eea565b62000f3f62000f368262000f12565b84845462000e8a565b825550505050565b600090565b62000f5662000f47565b62000f6381848462000f1c565b505050565b5b8181101562000f8b5762000f7f60008262000f4c565b60018101905062000f69565b5050565b601f82111562000fda5762000fa48162000e58565b62000faf8462000e6d565b8101602085101562000fbf578190505b62000fd762000fce8562000e6d565b83018262000f68565b50505b505050565b600082821c905092915050565b600062000fff6000198460080262000fdf565b1980831691505092915050565b60006200101a838362000fec565b9150826002028217905092915050565b620010358262000de9565b67ffffffffffffffff811115620010515762001050620008b2565b5b6200105d825462000e23565b6200106a82828562000f8f565b600060209050601f831160018114620010a257600084156200108d578287015190505b6200109985826200100c565b86555062001109565b601f198416620010b28662000e58565b60005b82811015620010dc57848901518255600182019150602085019450602081019050620010b5565b86831015620010fc5784890151620010f8601f89168262000fec565b8355505b6001600288020188555050505b505050505050565b7f4e487b7100000000000000000000000000000000000000000000000000000000600052603260045260246000fd5b7f4e487b7100000000000000000000000000000000000000000000000000000000600052601160045260246000fd5b60006200117c8262000b46565b9150620011898362000b46565b9250828201905080821115620011a457620011a362001140565b5b92915050565b600082825260208201905092915050565b6000620011c88262000de9565b620011d48185620011aa565b9350620011e6818560208601620009a5565b620011f181620008a1565b840191505092915050565b620012078162000b46565b82525050565b60006080820190508181036000830152620012298187620011bb565b905081810360208301526200123f8186620011bb565b9050620012506040830185620011fc565b8181036060830152620012648184620011bb565b905095945050505050565b7f4e487b7100000000000000000000000000000000000000000000000000000000600052605160045260246000fd5b614c8c80620012ae6000396000f3fe608060405234801561001057600080fd5b50600436106101375760003560e01c80637df124a1116100b8578063b953084e1161007c578063b953084e1461038e578063c87b56dd146103ac578063c8cf27f4146103dc578063d4f24c5b146103fa578063e985e9c514610404578063f8b81ef71461043457610137565b80637df124a1146102d357806395d89b411461030357806398da4c9514610321578063a22cb46514610356578063b88d4fde1461037257610137565b806323b872dd116100ff57806323b872dd1461020657806342842e0e14610222578063523f17b81461023e5780636352211e1461027357806370a08231146102a357610137565b806301eab11a1461013c57806301ffc9a71461016c57806306fdde031461019c578063081812fc146101ba578063095ea7b3146101ea575b600080fd5b61015660048036038101906101519190612f8b565b610450565b60405161016391906130e7565b60405180910390f35b61018660048036038101906101819190613161565b61061f565b60405161019391906131a9565b60405180910390f35b6101a4610701565b6040516101b1919061320e565b60405180910390f35b6101d460048036038101906101cf9190612f8b565b610793565b6040516101e19190613271565b60405180910390f35b61020460048036038101906101ff91906132b8565b6107d9565b005b610220600480360381019061021b91906132f8565b6108f0565b005b61023c600480360381019061023791906132f8565b610950565b005b61025860048036038101906102539190612f8b565b610970565b60405161026a9695949392919061335a565b60405180910390f35b61028d60048036038101906102889190612f8b565b610acc565b60405161029a9190613271565b60405180910390f35b6102bd60048036038101906102b891906133c9565b610b52565b6040516102ca91906133f6565b60405180910390f35b6102ed60048036038101906102e891906133c9565b610c09565b6040516102fa91906133f6565b60405180910390f35b61030b610c21565b604051610318919061320e565b60405180910390f35b61033b60048036038101906103369190612f8b565b610cb3565b60405161034d9695949392919061335a565b60405180910390f35b610370600480360381019061036b919061343d565b610dff565b005b61038c600480360381019061038791906135b2565b610e15565b005b610396610e77565b6040516103a39190613787565b60405180910390f35b6103c660048036038101906103c19190612f8b565b611022565b6040516103d3919061320e565b60405180910390f35b6103e461123d565b6040516103f19190613839565b60405180910390f35b610402611415565b005b61041e6004803603810190610419919061385b565b6118d8565b60405161042b91906131a9565b60405180910390f35b61044e60048036038101906104499190612f8b565b61196c565b005b610458612ed5565b600680549050821061049f576040517f08c379a0000000000000000000000000000000000000000000000000000000008152600401610496906138e7565b60405180910390fd5b600682815481106104b3576104b2613907565b5b90600052602060002090600602016040518060c0016040529081600082015481526020016001820180546104e690613965565b80601f016020809104026020016040519081016040528092919081815260200182805461051290613965565b801561055f5780601f106105345761010080835404028352916020019161055f565b820191906000526020600020905b81548152906001019060200180831161054257829003601f168201915b5050505050815260200160028201805461057890613965565b80601f01602080910402602001604051908101604052809291908181526020018280546105a490613965565b80156105f15780601f106105c6576101008083540402835291602001916105f1565b820191906000526020600020905b8154815290600101906020018083116105d457829003601f168201915b5050505050815260200160038201548152602001600482015481526020016005820154815250509050919050565b60007f80ac58cd000000000000000000000000000000000000000000000000000000007bffffffffffffffffffffffffffffffffffffffffffffffffffffffff1916827bffffffffffffffffffffffffffffffffffffffffffffffffffffffff191614806106ea57507f5b5e139f000000000000000000000000000000000000000000000000000000007bffffffffffffffffffffffffffffffffffffffffffffffffffffffff1916827bffffffffffffffffffffffffffffffffffffffffffffffffffffffff1916145b806106fa57506106f982611d6d565b5b9050919050565b60606000805461071090613965565b80601f016020809104026020016040519081016040528092919081815260200182805461073c90613965565b80156107895780601f1061075e57610100808354040283529160200191610789565b820191906000526020600020905b81548152906001019060200180831161076c57829003601f168201915b5050505050905090565b600061079e82611dd7565b6004600083815260200190815260200160002060009054906101000a900473ffffffffffffffffffffffffffffffffffffffff169050919050565b60006107e482610acc565b90508073ffffffffffffffffffffffffffffffffffffffff168373ffffffffffffffffffffffffffffffffffffffff1603610854576040517f08c379a000000000000000000000000000000000000000000000000000000000815260040161084b90613a08565b60405180910390fd5b8073ffffffffffffffffffffffffffffffffffffffff16610873611e22565b73ffffffffffffffffffffffffffffffffffffffff1614806108a257506108a18161089c611e22565b6118d8565b5b6108e1576040517f08c379a00000000000000000000000000000000000000000000000000000000081526004016108d890613a9a565b60405180910390fd5b6108eb8383611e2a565b505050565b6109016108fb611e22565b82611ee3565b610940576040517f08c379a000000000000000000000000000000000000000000000000000000000815260040161093790613b2c565b60405180910390fd5b61094b838383611f78565b505050565b61096b83838360405180602001604052806000815250610e15565b505050565b6006818154811061098057600080fd5b90600052602060002090600602016000915090508060000154908060010180546109a990613965565b80601f01602080910402602001604051908101604052809291908181526020018280546109d590613965565b8015610a225780601f106109f757610100808354040283529160200191610a22565b820191906000526020600020905b815481529060010190602001808311610a0557829003601f168201915b505050505090806002018054610a3790613965565b80601f0160208091040260200160405190810160405280929190818152602001828054610a6390613965565b8015610ab05780601f10610a8557610100808354040283529160200191610ab0565b820191906000526020600020905b815481529060010190602001808311610a9357829003601f168201915b5050505050908060030154908060040154908060050154905086565b600080610ad883612271565b9050600073ffffffffffffffffffffffffffffffffffffffff168173ffffffffffffffffffffffffffffffffffffffff1603610b49576040517f08c379a0000000000000000000000000000000000000000000000000000000008152600401610b4090613b98565b60405180910390fd5b80915050919050565b60008073ffffffffffffffffffffffffffffffffffffffff168273ffffffffffffffffffffffffffffffffffffffff1603610bc2576040517f08c379a0000000000000000000000000000000000000000000000000000000008152600401610bb990613c2a565b60405180910390fd5b600360008373ffffffffffffffffffffffffffffffffffffffff1673ffffffffffffffffffffffffffffffffffffffff168152602001908152602001600020549050919050565b600a6020528060005260406000206000915090505481565b606060018054610c3090613965565b80601f0160208091040260200160405190810160405280929190818152602001828054610c5c90613965565b8015610ca95780601f10610c7e57610100808354040283529160200191610ca9565b820191906000526020600020905b815481529060010190602001808311610c8c57829003601f168201915b5050505050905090565b6009602052806000526040600020600091509050806000015490806001018054610cdc90613965565b80601f0160208091040260200160405190810160405280929190818152602001828054610d0890613965565b8015610d555780601f10610d2a57610100808354040283529160200191610d55565b820191906000526020600020905b815481529060010190602001808311610d3857829003601f168201915b505050505090806002018054610d6a90613965565b80601f0160208091040260200160405190810160405280929190818152602001828054610d9690613965565b8015610de35780601f10610db857610100808354040283529160200191610de3565b820191906000526020600020905b815481529060010190602001808311610dc657829003601f168201915b5050505050908060030154908060040154908060050154905086565b610e11610e0a611e22565b83836122ae565b5050565b610e26610e20611e22565b83611ee3565b610e65576040517f08c379a0000000000000000000000000000000000000000000000000000000008152600401610e5c90613b2c565b60405180910390fd5b610e718484848461241a565b50505050565b60606008805480602002602001604051908101604052809291908181526020016000905b8282101561101957838290600052602060002090600602016040518060c001604052908160008201548152602001600182018054610ed890613965565b80601f0160208091040260200160405190810160405280929190818152602001828054610f0490613965565b8015610f515780601f10610f2657610100808354040283529160200191610f51565b820191906000526020600020905b815481529060010190602001808311610f3457829003601f168201915b50505050508152602001600282018054610f6a90613965565b80601f0160208091040260200160405190810160405280929190818152602001828054610f9690613965565b8015610fe35780601f10610fb857610100808354040283529160200191610fe3565b820191906000526020600020905b815481529060010190602001808311610fc657829003601f168201915b50505050508152602001600382015481526020016004820154815260200160058201548152505081526020019060010190610e9b565b50505050905090565b60606000600960008481526020019081526020016000206040518060c00160405290816000820154815260200160018201805461105e90613965565b80601f016020809104026020016040519081016040528092919081815260200182805461108a90613965565b80156110d75780601f106110ac576101008083540402835291602001916110d7565b820191906000526020600020905b8154815290600101906020018083116110ba57829003601f168201915b505050505081526020016002820180546110f090613965565b80601f016020809104026020016040519081016040528092919081815260200182805461111c90613965565b80156111695780601f1061113e57610100808354040283529160200191611169565b820191906000526020600020905b81548152906001019060200180831161114c57829003601f168201915b505050505081526020016003820154815260200160048201548152602001600582015481525050905060006111a18260600151612476565b905060006111b28360800151612476565b905060006111c38460a00151612476565b9050600061120985602001516111d889612476565b87604001518787876040516020016111f596959493929190613f58565b604051602081830303815290604052612544565b905060008160405160200161121e9190614049565b6040516020818303038152906040529050809650505050505050919050565b611245612f0b565b6000600a60003373ffffffffffffffffffffffffffffffffffffffff1673ffffffffffffffffffffffffffffffffffffffff168152602001908152602001600020549050600081111561140457600960008281526020019081526020016000206040518060c0016040529081600082015481526020016001820180546112ca90613965565b80601f01602080910402602001604051908101604052809291908181526020018280546112f690613965565b80156113435780601f1061131857610100808354040283529160200191611343565b820191906000526020600020905b81548152906001019060200180831161132657829003601f168201915b5050505050815260200160028201805461135c90613965565b80601f016020809104026020016040519081016040528092919081815260200182805461138890613965565b80156113d55780601f106113aa576101008083540402835291602001916113d5565b820191906000526020600020905b8154815290600101906020018083116113b857829003601f168201915b505050505081526020016003820154815260200160048201548152602001600582015481525050915050611412565b61140c612f0b565b80925050505b90565b6000600a60003373ffffffffffffffffffffffffffffffffffffffff1673ffffffffffffffffffffffffffffffffffffffff16815260200190815260200160002054905060006009600083815260200190815260200160002090506000806006828154811061148757611486613907565b5b90600052602060002090600602016040518060c0016040529081600082015481526020016001820180546114ba90613965565b80601f01602080910402602001604051908101604052809291908181526020018280546114e690613965565b80156115335780601f1061150857610100808354040283529160200191611533565b820191906000526020600020905b81548152906001019060200180831161151657829003601f168201915b5050505050815260200160028201805461154c90613965565b80601f016020809104026020016040519081016040528092919081815260200182805461157890613965565b80156115c55780601f1061159a576101008083540402835291602001916115c5565b820191906000526020600020905b8154815290600101906020018083116115a857829003601f168201915b50505050508152602001600382015481526020016004820154815260200160058201548152505090506116a66040518060600160405280603c8152602001614c1b603c913984600101805461161990613965565b80601f016020809104026020016040519081016040528092919081815260200182805461164590613965565b80156116925780601f1061166757610100808354040283529160200191611692565b820191906000526020600020905b81548152906001019060200180831161167557829003601f168201915b5050505050856003015486600501546126db565b6116f36040518060400160405280601b81526020017f426f73732025732068617320257320485020616e642025732041440000000000815250826020015183606001518460a001516126db565b600083600301541161173a576040517f08c379a0000000000000000000000000000000000000000000000000000000008152600401611731906140dd565b60405180910390fd5b6000816060015111611781576040517f08c379a00000000000000000000000000000000000000000000000000000000081526004016117789061416f565b60405180910390fd5b80606001518360030154116117cb576040517f08c379a00000000000000000000000000000000000000000000000000000000081526004016117c290614201565b60405180910390fd5b8260030154816060015110156117eb576000816060018181525050611809565b826005015481606001516117ff9190614250565b8160600181815250505b8060a00151836003015410156118285760008360030181905550611845565b8060a00151836003015461183c9190614250565b83600301819055505b61186b604051806060016040528060258152602001614b6060259139826060015161277d565b611891604051806060016040528060288152602001614bf360289139846003015461277d565b7f838ab28464562786a6c4ab2311964b82fa60bd9b14aa7e856af1f3f18d41a414816060015184600301546040516118ca929190614284565b60405180910390a150505050565b6000600560008473ffffffffffffffffffffffffffffffffffffffff1673ffffffffffffffffffffffffffffffffffffffff16815260200190815260200160002060008373ffffffffffffffffffffffffffffffffffffffff1673ffffffffffffffffffffffffffffffffffffffff16815260200190815260200160002060009054906101000a900460ff16905092915050565b60006119786007612819565b90506119843382612827565b6040518060c00160405280838152602001600884815481106119a9576119a8613907565b5b906000526020600020906006020160010180546119c590613965565b80601f01602080910402602001604051908101604052809291908181526020018280546119f190613965565b8015611a3e5780601f10611a1357610100808354040283529160200191611a3e565b820191906000526020600020905b815481529060010190602001808311611a2157829003601f168201915b5050505050815260200160088481548110611a5c57611a5b613907565b5b90600052602060002090600602016002018054611a7890613965565b80601f0160208091040260200160405190810160405280929190818152602001828054611aa490613965565b8015611af15780601f10611ac657610100808354040283529160200191611af1565b820191906000526020600020905b815481529060010190602001808311611ad457829003601f168201915b5050505050815260200160088481548110611b0f57611b0e613907565b5b906000526020600020906006020160030154815260200160088481548110611b3a57611b39613907565b5b906000526020600020906006020160040154815260200160088481548110611b6557611b64613907565b5b90600052602060002090600602016005015481525060096000838152602001908152602001600020600082015181600001556020820151816001019081611bac9190614459565b506040820151816002019081611bc29190614459565b50606082015181600301556080820151816004015560a08201518160050155905050611c076040518060600160405280602e8152602001614bc5602e91398284612845565b80600a60003373ffffffffffffffffffffffffffffffffffffffff1673ffffffffffffffffffffffffffffffffffffffff16815260200190815260200160002081905550611c556007611d36565b7f4bc303fd457a97b4691b9af582ce71868a3d258638c8d4f8c60988a0f0bfb8cd338284604051611c889392919061452b565b60405180910390a15050565b611d3084848484604051602401611cae9493929190614562565b6040516020818303038152906040527f5d1a971a000000000000000000000000000000000000000000000000000000007bffffffffffffffffffffffffffffffffffffffffffffffffffffffff19166020820180517bffffffffffffffffffffffffffffffffffffffffffffffffffffffff83818316178352505050506128e4565b50505050565b6001816000016000828254019250508190555050565b60006a636f6e736f6c652e6c6f679050600080835160208501845afa505050565b60007f01ffc9a7000000000000000000000000000000000000000000000000000000007bffffffffffffffffffffffffffffffffffffffffffffffffffffffff1916827bffffffffffffffffffffffffffffffffffffffffffffffffffffffff1916149050919050565b611de0816128fe565b611e1f576040517f08c379a0000000000000000000000000000000000000000000000000000000008152600401611e1690613b98565b60405180910390fd5b50565b600033905090565b816004600083815260200190815260200160002060006101000a81548173ffffffffffffffffffffffffffffffffffffffff021916908373ffffffffffffffffffffffffffffffffffffffff160217905550808273ffffffffffffffffffffffffffffffffffffffff16611e9d83610acc565b73ffffffffffffffffffffffffffffffffffffffff167f8c5be1e5ebec7d5bd14f71427d1e84f3dd0314c0f7b2291e5b200ac8c7c3b92560405160405180910390a45050565b600080611eef83610acc565b90508073ffffffffffffffffffffffffffffffffffffffff168473ffffffffffffffffffffffffffffffffffffffff161480611f315750611f3081856118d8565b5b80611f6f57508373ffffffffffffffffffffffffffffffffffffffff16611f5784610793565b73ffffffffffffffffffffffffffffffffffffffff16145b91505092915050565b8273ffffffffffffffffffffffffffffffffffffffff16611f9882610acc565b73ffffffffffffffffffffffffffffffffffffffff1614611fee576040517f08c379a0000000000000000000000000000000000000000000000000000000008152600401611fe59061462e565b60405180910390fd5b600073ffffffffffffffffffffffffffffffffffffffff168273ffffffffffffffffffffffffffffffffffffffff160361205d576040517f08c379a0000000000000000000000000000000000000000000000000000000008152600401612054906146c0565b60405180910390fd5b61206a838383600161293f565b8273ffffffffffffffffffffffffffffffffffffffff1661208a82610acc565b73ffffffffffffffffffffffffffffffffffffffff16146120e0576040517f08c379a00000000000000000000000000000000000000000000000000000000081526004016120d79061462e565b60405180910390fd5b6004600082815260200190815260200160002060006101000a81549073ffffffffffffffffffffffffffffffffffffffff02191690556001600360008573ffffffffffffffffffffffffffffffffffffffff1673ffffffffffffffffffffffffffffffffffffffff168152602001908152602001600020600082825403925050819055506001600360008473ffffffffffffffffffffffffffffffffffffffff1673ffffffffffffffffffffffffffffffffffffffff16815260200190815260200160002060008282540192505081905550816002600083815260200190815260200160002060006101000a81548173ffffffffffffffffffffffffffffffffffffffff021916908373ffffffffffffffffffffffffffffffffffffffff160217905550808273ffffffffffffffffffffffffffffffffffffffff168473ffffffffffffffffffffffffffffffffffffffff167fddf252ad1be2c89b69c2b068fc378daa952ba7f163c4a11628f55a4df523b3ef60405160405180910390a461226c8383836001612945565b505050565b60006002600083815260200190815260200160002060009054906101000a900473ffffffffffffffffffffffffffffffffffffffff169050919050565b8173ffffffffffffffffffffffffffffffffffffffff168373ffffffffffffffffffffffffffffffffffffffff160361231c576040517f08c379a00000000000000000000000000000000000000000000000000000000081526004016123139061472c565b60405180910390fd5b80600560008573ffffffffffffffffffffffffffffffffffffffff1673ffffffffffffffffffffffffffffffffffffffff16815260200190815260200160002060008473ffffffffffffffffffffffffffffffffffffffff1673ffffffffffffffffffffffffffffffffffffffff16815260200190815260200160002060006101000a81548160ff0219169083151502179055508173ffffffffffffffffffffffffffffffffffffffff168373ffffffffffffffffffffffffffffffffffffffff167f17307eab39ab6107e8899845ad3d59bd9653f200f220920489ca2b5937696c318360405161240d91906131a9565b60405180910390a3505050565b612425848484611f78565b6124318484848461294b565b612470576040517f08c379a0000000000000000000000000000000000000000000000000000000008152600401612467906147be565b60405180910390fd5b50505050565b60606000600161248584612ad2565b01905060008167ffffffffffffffff8111156124a4576124a3613487565b5b6040519080825280601f01601f1916602001820160405280156124d65781602001600182028036833780820191505090505b509050600082602001820190505b600115612539578080600190039150507f3031323334353637383961626364656600000000000000000000000000000000600a86061a8153600a858161252d5761252c6147de565b5b049450600085036124e4575b819350505050919050565b60606000825190506000810361256c57604051806020016040528060008152509150506126d6565b6000600360028361257d919061480d565b6125879190614841565b60046125939190614872565b905060006020826125a4919061480d565b67ffffffffffffffff8111156125bd576125bc613487565b5b6040519080825280601f01601f1916602001820160405280156125ef5781602001600182028036833780820191505090505b5090506000604051806060016040528060408152602001614b85604091399050600181016020830160005b868110156126935760038101905062ffffff818a015116603f8160121c168401518060081b905060ff603f83600c1c1686015116810190508060081b905060ff603f8360061c1686015116810190508060081b905060ff603f831686015116810190508060e01b9050808452600484019350505061261a565b5060038606600181146126ad57600281146126bd576126c8565b613d3d60f01b60028303526126c8565b603d60f81b60018303525b508484525050819450505050505b919050565b612777848484846040516024016126f594939291906148b4565b6040516020818303038152906040527ff45d7d2c000000000000000000000000000000000000000000000000000000007bffffffffffffffffffffffffffffffffffffffffffffffffffffffff19166020820180517bffffffffffffffffffffffffffffffffffffffffffffffffffffffff83818316178352505050506128e4565b50505050565b6128158282604051602401612793929190614907565b6040516020818303038152906040527fb60e72cc000000000000000000000000000000000000000000000000000000007bffffffffffffffffffffffffffffffffffffffffffffffffffffffff19166020820180517bffffffffffffffffffffffffffffffffffffffffffffffffffffffff83818316178352505050506128e4565b5050565b600081600001549050919050565b612841828260405180602001604052806000815250612c25565b5050565b6128df83838360405160240161285d93929190614937565b6040516020818303038152906040527fca47c4eb000000000000000000000000000000000000000000000000000000007bffffffffffffffffffffffffffffffffffffffffffffffffffffffff19166020820180517bffffffffffffffffffffffffffffffffffffffffffffffffffffffff83818316178352505050506128e4565b505050565b6128fb816128f3611d4c612c80565b63ffffffff16565b50565b60008073ffffffffffffffffffffffffffffffffffffffff1661292083612271565b73ffffffffffffffffffffffffffffffffffffffff1614159050919050565b50505050565b50505050565b600061296c8473ffffffffffffffffffffffffffffffffffffffff16612c8b565b15612ac5578373ffffffffffffffffffffffffffffffffffffffff1663150b7a02612995611e22565b8786866040518563ffffffff1660e01b81526004016129b794939291906149ca565b6020604051808303816000875af19250505080156129f357506040513d601f19601f820116820180604052508101906129f09190614a2b565b60015b612a75573d8060008114612a23576040519150601f19603f3d011682016040523d82523d6000602084013e612a28565b606091505b506000815103612a6d576040517f08c379a0000000000000000000000000000000000000000000000000000000008152600401612a64906147be565b60405180910390fd5b805181602001fd5b63150b7a0260e01b7bffffffffffffffffffffffffffffffffffffffffffffffffffffffff1916817bffffffffffffffffffffffffffffffffffffffffffffffffffffffff191614915050612aca565b600190505b949350505050565b600080600090507a184f03e93ff9f4daa797ed6e38ed64bf6a1f0100000000000000008310612b30577a184f03e93ff9f4daa797ed6e38ed64bf6a1f0100000000000000008381612b2657612b256147de565b5b0492506040810190505b6d04ee2d6d415b85acef81000000008310612b6d576d04ee2d6d415b85acef81000000008381612b6357612b626147de565b5b0492506020810190505b662386f26fc100008310612b9c57662386f26fc100008381612b9257612b916147de565b5b0492506010810190505b6305f5e1008310612bc5576305f5e1008381612bbb57612bba6147de565b5b0492506008810190505b6127108310612bea576127108381612be057612bdf6147de565b5b0492506004810190505b60648310612c0d5760648381612c0357612c026147de565b5b0492506002810190505b600a8310612c1c576001810190505b80915050919050565b612c2f8383612cae565b612c3c600084848461294b565b612c7b576040517f08c379a0000000000000000000000000000000000000000000000000000000008152600401612c72906147be565b60405180910390fd5b505050565b612ecb819050919050565b6000808273ffffffffffffffffffffffffffffffffffffffff163b119050919050565b600073ffffffffffffffffffffffffffffffffffffffff168273ffffffffffffffffffffffffffffffffffffffff1603612d1d576040517f08c379a0000000000000000000000000000000000000000000000000000000008152600401612d1490614aa4565b60405180910390fd5b612d26816128fe565b15612d66576040517f08c379a0000000000000000000000000000000000000000000000000000000008152600401612d5d90614b10565b60405180910390fd5b612d7460008383600161293f565b612d7d816128fe565b15612dbd576040517f08c379a0000000000000000000000000000000000000000000000000000000008152600401612db490614b10565b60405180910390fd5b6001600360008473ffffffffffffffffffffffffffffffffffffffff1673ffffffffffffffffffffffffffffffffffffffff16815260200190815260200160002060008282540192505081905550816002600083815260200190815260200160002060006101000a81548173ffffffffffffffffffffffffffffffffffffffff021916908373ffffffffffffffffffffffffffffffffffffffff160217905550808273ffffffffffffffffffffffffffffffffffffffff16600073ffffffffffffffffffffffffffffffffffffffff167fddf252ad1be2c89b69c2b068fc378daa952ba7f163c4a11628f55a4df523b3ef60405160405180910390a4612ec7600083836001612945565b5050565b612ed3614b30565b565b6040518060c001604052806000815260200160608152602001606081526020016000815260200160008152602001600081525090565b6040518060c001604052806000815260200160608152602001606081526020016000815260200160008152602001600081525090565b6000604051905090565b600080fd5b600080fd5b6000819050919050565b612f6881612f55565b8114612f7357600080fd5b50565b600081359050612f8581612f5f565b92915050565b600060208284031215612fa157612fa0612f4b565b5b6000612faf84828501612f76565b91505092915050565b612fc181612f55565b82525050565b600081519050919050565b600082825260208201905092915050565b60005b83811015613001578082015181840152602081019050612fe6565b60008484015250505050565b6000601f19601f8301169050919050565b600061302982612fc7565b6130338185612fd2565b9350613043818560208601612fe3565b61304c8161300d565b840191505092915050565b600060c08301600083015161306f6000860182612fb8565b5060208301518482036020860152613087828261301e565b915050604083015184820360408601526130a1828261301e565b91505060608301516130b66060860182612fb8565b5060808301516130c96080860182612fb8565b5060a08301516130dc60a0860182612fb8565b508091505092915050565b600060208201905081810360008301526131018184613057565b905092915050565b60007fffffffff0000000000000000000000000000000000000000000000000000000082169050919050565b61313e81613109565b811461314957600080fd5b50565b60008135905061315b81613135565b92915050565b60006020828403121561317757613176612f4b565b5b60006131858482850161314c565b91505092915050565b60008115159050919050565b6131a38161318e565b82525050565b60006020820190506131be600083018461319a565b92915050565b600082825260208201905092915050565b60006131e082612fc7565b6131ea81856131c4565b93506131fa818560208601612fe3565b6132038161300d565b840191505092915050565b6000602082019050818103600083015261322881846131d5565b905092915050565b600073ffffffffffffffffffffffffffffffffffffffff82169050919050565b600061325b82613230565b9050919050565b61326b81613250565b82525050565b60006020820190506132866000830184613262565b92915050565b61329581613250565b81146132a057600080fd5b50565b6000813590506132b28161328c565b92915050565b600080604083850312156132cf576132ce612f4b565b5b60006132dd858286016132a3565b92505060206132ee85828601612f76565b9150509250929050565b60008060006060848603121561331157613310612f4b565b5b600061331f868287016132a3565b9350506020613330868287016132a3565b925050604061334186828701612f76565b9150509250925092565b61335481612f55565b82525050565b600060c08201905061336f600083018961334b565b818103602083015261338181886131d5565b9050818103604083015261339581876131d5565b90506133a4606083018661334b565b6133b1608083018561334b565b6133be60a083018461334b565b979650505050505050565b6000602082840312156133df576133de612f4b565b5b60006133ed848285016132a3565b91505092915050565b600060208201905061340b600083018461334b565b92915050565b61341a8161318e565b811461342557600080fd5b50565b60008135905061343781613411565b92915050565b6000806040838503121561345457613453612f4b565b5b6000613462858286016132a3565b925050602061347385828601613428565b9150509250929050565b600080fd5b600080fd5b7f4e487b7100000000000000000000000000000000000000000000000000000000600052604160045260246000fd5b6134bf8261300d565b810181811067ffffffffffffffff821117156134de576134dd613487565b5b80604052505050565b60006134f1612f41565b90506134fd82826134b6565b919050565b600067ffffffffffffffff82111561351d5761351c613487565b5b6135268261300d565b9050602081019050919050565b82818337600083830152505050565b600061355561355084613502565b6134e7565b90508281526020810184848401111561357157613570613482565b5b61357c848285613533565b509392505050565b600082601f8301126135995761359861347d565b5b81356135a9848260208601613542565b91505092915050565b600080600080608085870312156135cc576135cb612f4b565b5b60006135da878288016132a3565b94505060206135eb878288016132a3565b93505060406135fc87828801612f76565b925050606085013567ffffffffffffffff81111561361d5761361c612f50565b5b61362987828801613584565b91505092959194509250565b600081519050919050565b600082825260208201905092915050565b6000819050602082019050919050565b600060c0830160008301516136796000860182612fb8565b5060208301518482036020860152613691828261301e565b915050604083015184820360408601526136ab828261301e565b91505060608301516136c06060860182612fb8565b5060808301516136d36080860182612fb8565b5060a08301516136e660a0860182612fb8565b508091505092915050565b60006136fd8383613661565b905092915050565b6000602082019050919050565b600061371d82613635565b6137278185613640565b93508360208202850161373985613651565b8060005b85811015613775578484038952815161375685826136f1565b945061376183613705565b925060208a0199505060018101905061373d565b50829750879550505050505092915050565b600060208201905081810360008301526137a18184613712565b905092915050565b600060c0830160008301516137c16000860182612fb8565b50602083015184820360208601526137d9828261301e565b915050604083015184820360408601526137f3828261301e565b91505060608301516138086060860182612fb8565b50608083015161381b6080860182612fb8565b5060a083015161382e60a0860182612fb8565b508091505092915050565b6000602082019050818103600083015261385381846137a9565b905092915050565b6000806040838503121561387257613871612f4b565b5b6000613880858286016132a3565b9250506020613891858286016132a3565b9150509250929050565b7f4572726f723a20496e76616c696420696e646578000000000000000000000000600082015250565b60006138d16014836131c4565b91506138dc8261389b565b602082019050919050565b60006020820190508181036000830152613900816138c4565b9050919050565b7f4e487b7100000000000000000000000000000000000000000000000000000000600052603260045260246000fd5b7f4e487b7100000000000000000000000000000000000000000000000000000000600052602260045260246000fd5b6000600282049050600182168061397d57607f821691505b6020821081036139905761398f613936565b5b50919050565b7f4552433732313a20617070726f76616c20746f2063757272656e74206f776e6560008201527f7200000000000000000000000000000000000000000000000000000000000000602082015250565b60006139f26021836131c4565b91506139fd82613996565b604082019050919050565b60006020820190508181036000830152613a21816139e5565b9050919050565b7f4552433732313a20617070726f76652063616c6c6572206973206e6f7420746f60008201527f6b656e206f776e6572206f7220617070726f76656420666f7220616c6c000000602082015250565b6000613a84603d836131c4565b9150613a8f82613a28565b604082019050919050565b60006020820190508181036000830152613ab381613a77565b9050919050565b7f4552433732313a2063616c6c6572206973206e6f7420746f6b656e206f776e6560008201527f72206f7220617070726f76656400000000000000000000000000000000000000602082015250565b6000613b16602d836131c4565b9150613b2182613aba565b604082019050919050565b60006020820190508181036000830152613b4581613b09565b9050919050565b7f4552433732313a20696e76616c696420746f6b656e2049440000000000000000600082015250565b6000613b826018836131c4565b9150613b8d82613b4c565b602082019050919050565b60006020820190508181036000830152613bb181613b75565b9050919050565b7f4552433732313a2061646472657373207a65726f206973206e6f74206120766160008201527f6c6964206f776e65720000000000000000000000000000000000000000000000602082015250565b6000613c146029836131c4565b9150613c1f82613bb8565b604082019050919050565b60006020820190508181036000830152613c4381613c07565b9050919050565b600081905092915050565b7f7b226e616d65223a202200000000000000000000000000000000000000000000600082015250565b6000613c8b600a83613c4a565b9150613c9682613c55565b600a82019050919050565b6000613cac82612fc7565b613cb68185613c4a565b9350613cc6818560208601612fe3565b80840191505092915050565b7f202d2d204e465420233a20000000000000000000000000000000000000000000600082015250565b6000613d08600b83613c4a565b9150613d1382613cd2565b600b82019050919050565b7f222c20226465736372697074696f6e223a20225468697320697320616e204e4660008201527f542074686174206c6574732070656f706c6520706c617920696e20746865206760208201527f616d65204d657461766572736520536c6179657221222c2022696d616765223a60408201527f2022000000000000000000000000000000000000000000000000000000000000606082015250565b6000613dc6606283613c4a565b9150613dd182613d1e565b606282019050919050565b7f222c202261747472696275746573223a205b207b202274726169745f7479706560008201527f223a20224865616c746820506f696e7473222c202276616c7565223a20000000602082015250565b6000613e38603d83613c4a565b9150613e4382613ddc565b603d82019050919050565b7f2c20226d61785f76616c7565223a000000000000000000000000000000000000600082015250565b6000613e84600e83613c4a565b9150613e8f82613e4e565b600e82019050919050565b7f7d2c207b202274726169745f74797065223a202241747461636b2044616d616760008201527f65222c202276616c7565223a2000000000000000000000000000000000000000602082015250565b6000613ef6602d83613c4a565b9150613f0182613e9a565b602d82019050919050565b7f7d205d7d00000000000000000000000000000000000000000000000000000000600082015250565b6000613f42600483613c4a565b9150613f4d82613f0c565b600482019050919050565b6000613f6382613c7e565b9150613f6f8289613ca1565b9150613f7a82613cfb565b9150613f868288613ca1565b9150613f9182613db9565b9150613f9d8287613ca1565b9150613fa882613e2b565b9150613fb48286613ca1565b9150613fbf82613e77565b9150613fcb8285613ca1565b9150613fd682613ee9565b9150613fe28284613ca1565b9150613fed82613f35565b9150819050979650505050505050565b7f646174613a6170706c69636174696f6e2f6a736f6e3b6261736536342c000000600082015250565b6000614033601d83613c4a565b915061403e82613ffd565b601d82019050919050565b600061405482614026565b91506140608284613ca1565b915081905092915050565b7f4572726f723a20436861726163746572206d757374206861766520485020746f60008201527f2061747461636b20626f73732e00000000000000000000000000000000000000602082015250565b60006140c7602d836131c4565b91506140d28261406b565b604082019050919050565b600060208201905081810360008301526140f6816140ba565b9050919050565b7f4572726f723a20626f7373206d757374206861766520485020746f206174746160008201527f636b20636861726163746572732e000000000000000000000000000000000000602082015250565b6000614159602e836131c4565b9150614164826140fd565b604082019050919050565b600060208201905081810360008301526141888161414c565b9050919050565b7f4572726f723a20596f75206d7573742068617665206d6f6e657920746f20627560008201527f79206265766572616765732e0000000000000000000000000000000000000000602082015250565b60006141eb602c836131c4565b91506141f68261418f565b604082019050919050565b6000602082019050818103600083015261421a816141de565b9050919050565b7f4e487b7100000000000000000000000000000000000000000000000000000000600052601160045260246000fd5b600061425b82612f55565b915061426683612f55565b925082820390508181111561427e5761427d614221565b5b92915050565b6000604082019050614299600083018561334b565b6142a6602083018461334b565b9392505050565b60008190508160005260206000209050919050565b60006020601f8301049050919050565b600082821b905092915050565b60006008830261430f7fffffffffffffffffffffffffffffffffffffffffffffffffffffffffffffffff826142d2565b61431986836142d2565b95508019841693508086168417925050509392505050565b6000819050919050565b600061435661435161434c84612f55565b614331565b612f55565b9050919050565b6000819050919050565b6143708361433b565b61438461437c8261435d565b8484546142df565b825550505050565b600090565b61439961438c565b6143a4818484614367565b505050565b5b818110156143c8576143bd600082614391565b6001810190506143aa565b5050565b601f82111561440d576143de816142ad565b6143e7846142c2565b810160208510156143f6578190505b61440a614402856142c2565b8301826143a9565b50505b505050565b600082821c905092915050565b600061443060001984600802614412565b1980831691505092915050565b6000614449838361441f565b9150826002028217905092915050565b61446282612fc7565b67ffffffffffffffff81111561447b5761447a613487565b5b6144858254613965565b6144908282856143cc565b600060209050601f8311600181146144c357600084156144b1578287015190505b6144bb858261443d565b865550614523565b601f1984166144d1866142ad565b60005b828110156144f9578489015182556001820191506020850194506020810190506144d4565b868310156145165784890151614512601f89168261441f565b8355505b6001600288020188555050505b505050505050565b60006060820190506145406000830186613262565b61454d602083018561334b565b61455a604083018461334b565b949350505050565b6000608082019050818103600083015261457c81876131d5565b9050818103602083015261459081866131d5565b905061459f604083018561334b565b81810360608301526145b181846131d5565b905095945050505050565b7f4552433732313a207472616e736665722066726f6d20696e636f72726563742060008201527f6f776e6572000000000000000000000000000000000000000000000000000000602082015250565b60006146186025836131c4565b9150614623826145bc565b604082019050919050565b600060208201905081810360008301526146478161460b565b9050919050565b7f4552433732313a207472616e7366657220746f20746865207a65726f2061646460008201527f7265737300000000000000000000000000000000000000000000000000000000602082015250565b60006146aa6024836131c4565b91506146b58261464e565b604082019050919050565b600060208201905081810360008301526146d98161469d565b9050919050565b7f4552433732313a20617070726f766520746f2063616c6c657200000000000000600082015250565b60006147166019836131c4565b9150614721826146e0565b602082019050919050565b6000602082019050818103600083015261474581614709565b9050919050565b7f4552433732313a207472616e7366657220746f206e6f6e20455243373231526560008201527f63656976657220696d706c656d656e7465720000000000000000000000000000602082015250565b60006147a86032836131c4565b91506147b38261474c565b604082019050919050565b600060208201905081810360008301526147d78161479b565b9050919050565b7f4e487b7100000000000000000000000000000000000000000000000000000000600052601260045260246000fd5b600061481882612f55565b915061482383612f55565b925082820190508082111561483b5761483a614221565b5b92915050565b600061484c82612f55565b915061485783612f55565b925082614867576148666147de565b5b828204905092915050565b600061487d82612f55565b915061488883612f55565b925082820261489681612f55565b915082820484148315176148ad576148ac614221565b5b5092915050565b600060808201905081810360008301526148ce81876131d5565b905081810360208301526148e281866131d5565b90506148f1604083018561334b565b6148fe606083018461334b565b95945050505050565b6000604082019050818103600083015261492181856131d5565b9050614930602083018461334b565b9392505050565b6000606082019050818103600083015261495181866131d5565b9050614960602083018561334b565b61496d604083018461334b565b949350505050565b600081519050919050565b600082825260208201905092915050565b600061499c82614975565b6149a68185614980565b93506149b6818560208601612fe3565b6149bf8161300d565b840191505092915050565b60006080820190506149df6000830187613262565b6149ec6020830186613262565b6149f9604083018561334b565b8181036060830152614a0b8184614991565b905095945050505050565b600081519050614a2581613135565b92915050565b600060208284031215614a4157614a40612f4b565b5b6000614a4f84828501614a16565b91505092915050565b7f4552433732313a206d696e7420746f20746865207a65726f2061646472657373600082015250565b6000614a8e6020836131c4565b9150614a9982614a58565b602082019050919050565b60006020820190508181036000830152614abd81614a81565b9050919050565b7f4552433732313a20746f6b656e20616c7265616479206d696e74656400000000600082015250565b6000614afa601c836131c4565b9150614b0582614ac4565b602082019050919050565b60006020820190508181036000830152614b2981614aed565b9050919050565b7f4e487b7100000000000000000000000000000000000000000000000000000000600052605160045260246000fdfe506c617965722061747461636b656420626f73732e204e657720626f73732068703a2024734142434445464748494a4b4c4d4e4f505152535455565758595a6162636465666768696a6b6c6d6e6f707172737475767778797a303132333435363738392b2f4d696e746564204e465420772f20746f6b656e496420257320616e6420636861726163746572496e646578202573426f73732061747461636b656420706c617965722e204e657720506c617965722068703a2025730a0a506c6179657220772f206368617261637465722025732061626f757420746f2061747461636b2e2048617320257320485020616e64202573204144a264697066735822122026e0d0e07acba399ef463e194a8b2728f466bfb04aef0f5744e2763b673d818964736f6c63430008120033446f6e6520696e697469616c697a696e6720257320772f2048502025732c20696d67202573",
  "linkReferences": {},
  "deployedLinkReferences": {}
}