{
  "_format": "hh-sol-artifact-1",
  "contractName": "MyEpicGame",
  "sourceName": "contracts/MyEpicGame.sol",
  "abi": [
    {
      "inputs": [
        {
          "internalType": "string[]",
          "name": "characterNames",
          "type": "string[]"
        },
        {
          "internalType": "string[]",
          "name": "characterImageURIs",
          "type": "string[]"
        },
        {
          "internalType": "uint256[]",
          "name": "characterHp",
          "type": "uint256[]"
        },
        {
          "internalType": "uint256[]",
          "name": "characterAttackDmg",
          "type": "uint256[]"
        },
        {
          "internalType": "string[]",
          "name": "beverageNames",
          "type": "string[]"
        },
        {
          "internalType": "string[]",
          "name": "beverageImageURI",
          "type": "string[]"
        },
        {
          "internalType": "uint256[]",
          "name": "beveragePrice",
          "type": "uint256[]"
        },
        {
          "internalType": "uint256[]",
          "name": "beverageCost",
          "type": "uint256[]"
        }
      ],
      "stateMutability": "nonpayable",
      "type": "constructor"
    },
    {
      "anonymous": false,
      "inputs": [
        {
          "indexed": true,
          "internalType": "address",
          "name": "owner",
          "type": "address"
        },
        {
          "indexed": true,
          "internalType": "address",
          "name": "approved",
          "type": "address"
        },
        {
          "indexed": true,
          "internalType": "uint256",
          "name": "tokenId",
          "type": "uint256"
        }
      ],
      "name": "Approval",
      "type": "event"
    },
    {
      "anonymous": false,
      "inputs": [
        {
          "indexed": true,
          "internalType": "address",
          "name": "owner",
          "type": "address"
        },
        {
          "indexed": true,
          "internalType": "address",
          "name": "operator",
          "type": "address"
        },
        {
          "indexed": false,
          "internalType": "bool",
          "name": "approved",
          "type": "bool"
        }
      ],
      "name": "ApprovalForAll",
      "type": "event"
    },
    {
      "anonymous": false,
      "inputs": [
        {
          "indexed": false,
          "internalType": "uint256",
          "name": "newBossHp",
          "type": "uint256"
        },
        {
          "indexed": false,
          "internalType": "uint256",
          "name": "newPlayerHp",
          "type": "uint256"
        }
      ],
      "name": "AttackComplete",
      "type": "event"
    },
    {
      "anonymous": false,
      "inputs": [
        {
          "indexed": false,
          "internalType": "address",
          "name": "sender",
          "type": "address"
        },
        {
          "indexed": false,
          "internalType": "uint256",
          "name": "tokenId",
          "type": "uint256"
        },
        {
          "indexed": false,
          "internalType": "uint256",
          "name": "characterIndex",
          "type": "uint256"
        }
      ],
      "name": "CharacterNFTMinted",
      "type": "event"
    },
    {
      "anonymous": false,
      "inputs": [
        {
          "indexed": true,
          "internalType": "address",
          "name": "from",
          "type": "address"
        },
        {
          "indexed": true,
          "internalType": "address",
          "name": "to",
          "type": "address"
        },
        {
          "indexed": true,
          "internalType": "uint256",
          "name": "tokenId",
          "type": "uint256"
        }
      ],
      "name": "Transfer",
      "type": "event"
    },
    {
      "inputs": [
        {
          "internalType": "address",
          "name": "to",
          "type": "address"
        },
        {
          "internalType": "uint256",
          "name": "tokenId",
          "type": "uint256"
        }
      ],
      "name": "approve",
      "outputs": [],
      "stateMutability": "nonpayable",
      "type": "function"
    },
    {
      "inputs": [],
      "name": "attackBoss",
      "outputs": [],
      "stateMutability": "nonpayable",
      "type": "function"
    },
    {
      "inputs": [
        {
          "internalType": "address",
          "name": "owner",
          "type": "address"
        }
      ],
      "name": "balanceOf",
      "outputs": [
        {
          "internalType": "uint256",
          "name": "",
          "type": "uint256"
        }
      ],
      "stateMutability": "view",
      "type": "function"
    },
    {
      "inputs": [
        {
          "internalType": "uint256",
          "name": "",
          "type": "uint256"
        }
      ],
      "name": "beverages",
      "outputs": [
        {
          "internalType": "uint256",
          "name": "beverageIndex",
          "type": "uint256"
        },
        {
          "internalType": "string",
          "name": "name",
          "type": "string"
        },
        {
          "internalType": "string",
          "name": "imageURI",
          "type": "string"
        },
        {
          "internalType": "uint256",
          "name": "hp",
          "type": "uint256"
        },
        {
          "internalType": "uint256",
          "name": "maxHp",
          "type": "uint256"
        },
        {
          "internalType": "uint256",
          "name": "attackDamage",
          "type": "uint256"
        }
      ],
      "stateMutability": "view",
      "type": "function"
    },
    {
      "inputs": [],
      "name": "checkIfUserHasNFT",
      "outputs": [
        {
          "components": [
            {
              "internalType": "uint256",
              "name": "characterIndex",
              "type": "uint256"
            },
            {
              "internalType": "string",
              "name": "name",
              "type": "string"
            },
            {
              "internalType": "string",
              "name": "imageURI",
              "type": "string"
            },
            {
              "internalType": "uint256",
              "name": "hp",
              "type": "uint256"
            },
            {
              "internalType": "uint256",
              "name": "maxHp",
              "type": "uint256"
            },
            {
              "internalType": "uint256",
              "name": "attackDamage",
              "type": "uint256"
            }
          ],
          "internalType": "struct MyEpicGame.CharacterAttributes",
          "name": "",
          "type": "tuple"
        }
      ],
      "stateMutability": "view",
      "type": "function"
    },
    {
      "inputs": [],
      "name": "getAllDefaultCharacters",
      "outputs": [
        {
          "components": [
            {
              "internalType": "uint256",
              "name": "characterIndex",
              "type": "uint256"
            },
            {
              "internalType": "string",
              "name": "name",
              "type": "string"
            },
            {
              "internalType": "string",
              "name": "imageURI",
              "type": "string"
            },
            {
              "internalType": "uint256",
              "name": "hp",
              "type": "uint256"
            },
            {
              "internalType": "uint256",
              "name": "maxHp",
              "type": "uint256"
            },
            {
              "internalType": "uint256",
              "name": "attackDamage",
              "type": "uint256"
            }
          ],
          "internalType": "struct MyEpicGame.CharacterAttributes[]",
          "name": "",
          "type": "tuple[]"
        }
      ],
      "stateMutability": "view",
      "type": "function"
    },
    {
      "inputs": [
        {
          "internalType": "uint256",
          "name": "tokenId",
          "type": "uint256"
        }
      ],
      "name": "getApproved",
      "outputs": [
        {
          "internalType": "address",
          "name": "",
          "type": "address"
        }
      ],
      "stateMutability": "view",
      "type": "function"
    },
    {
      "inputs": [
        {
          "internalType": "uint256",
          "name": "index",
          "type": "uint256"
        }
      ],
      "name": "getBeverage",
      "outputs": [
        {
          "components": [
            {
              "internalType": "uint256",
              "name": "beverageIndex",
              "type": "uint256"
            },
            {
              "internalType": "string",
              "name": "name",
              "type": "string"
            },
            {
              "internalType": "string",
              "name": "imageURI",
              "type": "string"
            },
            {
              "internalType": "uint256",
              "name": "hp",
              "type": "uint256"
            },
            {
              "internalType": "uint256",
              "name": "maxHp",
              "type": "uint256"
            },
            {
              "internalType": "uint256",
              "name": "attackDamage",
              "type": "uint256"
            }
          ],
          "internalType": "struct MyEpicGame.Beverage",
          "name": "",
          "type": "tuple"
        }
      ],
      "stateMutability": "view",
      "type": "function"
    },
    {
      "inputs": [
        {
          "internalType": "address",
          "name": "owner",
          "type": "address"
        },
        {
          "internalType": "address",
          "name": "operator",
          "type": "address"
        }
      ],
      "name": "isApprovedForAll",
      "outputs": [
        {
          "internalType": "bool",
          "name": "",
          "type": "bool"
        }
      ],
      "stateMutability": "view",
      "type": "function"
    },
    {
      "inputs": [
        {
          "internalType": "uint256",
          "name": "_characterIndex",
          "type": "uint256"
        }
      ],
      "name": "mintCharacterNFT",
      "outputs": [],
      "stateMutability": "nonpayable",
      "type": "function"
    },
    {
      "inputs": [],
      "name": "name",
      "outputs": [
        {
          "internalType": "string",
          "name": "",
          "type": "string"
        }
      ],
      "stateMutability": "view",
      "type": "function"
    },
    {
      "inputs": [
        {
          "internalType": "uint256",
          "name": "",
          "type": "uint256"
        }
      ],
      "name": "nftHolderAttributes",
      "outputs": [
        {
          "internalType": "uint256",
          "name": "characterIndex",
          "type": "uint256"
        },
        {
          "internalType": "string",
          "name": "name",
          "type": "string"
        },
        {
          "internalType": "string",
          "name": "imageURI",
          "type": "string"
        },
        {
          "internalType": "uint256",
          "name": "hp",
          "type": "uint256"
        },
        {
          "internalType": "uint256",
          "name": "maxHp",
          "type": "uint256"
        },
        {
          "internalType": "uint256",
          "name": "attackDamage",
          "type": "uint256"
        }
      ],
      "stateMutability": "view",
      "type": "function"
    },
    {
      "inputs": [
        {
          "internalType": "address",
          "name": "",
          "type": "address"
        }
      ],
      "name": "nftHolders",
      "outputs": [
        {
          "internalType": "uint256",
          "name": "",
          "type": "uint256"
        }
      ],
      "stateMutability": "view",
      "type": "function"
    },
    {
      "inputs": [
        {
          "internalType": "uint256",
          "name": "tokenId",
          "type": "uint256"
        }
      ],
      "name": "ownerOf",
      "outputs": [
        {
          "internalType": "address",
          "name": "",
          "type": "address"
        }
      ],
      "stateMutability": "view",
      "type": "function"
    },
    {
      "inputs": [
        {
          "internalType": "address",
          "name": "from",
          "type": "address"
        },
        {
          "internalType": "address",
          "name": "to",
          "type": "address"
        },
        {
          "internalType": "uint256",
          "name": "tokenId",
          "type": "uint256"
        }
      ],
      "name": "safeTransferFrom",
      "outputs": [],
      "stateMutability": "nonpayable",
      "type": "function"
    },
    {
      "inputs": [
        {
          "internalType": "address",
          "name": "from",
          "type": "address"
        },
        {
          "internalType": "address",
          "name": "to",
          "type": "address"
        },
        {
          "internalType": "uint256",
          "name": "tokenId",
          "type": "uint256"
        },
        {
          "internalType": "bytes",
          "name": "data",
          "type": "bytes"
        }
      ],
      "name": "safeTransferFrom",
      "outputs": [],
      "stateMutability": "nonpayable",
      "type": "function"
    },
    {
      "inputs": [
        {
          "internalType": "address",
          "name": "operator",
          "type": "address"
        },
        {
          "internalType": "bool",
          "name": "approved",
          "type": "bool"
        }
      ],
      "name": "setApprovalForAll",
      "outputs": [],
      "stateMutability": "nonpayable",
      "type": "function"
    },
    {
      "inputs": [
        {
          "internalType": "bytes4",
          "name": "interfaceId",
          "type": "bytes4"
        }
      ],
      "name": "supportsInterface",
      "outputs": [
        {
          "internalType": "bool",
          "name": "",
          "type": "bool"
        }
      ],
      "stateMutability": "view",
      "type": "function"
    },
    {
      "inputs": [],
      "name": "symbol",
      "outputs": [
        {
          "internalType": "string",
          "name": "",
          "type": "string"
        }
      ],
      "stateMutability": "view",
      "type": "function"
    },
    {
      "inputs": [
        {
          "internalType": "uint256",
          "name": "_tokenId",
          "type": "uint256"
        }
      ],
      "name": "tokenURI",
      "outputs": [
        {
          "internalType": "string",
          "name": "",
          "type": "string"
        }
      ],
      "stateMutability": "view",
      "type": "function"
    },
    {
      "inputs": [
        {
          "internalType": "address",
          "name": "from",
          "type": "address"
        },
        {
          "internalType": "address",
          "name": "to",
          "type": "address"
        },
        {
          "internalType": "uint256",
          "name": "tokenId",
          "type": "uint256"
        }
      ],
      "name": "transferFrom",
      "outputs": [],
      "stateMutability": "nonpayable",
      "type": "function"
    }
  ],
  "bytecode": "0x60806040523480156200001157600080fd5b5060405162005e8338038062005e83833981810160405281019062000037919062000c28565b6040518060400160405280600881526020017f4f6e6570696563650000000000000000000000000000000000000000000000008152506040518060400160405280600881526020017f4f4e4550494543450000000000000000000000000000000000000000000000008152508160009081620000b491906200102a565b508060019081620000c691906200102a565b50505060005b8851811015620003ff5760086040518060c001604052808381526020018b8481518110620000ff57620000fe62001111565b5b602002602001015181526020018a848151811062000122576200012162001111565b5b6020026020010151815260200189848151811062000145576200014462001111565b5b6020026020010151815260200189848151811062000168576200016762001111565b5b602002602001015181526020018884815181106200018b576200018a62001111565b5b60200260200101518152509080600181540180825580915050600190039060005260206000209060060201600090919091909150600082015181600001556020820151816001019081620001e091906200102a565b506040820151816002019081620001f891906200102a565b50606082015181600301556080820151816004015560a08201518160050155505060006008828154811062000232576200023162001111565b5b90600052602060002090600602016040518060c001604052908160008201548152602001600182018054620002679062000e23565b80601f0160208091040260200160405190810160405280929190818152602001828054620002959062000e23565b8015620002e65780601f10620002ba57610100808354040283529160200191620002e6565b820191906000526020600020905b815481529060010190602001808311620002c857829003601f168201915b50505050508152602001600282018054620003019062000e23565b80601f01602080910402602001604051908101604052809291908181526020018280546200032f9062000e23565b8015620003805780601f10620003545761010080835404028352916020019162000380565b820191906000526020600020905b8154815290600101906020018083116200036257829003601f168201915b5050505050815260200160038201548152602001600482015481526020016005820154815250509050620003e760405180606001604052806025815260200162005e5e602591398260200151836060015184604001516200075c60201b62001c4a1760201c565b50600181620003f791906200116f565b9050620000cc565b506200041760076200080860201b62001cec1760201c565b60005b84518110156200074d5760066040518060c001604052808381526020018784815181106200044d576200044c62001111565b5b6020026020010151815260200186848151811062000470576200046f62001111565b5b6020026020010151815260200185848151811062000493576200049262001111565b5b60200260200101518152602001858481518110620004b657620004b562001111565b5b60200260200101518152602001848481518110620004d957620004d862001111565b5b602002602001015181525090806001815401808255809150506001900390600052602060002090600602016000909190919091506000820151816000015560208201518160010190816200052e91906200102a565b5060408201518160020190816200054691906200102a565b50606082015181600301556080820151816004015560a08201518160050155505060006006828154811062000580576200057f62001111565b5b90600052602060002090600602016040518060c001604052908160008201548152602001600182018054620005b59062000e23565b80601f0160208091040260200160405190810160405280929190818152602001828054620005e39062000e23565b8015620006345780601f10620006085761010080835404028352916020019162000634565b820191906000526020600020905b8154815290600101906020018083116200061657829003601f168201915b505050505081526020016002820180546200064f9062000e23565b80601f01602080910402602001604051908101604052809291908181526020018280546200067d9062000e23565b8015620006ce5780601f10620006a257610100808354040283529160200191620006ce565b820191906000526020600020905b815481529060010190602001808311620006b057829003601f168201915b50505050508152602001600382015481526020016004820154815260200160058201548152505090506200073560405180606001604052806025815260200162005e5e602591398260200151836060015184604001516200075c60201b62001c4a1760201c565b506001816200074591906200116f565b90506200041a565b5050505050505050506200129e565b62000802848484846040516024016200077994939291906200120d565b6040516020818303038152906040527f5d1a971a000000000000000000000000000000000000000000000000000000007bffffffffffffffffffffffffffffffffffffffffffffffffffffffff19166020820180517bffffffffffffffffffffffffffffffffffffffffffffffffffffffff83818316178352505050506200081e60201b60201c565b50505050565b6001816000016000828254019250508190555050565b62000844816200083f6200084760201b62001d02176200086860201b60201c565b60201c565b50565b60006a636f6e736f6c652e6c6f679050600080835160208501845afa505050565b6200087c60201b62002e8117819050919050565b620008866200126f565b565b6000604051905090565b600080fd5b600080fd5b600080fd5b6000601f19601f8301169050919050565b7f4e487b7100000000000000000000000000000000000000000000000000000000600052604160045260246000fd5b620008ec82620008a1565b810181811067ffffffffffffffff821117156200090e576200090d620008b2565b5b80604052505050565b60006200092362000888565b9050620009318282620008e1565b919050565b600067ffffffffffffffff821115620009545762000953620008b2565b5b602082029050602081019050919050565b600080fd5b600080fd5b600067ffffffffffffffff8211156200098d576200098c620008b2565b5b6200099882620008a1565b9050602081019050919050565b60005b83811015620009c5578082015181840152602081019050620009a8565b60008484015250505050565b6000620009e8620009e2846200096f565b62000917565b90508281526020810184848401111562000a075762000a066200096a565b5b62000a14848285620009a5565b509392505050565b600082601f83011262000a345762000a336200089c565b5b815162000a46848260208601620009d1565b91505092915050565b600062000a6662000a608462000936565b62000917565b9050808382526020820190506020840283018581111562000a8c5762000a8b62000965565b5b835b8181101562000ada57805167ffffffffffffffff81111562000ab55762000ab46200089c565b5b80860162000ac4898262000a1c565b8552602085019450505060208101905062000a8e565b5050509392505050565b600082601f83011262000afc5762000afb6200089c565b5b815162000b0e84826020860162000a4f565b91505092915050565b600067ffffffffffffffff82111562000b355762000b34620008b2565b5b602082029050602081019050919050565b6000819050919050565b62000b5b8162000b46565b811462000b6757600080fd5b50565b60008151905062000b7b8162000b50565b92915050565b600062000b9862000b928462000b17565b62000917565b9050808382526020820190506020840283018581111562000bbe5762000bbd62000965565b5b835b8181101562000beb578062000bd6888262000b6a565b84526020840193505060208101905062000bc0565b5050509392505050565b600082601f83011262000c0d5762000c0c6200089c565b5b815162000c1f84826020860162000b81565b91505092915050565b600080600080600080600080610100898b03121562000c4c5762000c4b62000892565b5b600089015167ffffffffffffffff81111562000c6d5762000c6c62000897565b5b62000c7b8b828c0162000ae4565b985050602089015167ffffffffffffffff81111562000c9f5762000c9e62000897565b5b62000cad8b828c0162000ae4565b975050604089015167ffffffffffffffff81111562000cd15762000cd062000897565b5b62000cdf8b828c0162000bf5565b965050606089015167ffffffffffffffff81111562000d035762000d0262000897565b5b62000d118b828c0162000bf5565b955050608089015167ffffffffffffffff81111562000d355762000d3462000897565b5b62000d438b828c0162000ae4565b94505060a089015167ffffffffffffffff81111562000d675762000d6662000897565b5b62000d758b828c0162000ae4565b93505060c089015167ffffffffffffffff81111562000d995762000d9862000897565b5b62000da78b828c0162000bf5565b92505060e089015167ffffffffffffffff81111562000dcb5762000dca62000897565b5b62000dd98b828c0162000bf5565b9150509295985092959890939650565b600081519050919050565b7f4e487b7100000000000000000000000000000000000000000000000000000000600052602260045260246000fd5b6000600282049050600182168062000e3c57607f821691505b60208210810362000e525762000e5162000df4565b5b50919050565b60008190508160005260206000209050919050565b60006020601f8301049050919050565b600082821b905092915050565b60006008830262000ebc7fffffffffffffffffffffffffffffffffffffffffffffffffffffffffffffffff8262000e7d565b62000ec8868362000e7d565b95508019841693508086168417925050509392505050565b6000819050919050565b600062000f0b62000f0562000eff8462000b46565b62000ee0565b62000b46565b9050919050565b6000819050919050565b62000f278362000eea565b62000f3f62000f368262000f12565b84845462000e8a565b825550505050565b600090565b62000f5662000f47565b62000f6381848462000f1c565b505050565b5b8181101562000f8b5762000f7f60008262000f4c565b60018101905062000f69565b5050565b601f82111562000fda5762000fa48162000e58565b62000faf8462000e6d565b8101602085101562000fbf578190505b62000fd762000fce8562000e6d565b83018262000f68565b50505b505050565b600082821c905092915050565b600062000fff6000198460080262000fdf565b1980831691505092915050565b60006200101a838362000fec565b9150826002028217905092915050565b620010358262000de9565b67ffffffffffffffff811115620010515762001050620008b2565b5b6200105d825462000e23565b6200106a82828562000f8f565b600060209050601f831160018114620010a257600084156200108d578287015190505b6200109985826200100c565b86555062001109565b601f198416620010b28662000e58565b60005b82811015620010dc57848901518255600182019150602085019450602081019050620010b5565b86831015620010fc5784890151620010f8601f89168262000fec565b8355505b6001600288020188555050505b505050505050565b7f4e487b7100000000000000000000000000000000000000000000000000000000600052603260045260246000fd5b7f4e487b7100000000000000000000000000000000000000000000000000000000600052601160045260246000fd5b60006200117c8262000b46565b9150620011898362000b46565b9250828201905080821115620011a457620011a362001140565b5b92915050565b600082825260208201905092915050565b6000620011c88262000de9565b620011d48185620011aa565b9350620011e6818560208601620009a5565b620011f181620008a1565b840191505092915050565b620012078162000b46565b82525050565b60006080820190508181036000830152620012298187620011bb565b905081810360208301526200123f8186620011bb565b9050620012506040830185620011fc565b8181036060830152620012648184620011bb565b905095945050505050565b7f4e487b7100000000000000000000000000000000000000000000000000000000600052605160045260246000fd5b614bb080620012ae6000396000f3fe608060405234801561001057600080fd5b50600436106101375760003560e01c80637df124a1116100b8578063b953084e1161007c578063b953084e1461038e578063c87b56dd146103ac578063c8cf27f4146103dc578063d4f24c5b146103fa578063e985e9c514610404578063f8b81ef71461043457610137565b80637df124a1146102d357806395d89b411461030357806398da4c9514610321578063a22cb46514610356578063b88d4fde1461037257610137565b806323b872dd116100ff57806323b872dd1461020657806342842e0e14610222578063523f17b81461023e5780636352211e1461027357806370a08231146102a357610137565b806301eab11a1461013c57806301ffc9a71461016c57806306fdde031461019c578063081812fc146101ba578063095ea7b3146101ea575b600080fd5b61015660048036038101906101519190612f41565b610450565b604051610163919061309d565b60405180910390f35b61018660048036038101906101819190613117565b61061f565b604051610193919061315f565b60405180910390f35b6101a4610701565b6040516101b191906131c4565b60405180910390f35b6101d460048036038101906101cf9190612f41565b610793565b6040516101e19190613227565b60405180910390f35b61020460048036038101906101ff919061326e565b6107d9565b005b610220600480360381019061021b91906132ae565b6108f0565b005b61023c600480360381019061023791906132ae565b610950565b005b61025860048036038101906102539190612f41565b610970565b60405161026a96959493929190613310565b60405180910390f35b61028d60048036038101906102889190612f41565b610acc565b60405161029a9190613227565b60405180910390f35b6102bd60048036038101906102b8919061337f565b610b52565b6040516102ca91906133ac565b60405180910390f35b6102ed60048036038101906102e8919061337f565b610c09565b6040516102fa91906133ac565b60405180910390f35b61030b610c21565b60405161031891906131c4565b60405180910390f35b61033b60048036038101906103369190612f41565b610cb3565b60405161034d96959493929190613310565b60405180910390f35b610370600480360381019061036b91906133f3565b610dff565b005b61038c60048036038101906103879190613568565b610e15565b005b610396610e77565b6040516103a3919061373d565b60405180910390f35b6103c660048036038101906103c19190612f41565b611022565b6040516103d391906131c4565b60405180910390f35b6103e461123d565b6040516103f191906137ef565b60405180910390f35b610402611415565b005b61041e60048036038101906104199190613811565b61188e565b60405161042b919061315f565b60405180910390f35b61044e60048036038101906104499190612f41565b611922565b005b610458612e8b565b600680549050821061049f576040517f08c379a00000000000000000000000000000000000000000000000000000000081526004016104969061389d565b60405180910390fd5b600682815481106104b3576104b26138bd565b5b90600052602060002090600602016040518060c0016040529081600082015481526020016001820180546104e69061391b565b80601f01602080910402602001604051908101604052809291908181526020018280546105129061391b565b801561055f5780601f106105345761010080835404028352916020019161055f565b820191906000526020600020905b81548152906001019060200180831161054257829003601f168201915b505050505081526020016002820180546105789061391b565b80601f01602080910402602001604051908101604052809291908181526020018280546105a49061391b565b80156105f15780601f106105c6576101008083540402835291602001916105f1565b820191906000526020600020905b8154815290600101906020018083116105d457829003601f168201915b5050505050815260200160038201548152602001600482015481526020016005820154815250509050919050565b60007f80ac58cd000000000000000000000000000000000000000000000000000000007bffffffffffffffffffffffffffffffffffffffffffffffffffffffff1916827bffffffffffffffffffffffffffffffffffffffffffffffffffffffff191614806106ea57507f5b5e139f000000000000000000000000000000000000000000000000000000007bffffffffffffffffffffffffffffffffffffffffffffffffffffffff1916827bffffffffffffffffffffffffffffffffffffffffffffffffffffffff1916145b806106fa57506106f982611d23565b5b9050919050565b6060600080546107109061391b565b80601f016020809104026020016040519081016040528092919081815260200182805461073c9061391b565b80156107895780601f1061075e57610100808354040283529160200191610789565b820191906000526020600020905b81548152906001019060200180831161076c57829003601f168201915b5050505050905090565b600061079e82611d8d565b6004600083815260200190815260200160002060009054906101000a900473ffffffffffffffffffffffffffffffffffffffff169050919050565b60006107e482610acc565b90508073ffffffffffffffffffffffffffffffffffffffff168373ffffffffffffffffffffffffffffffffffffffff1603610854576040517f08c379a000000000000000000000000000000000000000000000000000000000815260040161084b906139be565b60405180910390fd5b8073ffffffffffffffffffffffffffffffffffffffff16610873611dd8565b73ffffffffffffffffffffffffffffffffffffffff1614806108a257506108a18161089c611dd8565b61188e565b5b6108e1576040517f08c379a00000000000000000000000000000000000000000000000000000000081526004016108d890613a50565b60405180910390fd5b6108eb8383611de0565b505050565b6109016108fb611dd8565b82611e99565b610940576040517f08c379a000000000000000000000000000000000000000000000000000000000815260040161093790613ae2565b60405180910390fd5b61094b838383611f2e565b505050565b61096b83838360405180602001604052806000815250610e15565b505050565b6006818154811061098057600080fd5b90600052602060002090600602016000915090508060000154908060010180546109a99061391b565b80601f01602080910402602001604051908101604052809291908181526020018280546109d59061391b565b8015610a225780601f106109f757610100808354040283529160200191610a22565b820191906000526020600020905b815481529060010190602001808311610a0557829003601f168201915b505050505090806002018054610a379061391b565b80601f0160208091040260200160405190810160405280929190818152602001828054610a639061391b565b8015610ab05780601f10610a8557610100808354040283529160200191610ab0565b820191906000526020600020905b815481529060010190602001808311610a9357829003601f168201915b5050505050908060030154908060040154908060050154905086565b600080610ad883612227565b9050600073ffffffffffffffffffffffffffffffffffffffff168173ffffffffffffffffffffffffffffffffffffffff1603610b49576040517f08c379a0000000000000000000000000000000000000000000000000000000008152600401610b4090613b4e565b60405180910390fd5b80915050919050565b60008073ffffffffffffffffffffffffffffffffffffffff168273ffffffffffffffffffffffffffffffffffffffff1603610bc2576040517f08c379a0000000000000000000000000000000000000000000000000000000008152600401610bb990613be0565b60405180910390fd5b600360008373ffffffffffffffffffffffffffffffffffffffff1673ffffffffffffffffffffffffffffffffffffffff168152602001908152602001600020549050919050565b600a6020528060005260406000206000915090505481565b606060018054610c309061391b565b80601f0160208091040260200160405190810160405280929190818152602001828054610c5c9061391b565b8015610ca95780601f10610c7e57610100808354040283529160200191610ca9565b820191906000526020600020905b815481529060010190602001808311610c8c57829003601f168201915b5050505050905090565b6009602052806000526040600020600091509050806000015490806001018054610cdc9061391b565b80601f0160208091040260200160405190810160405280929190818152602001828054610d089061391b565b8015610d555780601f10610d2a57610100808354040283529160200191610d55565b820191906000526020600020905b815481529060010190602001808311610d3857829003601f168201915b505050505090806002018054610d6a9061391b565b80601f0160208091040260200160405190810160405280929190818152602001828054610d969061391b565b8015610de35780601f10610db857610100808354040283529160200191610de3565b820191906000526020600020905b815481529060010190602001808311610dc657829003601f168201915b5050505050908060030154908060040154908060050154905086565b610e11610e0a611dd8565b8383612264565b5050565b610e26610e20611dd8565b83611e99565b610e65576040517f08c379a0000000000000000000000000000000000000000000000000000000008152600401610e5c90613ae2565b60405180910390fd5b610e71848484846123d0565b50505050565b60606008805480602002602001604051908101604052809291908181526020016000905b8282101561101957838290600052602060002090600602016040518060c001604052908160008201548152602001600182018054610ed89061391b565b80601f0160208091040260200160405190810160405280929190818152602001828054610f049061391b565b8015610f515780601f10610f2657610100808354040283529160200191610f51565b820191906000526020600020905b815481529060010190602001808311610f3457829003601f168201915b50505050508152602001600282018054610f6a9061391b565b80601f0160208091040260200160405190810160405280929190818152602001828054610f969061391b565b8015610fe35780601f10610fb857610100808354040283529160200191610fe3565b820191906000526020600020905b815481529060010190602001808311610fc657829003601f168201915b50505050508152602001600382015481526020016004820154815260200160058201548152505081526020019060010190610e9b565b50505050905090565b60606000600960008481526020019081526020016000206040518060c00160405290816000820154815260200160018201805461105e9061391b565b80601f016020809104026020016040519081016040528092919081815260200182805461108a9061391b565b80156110d75780601f106110ac576101008083540402835291602001916110d7565b820191906000526020600020905b8154815290600101906020018083116110ba57829003601f168201915b505050505081526020016002820180546110f09061391b565b80601f016020809104026020016040519081016040528092919081815260200182805461111c9061391b565b80156111695780601f1061113e57610100808354040283529160200191611169565b820191906000526020600020905b81548152906001019060200180831161114c57829003601f168201915b505050505081526020016003820154815260200160048201548152602001600582015481525050905060006111a1826060015161242c565b905060006111b2836080015161242c565b905060006111c38460a0015161242c565b9050600061120985602001516111d88961242c565b87604001518787876040516020016111f596959493929190613f0e565b6040516020818303038152906040526124fa565b905060008160405160200161121e9190613fff565b6040516020818303038152906040529050809650505050505050919050565b611245612ec1565b6000600a60003373ffffffffffffffffffffffffffffffffffffffff1673ffffffffffffffffffffffffffffffffffffffff168152602001908152602001600020549050600081111561140457600960008281526020019081526020016000206040518060c0016040529081600082015481526020016001820180546112ca9061391b565b80601f01602080910402602001604051908101604052809291908181526020018280546112f69061391b565b80156113435780601f1061131857610100808354040283529160200191611343565b820191906000526020600020905b81548152906001019060200180831161132657829003601f168201915b5050505050815260200160028201805461135c9061391b565b80601f01602080910402602001604051908101604052809291908181526020018280546113889061391b565b80156113d55780601f106113aa576101008083540402835291602001916113d5565b820191906000526020600020905b8154815290600101906020018083116113b857829003601f168201915b505050505081526020016003820154815260200160048201548152602001600582015481525050915050611412565b61140c612ec1565b80925050505b90565b6000600a60003373ffffffffffffffffffffffffffffffffffffffff1673ffffffffffffffffffffffffffffffffffffffff168152602001908152602001600020549050600060096000838152602001908152602001600020905060008060068281548110611487576114866138bd565b5b90600052602060002090600602016040518060c0016040529081600082015481526020016001820180546114ba9061391b565b80601f01602080910402602001604051908101604052809291908181526020018280546114e69061391b565b80156115335780601f1061150857610100808354040283529160200191611533565b820191906000526020600020905b81548152906001019060200180831161151657829003601f168201915b5050505050815260200160028201805461154c9061391b565b80601f01602080910402602001604051908101604052809291908181526020018280546115789061391b565b80156115c55780601f1061159a576101008083540402835291602001916115c5565b820191906000526020600020905b8154815290600101906020018083116115a857829003601f168201915b50505050508152602001600382015481526020016004820154815260200160058201548152505090506116a66040518060600160405280603c8152602001614b3f603c91398460010180546116199061391b565b80601f01602080910402602001604051908101604052809291908181526020018280546116459061391b565b80156116925780601f1061166757610100808354040283529160200191611692565b820191906000526020600020905b81548152906001019060200180831161167557829003601f168201915b505050505085600301548660050154612691565b6116f36040518060400160405280601b81526020017f426f73732025732068617320257320485020616e642025732041440000000000815250826020015183606001518460a00151612691565b600083600301541161173a576040517f08c379a000000000000000000000000000000000000000000000000000000000815260040161173190614093565b60405180910390fd5b6000816060015111611781576040517f08c379a000000000000000000000000000000000000000000000000000000000815260040161177890614125565b60405180910390fd5b8260050154816060015110156117a15760008160600181815250506117bf565b826005015481606001516117b59190614174565b8160600181815250505b8060a00151836003015410156117de57600083600301819055506117fb565b8060a0015183600301546117f29190614174565b83600301819055505b611821604051806060016040528060258152602001614a84602591398260600151612733565b611847604051806060016040528060288152602001614b17602891398460030154612733565b7f838ab28464562786a6c4ab2311964b82fa60bd9b14aa7e856af1f3f18d41a414816060015184600301546040516118809291906141a8565b60405180910390a150505050565b6000600560008473ffffffffffffffffffffffffffffffffffffffff1673ffffffffffffffffffffffffffffffffffffffff16815260200190815260200160002060008373ffffffffffffffffffffffffffffffffffffffff1673ffffffffffffffffffffffffffffffffffffffff16815260200190815260200160002060009054906101000a900460ff16905092915050565b600061192e60076127cf565b905061193a33826127dd565b6040518060c001604052808381526020016008848154811061195f5761195e6138bd565b5b9060005260206000209060060201600101805461197b9061391b565b80601f01602080910402602001604051908101604052809291908181526020018280546119a79061391b565b80156119f45780601f106119c9576101008083540402835291602001916119f4565b820191906000526020600020905b8154815290600101906020018083116119d757829003601f168201915b5050505050815260200160088481548110611a1257611a116138bd565b5b90600052602060002090600602016002018054611a2e9061391b565b80601f0160208091040260200160405190810160405280929190818152602001828054611a5a9061391b565b8015611aa75780601f10611a7c57610100808354040283529160200191611aa7565b820191906000526020600020905b815481529060010190602001808311611a8a57829003601f168201915b5050505050815260200160088481548110611ac557611ac46138bd565b5b906000526020600020906006020160030154815260200160088481548110611af057611aef6138bd565b5b906000526020600020906006020160040154815260200160088481548110611b1b57611b1a6138bd565b5b90600052602060002090600602016005015481525060096000838152602001908152602001600020600082015181600001556020820151816001019081611b62919061437d565b506040820151816002019081611b78919061437d565b50606082015181600301556080820151816004015560a08201518160050155905050611bbd6040518060600160405280602e8152602001614ae9602e913982846127fb565b80600a60003373ffffffffffffffffffffffffffffffffffffffff1673ffffffffffffffffffffffffffffffffffffffff16815260200190815260200160002081905550611c0b6007611cec565b7f4bc303fd457a97b4691b9af582ce71868a3d258638c8d4f8c60988a0f0bfb8cd338284604051611c3e9392919061444f565b60405180910390a15050565b611ce684848484604051602401611c649493929190614486565b6040516020818303038152906040527f5d1a971a000000000000000000000000000000000000000000000000000000007bffffffffffffffffffffffffffffffffffffffffffffffffffffffff19166020820180517bffffffffffffffffffffffffffffffffffffffffffffffffffffffff838183161783525050505061289a565b50505050565b6001816000016000828254019250508190555050565b60006a636f6e736f6c652e6c6f679050600080835160208501845afa505050565b60007f01ffc9a7000000000000000000000000000000000000000000000000000000007bffffffffffffffffffffffffffffffffffffffffffffffffffffffff1916827bffffffffffffffffffffffffffffffffffffffffffffffffffffffff1916149050919050565b611d96816128b4565b611dd5576040517f08c379a0000000000000000000000000000000000000000000000000000000008152600401611dcc90613b4e565b60405180910390fd5b50565b600033905090565b816004600083815260200190815260200160002060006101000a81548173ffffffffffffffffffffffffffffffffffffffff021916908373ffffffffffffffffffffffffffffffffffffffff160217905550808273ffffffffffffffffffffffffffffffffffffffff16611e5383610acc565b73ffffffffffffffffffffffffffffffffffffffff167f8c5be1e5ebec7d5bd14f71427d1e84f3dd0314c0f7b2291e5b200ac8c7c3b92560405160405180910390a45050565b600080611ea583610acc565b90508073ffffffffffffffffffffffffffffffffffffffff168473ffffffffffffffffffffffffffffffffffffffff161480611ee75750611ee6818561188e565b5b80611f2557508373ffffffffffffffffffffffffffffffffffffffff16611f0d84610793565b73ffffffffffffffffffffffffffffffffffffffff16145b91505092915050565b8273ffffffffffffffffffffffffffffffffffffffff16611f4e82610acc565b73ffffffffffffffffffffffffffffffffffffffff1614611fa4576040517f08c379a0000000000000000000000000000000000000000000000000000000008152600401611f9b90614552565b60405180910390fd5b600073ffffffffffffffffffffffffffffffffffffffff168273ffffffffffffffffffffffffffffffffffffffff1603612013576040517f08c379a000000000000000000000000000000000000000000000000000000000815260040161200a906145e4565b60405180910390fd5b61202083838360016128f5565b8273ffffffffffffffffffffffffffffffffffffffff1661204082610acc565b73ffffffffffffffffffffffffffffffffffffffff1614612096576040517f08c379a000000000000000000000000000000000000000000000000000000000815260040161208d90614552565b60405180910390fd5b6004600082815260200190815260200160002060006101000a81549073ffffffffffffffffffffffffffffffffffffffff02191690556001600360008573ffffffffffffffffffffffffffffffffffffffff1673ffffffffffffffffffffffffffffffffffffffff168152602001908152602001600020600082825403925050819055506001600360008473ffffffffffffffffffffffffffffffffffffffff1673ffffffffffffffffffffffffffffffffffffffff16815260200190815260200160002060008282540192505081905550816002600083815260200190815260200160002060006101000a81548173ffffffffffffffffffffffffffffffffffffffff021916908373ffffffffffffffffffffffffffffffffffffffff160217905550808273ffffffffffffffffffffffffffffffffffffffff168473ffffffffffffffffffffffffffffffffffffffff167fddf252ad1be2c89b69c2b068fc378daa952ba7f163c4a11628f55a4df523b3ef60405160405180910390a461222283838360016128fb565b505050565b60006002600083815260200190815260200160002060009054906101000a900473ffffffffffffffffffffffffffffffffffffffff169050919050565b8173ffffffffffffffffffffffffffffffffffffffff168373ffffffffffffffffffffffffffffffffffffffff16036122d2576040517f08c379a00000000000000000000000000000000000000000000000000000000081526004016122c990614650565b60405180910390fd5b80600560008573ffffffffffffffffffffffffffffffffffffffff1673ffffffffffffffffffffffffffffffffffffffff16815260200190815260200160002060008473ffffffffffffffffffffffffffffffffffffffff1673ffffffffffffffffffffffffffffffffffffffff16815260200190815260200160002060006101000a81548160ff0219169083151502179055508173ffffffffffffffffffffffffffffffffffffffff168373ffffffffffffffffffffffffffffffffffffffff167f17307eab39ab6107e8899845ad3d59bd9653f200f220920489ca2b5937696c31836040516123c3919061315f565b60405180910390a3505050565b6123db848484611f2e565b6123e784848484612901565b612426576040517f08c379a000000000000000000000000000000000000000000000000000000000815260040161241d906146e2565b60405180910390fd5b50505050565b60606000600161243b84612a88565b01905060008167ffffffffffffffff81111561245a5761245961343d565b5b6040519080825280601f01601f19166020018201604052801561248c5781602001600182028036833780820191505090505b509050600082602001820190505b6001156124ef578080600190039150507f3031323334353637383961626364656600000000000000000000000000000000600a86061a8153600a85816124e3576124e2614702565b5b0494506000850361249a575b819350505050919050565b606060008251905060008103612522576040518060200160405280600081525091505061268c565b600060036002836125339190614731565b61253d9190614765565b60046125499190614796565b9050600060208261255a9190614731565b67ffffffffffffffff8111156125735761257261343d565b5b6040519080825280601f01601f1916602001820160405280156125a55781602001600182028036833780820191505090505b5090506000604051806060016040528060408152602001614aa9604091399050600181016020830160005b868110156126495760038101905062ffffff818a015116603f8160121c168401518060081b905060ff603f83600c1c1686015116810190508060081b905060ff603f8360061c1686015116810190508060081b905060ff603f831686015116810190508060e01b905080845260048401935050506125d0565b50600386066001811461266357600281146126735761267e565b613d3d60f01b600283035261267e565b603d60f81b60018303525b508484525050819450505050505b919050565b61272d848484846040516024016126ab94939291906147d8565b6040516020818303038152906040527ff45d7d2c000000000000000000000000000000000000000000000000000000007bffffffffffffffffffffffffffffffffffffffffffffffffffffffff19166020820180517bffffffffffffffffffffffffffffffffffffffffffffffffffffffff838183161783525050505061289a565b50505050565b6127cb828260405160240161274992919061482b565b6040516020818303038152906040527fb60e72cc000000000000000000000000000000000000000000000000000000007bffffffffffffffffffffffffffffffffffffffffffffffffffffffff19166020820180517bffffffffffffffffffffffffffffffffffffffffffffffffffffffff838183161783525050505061289a565b5050565b600081600001549050919050565b6127f7828260405180602001604052806000815250612bdb565b5050565b6128958383836040516024016128139392919061485b565b6040516020818303038152906040527fca47c4eb000000000000000000000000000000000000000000000000000000007bffffffffffffffffffffffffffffffffffffffffffffffffffffffff19166020820180517bffffffffffffffffffffffffffffffffffffffffffffffffffffffff838183161783525050505061289a565b505050565b6128b1816128a9611d02612c36565b63ffffffff16565b50565b60008073ffffffffffffffffffffffffffffffffffffffff166128d683612227565b73ffffffffffffffffffffffffffffffffffffffff1614159050919050565b50505050565b50505050565b60006129228473ffffffffffffffffffffffffffffffffffffffff16612c41565b15612a7b578373ffffffffffffffffffffffffffffffffffffffff1663150b7a0261294b611dd8565b8786866040518563ffffffff1660e01b815260040161296d94939291906148ee565b6020604051808303816000875af19250505080156129a957506040513d601f19601f820116820180604052508101906129a6919061494f565b60015b612a2b573d80600081146129d9576040519150601f19603f3d011682016040523d82523d6000602084013e6129de565b606091505b506000815103612a23576040517f08c379a0000000000000000000000000000000000000000000000000000000008152600401612a1a906146e2565b60405180910390fd5b805181602001fd5b63150b7a0260e01b7bffffffffffffffffffffffffffffffffffffffffffffffffffffffff1916817bffffffffffffffffffffffffffffffffffffffffffffffffffffffff191614915050612a80565b600190505b949350505050565b600080600090507a184f03e93ff9f4daa797ed6e38ed64bf6a1f0100000000000000008310612ae6577a184f03e93ff9f4daa797ed6e38ed64bf6a1f0100000000000000008381612adc57612adb614702565b5b0492506040810190505b6d04ee2d6d415b85acef81000000008310612b23576d04ee2d6d415b85acef81000000008381612b1957612b18614702565b5b0492506020810190505b662386f26fc100008310612b5257662386f26fc100008381612b4857612b47614702565b5b0492506010810190505b6305f5e1008310612b7b576305f5e1008381612b7157612b70614702565b5b0492506008810190505b6127108310612ba0576127108381612b9657612b95614702565b5b0492506004810190505b60648310612bc35760648381612bb957612bb8614702565b5b0492506002810190505b600a8310612bd2576001810190505b80915050919050565b612be58383612c64565b612bf26000848484612901565b612c31576040517f08c379a0000000000000000000000000000000000000000000000000000000008152600401612c28906146e2565b60405180910390fd5b505050565b612e81819050919050565b6000808273ffffffffffffffffffffffffffffffffffffffff163b119050919050565b600073ffffffffffffffffffffffffffffffffffffffff168273ffffffffffffffffffffffffffffffffffffffff1603612cd3576040517f08c379a0000000000000000000000000000000000000000000000000000000008152600401612cca906149c8565b60405180910390fd5b612cdc816128b4565b15612d1c576040517f08c379a0000000000000000000000000000000000000000000000000000000008152600401612d1390614a34565b60405180910390fd5b612d2a6000838360016128f5565b612d33816128b4565b15612d73576040517f08c379a0000000000000000000000000000000000000000000000000000000008152600401612d6a90614a34565b60405180910390fd5b6001600360008473ffffffffffffffffffffffffffffffffffffffff1673ffffffffffffffffffffffffffffffffffffffff16815260200190815260200160002060008282540192505081905550816002600083815260200190815260200160002060006101000a81548173ffffffffffffffffffffffffffffffffffffffff021916908373ffffffffffffffffffffffffffffffffffffffff160217905550808273ffffffffffffffffffffffffffffffffffffffff16600073ffffffffffffffffffffffffffffffffffffffff167fddf252ad1be2c89b69c2b068fc378daa952ba7f163c4a11628f55a4df523b3ef60405160405180910390a4612e7d6000838360016128fb565b5050565b612e89614a54565b565b6040518060c001604052806000815260200160608152602001606081526020016000815260200160008152602001600081525090565b6040518060c001604052806000815260200160608152602001606081526020016000815260200160008152602001600081525090565b6000604051905090565b600080fd5b600080fd5b6000819050919050565b612f1e81612f0b565b8114612f2957600080fd5b50565b600081359050612f3b81612f15565b92915050565b600060208284031215612f5757612f56612f01565b5b6000612f6584828501612f2c565b91505092915050565b612f7781612f0b565b82525050565b600081519050919050565b600082825260208201905092915050565b60005b83811015612fb7578082015181840152602081019050612f9c565b60008484015250505050565b6000601f19601f8301169050919050565b6000612fdf82612f7d565b612fe98185612f88565b9350612ff9818560208601612f99565b61300281612fc3565b840191505092915050565b600060c0830160008301516130256000860182612f6e565b506020830151848203602086015261303d8282612fd4565b915050604083015184820360408601526130578282612fd4565b915050606083015161306c6060860182612f6e565b50608083015161307f6080860182612f6e565b5060a083015161309260a0860182612f6e565b508091505092915050565b600060208201905081810360008301526130b7818461300d565b905092915050565b60007fffffffff0000000000000000000000000000000000000000000000000000000082169050919050565b6130f4816130bf565b81146130ff57600080fd5b50565b600081359050613111816130eb565b92915050565b60006020828403121561312d5761312c612f01565b5b600061313b84828501613102565b91505092915050565b60008115159050919050565b61315981613144565b82525050565b60006020820190506131746000830184613150565b92915050565b600082825260208201905092915050565b600061319682612f7d565b6131a0818561317a565b93506131b0818560208601612f99565b6131b981612fc3565b840191505092915050565b600060208201905081810360008301526131de818461318b565b905092915050565b600073ffffffffffffffffffffffffffffffffffffffff82169050919050565b6000613211826131e6565b9050919050565b61322181613206565b82525050565b600060208201905061323c6000830184613218565b92915050565b61324b81613206565b811461325657600080fd5b50565b60008135905061326881613242565b92915050565b6000806040838503121561328557613284612f01565b5b600061329385828601613259565b92505060206132a485828601612f2c565b9150509250929050565b6000806000606084860312156132c7576132c6612f01565b5b60006132d586828701613259565b93505060206132e686828701613259565b92505060406132f786828701612f2c565b9150509250925092565b61330a81612f0b565b82525050565b600060c0820190506133256000830189613301565b8181036020830152613337818861318b565b9050818103604083015261334b818761318b565b905061335a6060830186613301565b6133676080830185613301565b61337460a0830184613301565b979650505050505050565b60006020828403121561339557613394612f01565b5b60006133a384828501613259565b91505092915050565b60006020820190506133c16000830184613301565b92915050565b6133d081613144565b81146133db57600080fd5b50565b6000813590506133ed816133c7565b92915050565b6000806040838503121561340a57613409612f01565b5b600061341885828601613259565b9250506020613429858286016133de565b9150509250929050565b600080fd5b600080fd5b7f4e487b7100000000000000000000000000000000000000000000000000000000600052604160045260246000fd5b61347582612fc3565b810181811067ffffffffffffffff821117156134945761349361343d565b5b80604052505050565b60006134a7612ef7565b90506134b3828261346c565b919050565b600067ffffffffffffffff8211156134d3576134d261343d565b5b6134dc82612fc3565b9050602081019050919050565b82818337600083830152505050565b600061350b613506846134b8565b61349d565b90508281526020810184848401111561352757613526613438565b5b6135328482856134e9565b509392505050565b600082601f83011261354f5761354e613433565b5b813561355f8482602086016134f8565b91505092915050565b6000806000806080858703121561358257613581612f01565b5b600061359087828801613259565b94505060206135a187828801613259565b93505060406135b287828801612f2c565b925050606085013567ffffffffffffffff8111156135d3576135d2612f06565b5b6135df8782880161353a565b91505092959194509250565b600081519050919050565b600082825260208201905092915050565b6000819050602082019050919050565b600060c08301600083015161362f6000860182612f6e565b50602083015184820360208601526136478282612fd4565b915050604083015184820360408601526136618282612fd4565b91505060608301516136766060860182612f6e565b5060808301516136896080860182612f6e565b5060a083015161369c60a0860182612f6e565b508091505092915050565b60006136b38383613617565b905092915050565b6000602082019050919050565b60006136d3826135eb565b6136dd81856135f6565b9350836020820285016136ef85613607565b8060005b8581101561372b578484038952815161370c85826136a7565b9450613717836136bb565b925060208a019950506001810190506136f3565b50829750879550505050505092915050565b6000602082019050818103600083015261375781846136c8565b905092915050565b600060c0830160008301516137776000860182612f6e565b506020830151848203602086015261378f8282612fd4565b915050604083015184820360408601526137a98282612fd4565b91505060608301516137be6060860182612f6e565b5060808301516137d16080860182612f6e565b5060a08301516137e460a0860182612f6e565b508091505092915050565b60006020820190508181036000830152613809818461375f565b905092915050565b6000806040838503121561382857613827612f01565b5b600061383685828601613259565b925050602061384785828601613259565b9150509250929050565b7f4572726f723a20496e76616c696420696e646578000000000000000000000000600082015250565b600061388760148361317a565b915061389282613851565b602082019050919050565b600060208201905081810360008301526138b68161387a565b9050919050565b7f4e487b7100000000000000000000000000000000000000000000000000000000600052603260045260246000fd5b7f4e487b7100000000000000000000000000000000000000000000000000000000600052602260045260246000fd5b6000600282049050600182168061393357607f821691505b602082108103613946576139456138ec565b5b50919050565b7f4552433732313a20617070726f76616c20746f2063757272656e74206f776e6560008201527f7200000000000000000000000000000000000000000000000000000000000000602082015250565b60006139a860218361317a565b91506139b38261394c565b604082019050919050565b600060208201905081810360008301526139d78161399b565b9050919050565b7f4552433732313a20617070726f76652063616c6c6572206973206e6f7420746f60008201527f6b656e206f776e6572206f7220617070726f76656420666f7220616c6c000000602082015250565b6000613a3a603d8361317a565b9150613a45826139de565b604082019050919050565b60006020820190508181036000830152613a6981613a2d565b9050919050565b7f4552433732313a2063616c6c6572206973206e6f7420746f6b656e206f776e6560008201527f72206f7220617070726f76656400000000000000000000000000000000000000602082015250565b6000613acc602d8361317a565b9150613ad782613a70565b604082019050919050565b60006020820190508181036000830152613afb81613abf565b9050919050565b7f4552433732313a20696e76616c696420746f6b656e2049440000000000000000600082015250565b6000613b3860188361317a565b9150613b4382613b02565b602082019050919050565b60006020820190508181036000830152613b6781613b2b565b9050919050565b7f4552433732313a2061646472657373207a65726f206973206e6f74206120766160008201527f6c6964206f776e65720000000000000000000000000000000000000000000000602082015250565b6000613bca60298361317a565b9150613bd582613b6e565b604082019050919050565b60006020820190508181036000830152613bf981613bbd565b9050919050565b600081905092915050565b7f7b226e616d65223a202200000000000000000000000000000000000000000000600082015250565b6000613c41600a83613c00565b9150613c4c82613c0b565b600a82019050919050565b6000613c6282612f7d565b613c6c8185613c00565b9350613c7c818560208601612f99565b80840191505092915050565b7f202d2d204e465420233a20000000000000000000000000000000000000000000600082015250565b6000613cbe600b83613c00565b9150613cc982613c88565b600b82019050919050565b7f222c20226465736372697074696f6e223a20225468697320697320616e204e4660008201527f542074686174206c6574732070656f706c6520706c617920696e20746865206760208201527f616d65204d657461766572736520536c6179657221222c2022696d616765223a60408201527f2022000000000000000000000000000000000000000000000000000000000000606082015250565b6000613d7c606283613c00565b9150613d8782613cd4565b606282019050919050565b7f222c202261747472696275746573223a205b207b202274726169745f7479706560008201527f223a20224865616c746820506f696e7473222c202276616c7565223a20000000602082015250565b6000613dee603d83613c00565b9150613df982613d92565b603d82019050919050565b7f2c20226d61785f76616c7565223a000000000000000000000000000000000000600082015250565b6000613e3a600e83613c00565b9150613e4582613e04565b600e82019050919050565b7f7d2c207b202274726169745f74797065223a202241747461636b2044616d616760008201527f65222c202276616c7565223a2000000000000000000000000000000000000000602082015250565b6000613eac602d83613c00565b9150613eb782613e50565b602d82019050919050565b7f7d205d7d00000000000000000000000000000000000000000000000000000000600082015250565b6000613ef8600483613c00565b9150613f0382613ec2565b600482019050919050565b6000613f1982613c34565b9150613f258289613c57565b9150613f3082613cb1565b9150613f3c8288613c57565b9150613f4782613d6f565b9150613f538287613c57565b9150613f5e82613de1565b9150613f6a8286613c57565b9150613f7582613e2d565b9150613f818285613c57565b9150613f8c82613e9f565b9150613f988284613c57565b9150613fa382613eeb565b9150819050979650505050505050565b7f646174613a6170706c69636174696f6e2f6a736f6e3b6261736536342c000000600082015250565b6000613fe9601d83613c00565b9150613ff482613fb3565b601d82019050919050565b600061400a82613fdc565b91506140168284613c57565b915081905092915050565b7f4572726f723a20436861726163746572206d757374206861766520485020746f60008201527f2061747461636b20626f73732e00000000000000000000000000000000000000602082015250565b600061407d602d8361317a565b915061408882614021565b604082019050919050565b600060208201905081810360008301526140ac81614070565b9050919050565b7f4572726f723a20626f7373206d757374206861766520485020746f206174746160008201527f636b20636861726163746572732e000000000000000000000000000000000000602082015250565b600061410f602e8361317a565b915061411a826140b3565b604082019050919050565b6000602082019050818103600083015261413e81614102565b9050919050565b7f4e487b7100000000000000000000000000000000000000000000000000000000600052601160045260246000fd5b600061417f82612f0b565b915061418a83612f0b565b92508282039050818111156141a2576141a1614145565b5b92915050565b60006040820190506141bd6000830185613301565b6141ca6020830184613301565b9392505050565b60008190508160005260206000209050919050565b60006020601f8301049050919050565b600082821b905092915050565b6000600883026142337fffffffffffffffffffffffffffffffffffffffffffffffffffffffffffffffff826141f6565b61423d86836141f6565b95508019841693508086168417925050509392505050565b6000819050919050565b600061427a61427561427084612f0b565b614255565b612f0b565b9050919050565b6000819050919050565b6142948361425f565b6142a86142a082614281565b848454614203565b825550505050565b600090565b6142bd6142b0565b6142c881848461428b565b505050565b5b818110156142ec576142e16000826142b5565b6001810190506142ce565b5050565b601f82111561433157614302816141d1565b61430b846141e6565b8101602085101561431a578190505b61432e614326856141e6565b8301826142cd565b50505b505050565b600082821c905092915050565b600061435460001984600802614336565b1980831691505092915050565b600061436d8383614343565b9150826002028217905092915050565b61438682612f7d565b67ffffffffffffffff81111561439f5761439e61343d565b5b6143a9825461391b565b6143b48282856142f0565b600060209050601f8311600181146143e757600084156143d5578287015190505b6143df8582614361565b865550614447565b601f1984166143f5866141d1565b60005b8281101561441d578489015182556001820191506020850194506020810190506143f8565b8683101561443a5784890151614436601f891682614343565b8355505b6001600288020188555050505b505050505050565b60006060820190506144646000830186613218565b6144716020830185613301565b61447e6040830184613301565b949350505050565b600060808201905081810360008301526144a0818761318b565b905081810360208301526144b4818661318b565b90506144c36040830185613301565b81810360608301526144d5818461318b565b905095945050505050565b7f4552433732313a207472616e736665722066726f6d20696e636f72726563742060008201527f6f776e6572000000000000000000000000000000000000000000000000000000602082015250565b600061453c60258361317a565b9150614547826144e0565b604082019050919050565b6000602082019050818103600083015261456b8161452f565b9050919050565b7f4552433732313a207472616e7366657220746f20746865207a65726f2061646460008201527f7265737300000000000000000000000000000000000000000000000000000000602082015250565b60006145ce60248361317a565b91506145d982614572565b604082019050919050565b600060208201905081810360008301526145fd816145c1565b9050919050565b7f4552433732313a20617070726f766520746f2063616c6c657200000000000000600082015250565b600061463a60198361317a565b915061464582614604565b602082019050919050565b600060208201905081810360008301526146698161462d565b9050919050565b7f4552433732313a207472616e7366657220746f206e6f6e20455243373231526560008201527f63656976657220696d706c656d656e7465720000000000000000000000000000602082015250565b60006146cc60328361317a565b91506146d782614670565b604082019050919050565b600060208201905081810360008301526146fb816146bf565b9050919050565b7f4e487b7100000000000000000000000000000000000000000000000000000000600052601260045260246000fd5b600061473c82612f0b565b915061474783612f0b565b925082820190508082111561475f5761475e614145565b5b92915050565b600061477082612f0b565b915061477b83612f0b565b92508261478b5761478a614702565b5b828204905092915050565b60006147a182612f0b565b91506147ac83612f0b565b92508282026147ba81612f0b565b915082820484148315176147d1576147d0614145565b5b5092915050565b600060808201905081810360008301526147f2818761318b565b90508181036020830152614806818661318b565b90506148156040830185613301565b6148226060830184613301565b95945050505050565b60006040820190508181036000830152614845818561318b565b90506148546020830184613301565b9392505050565b60006060820190508181036000830152614875818661318b565b90506148846020830185613301565b6148916040830184613301565b949350505050565b600081519050919050565b600082825260208201905092915050565b60006148c082614899565b6148ca81856148a4565b93506148da818560208601612f99565b6148e381612fc3565b840191505092915050565b60006080820190506149036000830187613218565b6149106020830186613218565b61491d6040830185613301565b818103606083015261492f81846148b5565b905095945050505050565b600081519050614949816130eb565b92915050565b60006020828403121561496557614964612f01565b5b60006149738482850161493a565b91505092915050565b7f4552433732313a206d696e7420746f20746865207a65726f2061646472657373600082015250565b60006149b260208361317a565b91506149bd8261497c565b602082019050919050565b600060208201905081810360008301526149e1816149a5565b9050919050565b7f4552433732313a20746f6b656e20616c7265616479206d696e74656400000000600082015250565b6000614a1e601c8361317a565b9150614a29826149e8565b602082019050919050565b60006020820190508181036000830152614a4d81614a11565b9050919050565b7f4e487b7100000000000000000000000000000000000000000000000000000000600052605160045260246000fdfe506c617965722061747461636b656420626f73732e204e657720626f73732068703a2024734142434445464748494a4b4c4d4e4f505152535455565758595a6162636465666768696a6b6c6d6e6f707172737475767778797a303132333435363738392b2f4d696e746564204e465420772f20746f6b656e496420257320616e6420636861726163746572496e646578202573426f73732061747461636b656420706c617965722e204e657720506c617965722068703a2025730a0a506c6179657220772f206368617261637465722025732061626f757420746f2061747461636b2e2048617320257320485020616e64202573204144a26469706673582212207e6a408e84996a263e1dc7fe18e5c1cae510d4880e818d4195ac9b9fdba79e2e64736f6c63430008120033446f6e6520696e697469616c697a696e6720257320772f2048502025732c20696d67202573",
  "linkReferences": {},
  "deployedLinkReferences": {}
}